:100000000C948C070C94B4070C94B4070C94B407AC
:100010000C94B4070C94B4070C94B4070C94B40774
:100020000C94B4070C94B4070C94B4070C94B40764
:100030000C94B4070C94B4070C94B4070C94B40754
:100040000C94F91B0C94B4070C94B4070C94B407EB
:100050000C94B4070C94B4070C94B4070C94B40734
:100060000C94431C0C94B4073235364B783400366C
:10007000344B78340031364B7834003235364B7897
:10008000310033324B78312D486967680033324B89
:1000900078312D4C6F770036344B78310031364B48
:1000A0007831003434323536003434363400343468
:1000B000313600343132353600343533322D3400A8
:1000C000343533322D330034313634003431313667
:1000D0000052656C6561736520427574746F6E20A3
:1000E000746F2053746172742E00536F636B657468
:1000F0002531640078312F7834004452414D2D541D
:1001000065737465720056616C75653D25315820C4
:1001100050726F67726573733D25642F25640053B9
:1001200074726963740053706565647900536F631A
:100130006B65742531640050726573732042757469
:10014000746F6E20746F20457869742E006F6E2076
:1001500025303358202530335800536F636B657456
:10016000253164004641494C4544002A4E6F7420B5
:10017000736176656420756E6C657373206578694C
:10018000742E005361766520616E64204578697431
:10019000002A4F6E6C79206578697420627920722C
:1001A000657365742E005669657720427574746FA7
:1001B0006E202620506F7765723556002A4F6E6C80
:1001C0007920657869742062792072657365742E70
:1001D000005669657720506F776572313256002A74
:1001E00053657474696E672077696C6C2062652052
:1001F000657869742E0045726173652045455052DB
:100200004F4D002A5465737473206D6179206265C7
:1002100020696E61636375726174652E00004967C1
:100220006E6F726500436865636B00506F7765722F
:10023000355620566F6C746167653A005374726965
:100240006374005370656564790034626974204496
:1002500052414D20546573743A00312E302E3000D7
:100260004452414D2D54657374657200457261733B
:10027000696E672E2E2E005072657373204275745E
:10028000746F6E20746F20457869742E004572611A
:10029000736520636F6D706C6574652E0045455005
:1002A000524F4D00566F6C746167653A2532642E6B
:1002B00025316456206572723A252B32642E253121
:1002C0006425250056616C756541373A25346420F4
:1002D00065727235563A252B32642E2531642525F8
:1002E000003132562043686B2E0042616400476F34
:1002F0006F6400566F6C746167653A2531642E2512
:10030000316456206572723A252B32642E25316491
:1003100025250056616C756541363A2534642025E3
:10032000630042746E20262035562043686B2E00F1
:10033000000000002300260029005072657373201E
:10034000427574746F6E20746F20457869742E0046
:1003500041646A7573746D656E7420726571756938
:100360007265642E004661696C6564203132560006
:10037000507265737320427574746F6E20746F20B1
:10038000457869742E0041432D4164617074657233
:100390002072657175697265642E004661696C65CD
:1003A0006420355600507265737320427574746F03
:1003B0006E20746F20457869742E005374726963DF
:1003C000740053706565647900536F636B657425C1
:1003D0003164005041535345440046696E69736867
:1003E000696E67546573740046756C6C54657374FC
:1003F0005665726966790046756C6C5465737457FE
:10040000726974650046756C6C54657374566572D8
:100410006966790046756C6C5465737457726974BB
:100420006500576F72645465737400576F7264543B
:1004300065737400416472735465737420436F6C08
:1004400000416472735465737420526F7700537463
:10045000617274696E675465737400000000002453
:100460000027002A0000000000250028002B0004BF
:10047000040404040404040202020202020303034B
:100480000303030102040810204080010204081045
:1004900020010204081020000000080002010000F2
:1004A00003040700000000000000005F02030203D5
:1004B00004010104050800FF06FF06000140028E4A
:1004C00003BB2006C5FABC022108C5FA613B9403B0
:1004D000220AC5DA49944449CE00230DC53AA52421
:1004E0001994CAA0949218240BC55AD952DB92646D
:1004F000CB01250AC5DA619255C21C04260DC53A06
:1005000059122559254AB224062707C5FA619D05C7
:100510002808C5FA59D89A032909C5DA69D8962353
:10052000002A0BC5FA581449432495012B0AC5FA31
:1005300068180D5298032C07C5FACC5A0D2D08C522
:10054000FAE42127012E08C5FACCD916012F0AC5D5
:10055000FA489835E61000300CC5FA5912255112A8
:1005600025590E3108C5FA99D83603320AC5DA5230
:100570003192C22106330BC5BA4396A94914E9004A
:10058000340BC5FA9994444316E600350BC5BA43BB
:1005900012AE4914E900360AC5DA523855A24807A6
:1005A000370BC5BA43988559982300380AC5DA52E3
:1005B00049AA44910E390AC5DA52258AC648073A33
:1005C00009C5FAA0A6239A0E3B09C5FAA8A6235A84
:1005D0000D3C09C5FA48564CCB003D09C5FA94219B
:1005E0001E72103E09C5DA6931AB23003F0AC5FA15
:1005F000591266399403400CC55A52242D899248E9
:100600005505410CC5DA52254A86244AA218420AE9
:10061000C5BA5365AA44C90E430AC5DA52252C450A
:100620003A00440CC5BA53254AA2244A7600450B29
:10063000C5BA43124E6138C400460AC5BA43124EC9
:10064000611D02470BC5DA52254C9428D201480E91
:10065000C5BA5112254312255112C5004908C5DA01
:100660005BD836034A0AC5DA5B584AB21C014B0C08
:10067000C5BA5152D2922889CA004C08C5BA61C77E
:1006800021064D0EC5BA5132244312255112C50020
:100690004E0EC5BA51A2244392288912C5004F0CB0
:1006A000C5DA52254AA2248A7400500BC5BA5325D4
:1006B0004AA6308700510CC5DA52254A948AA426EE
:1006C00000520BC5BA53254AA64A14035309C5DA8A
:1006D000526B54D2015407C5DA5BD81D550DC5BA0B
:1006E00051122551122551A403560CC5BA51122599
:1006F0005112459A0E570EC5BA5112255132244354
:1007000012C500580CC5BA5112459A548962005955
:100710000AC5BA9996D4C23A005A0AC5BA4398355E
:100720000E31005B08C5DA53D838035C08C5BA61DE
:10073000DA18035D07C5DA63A7195E08C5FA59928E
:10074000B3025F07C5FADC87046007C5DA69CE0C1F
:10075000610AC5FAA4254AA26806620AC5BA6138C8
:1007600055A264076309C5FA34294C6500640CC5B9
:10077000FA48182D51124533006509C5FA2429316C
:10078000EA00660BC5FA5912655B982300670AC533
:10079000FA24A934461200680BC5BA613855A22460
:1007A0008A016909C5FA3922D666006A0BC5FA487A
:1007B0000E85A5248B006B0AC5BA6129992A510CB4
:1007C0006C07C5DA62B7196D0BC5FA14A5454994D3
:1007D0002A006E0AC5FA94A91225510C6F0AC5FAAF
:1007E00024A912453A00700AC5FA94A9328521005D
:1007F000710AC5FAA4258AC60A00720AC5FA94923B
:1008000052CC21007309C5FA34498D7400740AC5AD
:10081000DA61B685499603750BC5FA942889922842
:100820009A01760BC5FAA4244AA224CB01770AC503
:10083000FA944C4994CE00780AC5FA9428D2A4328E
:1008400000790CC5FA942889A2258A24007A0AC561
:10085000FA9421AB0D31007B0AC55A521AA9592AC4
:10086000037C07C5FA61EF007D0BC51A6A964A69D9
:10087000A423007E08C5DA493B330000000004FFD2
:10088000FF00005F0204020404010305090F00FDDC
:100890000AFD0BFF0214046306752006F9939F7F7F
:1008A000210BF9933BD8F7D8609E02220DF9931FD4
:1008B00016494552913C9F002315F9931F1E494547
:1008C0004283512415090D469154244F092415F9EA
:1008D000931F171B68229D2572BB442CD2CD4096D6
:1008E000C701251AF9931F158A242299442414C993
:1008F000057391502491892422A13C1C2617F99359
:100900001F258BA422A9484CA78954648A22899068
:10091000268F06270AF9931F17ACE72300280EF944
:10092000933D17CC057B194CE66100290EF99339EC
:10093000194C067B17CCE581002A12F9931F978A80
:10094000D424AA56899A48559E35002B0EF9939FB8
:1009500034583518A482F5A4002C0BF9939F8F749A
:10096000C2BA10002D0BF9939FA3C120CF11002E06
:1009700009F9939F8F747A022F0FF9931F9A0BE650
:100980000A7385B93C11003015F9931FB6CA544556
:10099000529154241549455299AA3D013110F993B9
:1009A0001F979325529160AF06833C1A3211F99339
:1009B0001F35D0A422A95C1F0E067934003312F92A
:1009C000931F3418047375CB60492A33D0C30134A4
:1009D00014F9931F999325529150A6283318E48255
:1009E000F570003514F9931F3418448215838C2850
:1009F000D8249519E8E1003616F9931F3608E582E8
:100A000015838C28928AA422A9CC400F073712F9AB
:100A1000931F34180473C15C3017CC05F3240038DD
:100A200012F9931FB6CA5465AA5699AA482A53B513
:100A3000273915F9931F35D0A422A9482A12D20CC0
:100A400012C1BAD0204F3A0BF9939F914E4FA4D3C5
:100A5000133B0DF9939F914E4FA413D685003C0B89
:100A6000F9931F99EB30D93D1C3D0EF9939FE96036
:100A700090470D067916003E0CF9931F95EC30D780
:100A80003D0D003F11F9931F35D0A422A960AE613E
:100A90001E92A700401AF9931F35D0A422A94864DA
:100AA00010496422898824A2880493033D1C4117BD
:100AB000F9931F5791CA5445529154643088A42227
:100AC000A9482A8F064216F9931F3410D5A422A1F3
:100AD000CC4054938AA422A1CC404F4310F9931FD9
:100AE00035D0A422C1BECA0CF470004417F9931F7C
:100AF0003410D5A422A9482A928AA422A9482833CE
:100B0000D0134512F9931F34184482850351B0E184
:100B1000609047034610F9931F34184482850351AF
:100B2000B07B22004715F9931F35D0A422C136931C
:100B30005424154965067A3800481AF9931F948A97
:100B4000A422A9482A3218445291542415494552E6
:100B5000793400490DF9931F359005FBD9400F07F3
:100B60004A0EF9931F379005FB26141AE4094B1619
:100B7000F9931F948A84324591D42C118BA432A10D
:100B80009A541E0D4C0CF9931F14EC0F07833C1A5A
:100B90004D16F9931F948AA4221A49A249A249BF6B
:100BA0008AA422A93C1A4E19F9931F948AA422A25E
:100BB000482213E926110949529154249547034FBD
:100BC00019F9931F35D0A422A9482A928AA422A9F0
:100BD000482A92CA0CF470005012F9931F34D8A41A
:100BE00022A9482A32D804BB2702511AF9931F358B
:100BF000D0A422A9482A928AA422A94822136933A0
:100C0000D025A5005218F9931F34D8A422A9482A48
:100C100032D8445299504D2A92CAA3015315F993E0
:100C20001F35D0A422A94872A98CA422A9CC400FB8
:100C300007540DF9931F3418A482FD3D0500551982
:100C4000F9931F948AA422A9482A928AA422A94827
:100C50002A92CA0CF470005617F9931F948AA422A2
:100C6000A94C51269449256289582297A700571309
:100C7000F9931F948AA422A9482AD2FF8B36F570D3
:100C8000005815F9931F948AA43255895C3097480F
:100C900065AA22A93C1A5910F9931F948AA43255C7
:100CA000895CB0F714005A10F9931F341804737D4F
:100CB000181C0CF268005B0DF99379900AF60F0787
:100CC0007914005C0EF9931F940C260B9385C93C94
:100CD0001A5D0CF9937710ECBF1AE461005E0CF911
:100CE000931F5791CA54E579075F0BF9939FDF0C67
:100CF000067A10006009F9933959CFC7006113F9DA
:100D0000939FC94019CC0C26A948483348E4D10028
:100D10006216F9931F146C31C88822A9482A928A56
:100D2000882289411E0E6310F9939FC940938A045B
:100D30005B65067A38006417F9931F1AAC192422F0
:100D400021492A928AA42221CD209147036513F9D3
:100D5000939FC940938AA422834124981CE8E10010
:100D60006611F9931FB7CA8432A1606C200BB627B5
:100D7000016718F9939FC9201109654299506810BD
:100D80004A0E34A9482A3390006815F9931F146C51
:100D900031C88822A9482A928AA422A93C1A690D3E
:100DA000F9931FA6470E7B36D0C3016A11F9931F32
:100DB000A8470E7B13CA8432A1D020036B14F99389
:100DC0001F146C15C968122A5D4295D1A4F26800FF
:100DD0006C0CF9931F35ECCF067A38006D0EF99341
:100DE0009FC54213E9FF577934006E15F9939F456B
:100DF0006290114552915424154945527934006F3F
:100E000014F9939FC940938AA422A9482A92CA0C34
:100E1000F470007016F9939F4562901145529154F9
:100E20002415114512834CB00E7116F9939FC920F9
:100E3000110949529154241509690689600B007201
:100E40000EF9939F4564A429CA04DBD3007312F9F9
:100E5000939FC940938A2407CA482A33D0C3017498
:100E60000FF9931F1F8C0D56C16E527B38007515FC
:100E7000F9939F452813CA8432A14C28130A0D12F6
:100E80007934007612F9939F452A92CA14655289E3
:100E9000582297A700770FF9939F452A928AF45F0B
:100EA000B4A987037811F9939F452A5395C855A48F
:100EB00032557934007917F9939F452813CA843243
:100EC000A14C2893112D8299506890017A0EF993C4
:100ED0009FC56090EBDD609047037B0FF9937D1514
:100EE000AC8CE994B960E51E047C09F9933BD8FF0A
:100EF0001E077D0FF9937519AC4BEA64C960D51EC6
:100F0000087E0CF9931FA58974A3E7130000000065
:100F100004FFFF000000621D11241FBECFEFD8E0C8
:100F2000DEBFCDBF11E0A0E0B1E0E2E6FAE502C02D
:100F300005900D92A03CB107D9F725E0A0ECB1E0F7
:100F400001C01D92A736B207E1F717E0CCE8D7E061
:100F500004C02197FE010E94F42CCB38D107C9F7B9
:100F60000E94251E0C942F2D0C940000662329F05E
:100F70006A3019F0862F90E008958FEF9FEF089563
:100F8000AF92BF92CF92DF92EF92FF920F93CF93E7
:100F9000DF93EC01DA017901942F9770E1E0F0E042
:100FA0009F01092E01C0220F0A94EAF7522F6E0109
:100FB0008AE8C80ED11CF601808140E0823018F426
:100FC000422F813049F15D01F8EFAF22E8ADF9AD74
:100FD00028813981D90150968C918A9D90018B9DF1
:100FE000300D1124620F731FDF01A60FB71F01110F
:100FF0001AC0EA0EFB1E8C91842B85278D93AE15AB
:10100000BF05C9F7DF91CF910F91FF90EF90DF906F
:10101000CF90BF90AF90089550E0D5CF440F550FBB
:10102000E114F10479F33C91342B35273C939F5F15
:101030009770E1E0EE1AF1089111F0CF2CAD3DADC3
:10104000A20FB31FF6018081823028F4813009F0AD
:1010500051E041E0E5CF51E0E3CF80E0089590E03A
:1010600080E00895CF93DF93C1EDD4E08FAFEAAD78
:10107000FBAD0190F081E02D85ED94E00995EAAD9E
:10108000FBAD0280F381E02D85ED94E0DF91CF91FF
:1010900009949B01DC011896ED91FC9141E067E118
:1010A0000994833081F028F4813099F08230A9F0DE
:1010B00008958730A9F08830C9F08430B1F4809168
:1010C00080008F7D03C0809180008F7780938000A7
:1010D000089584B58F7784BD089584B58F7DFBCF47
:1010E0008091B0008F778093B00008958091B00018
:1010F0008F7DF9CF1F93CF93DF93282F30E0F90135
:10110000E956FB4F8491F901ED57FB4FD491F9015A
:10111000E159FB4FC491CC23A9F0162F81110E94F5
:101120005108EC2FF0E0EE0FFF1FEB59FB4FA5919C
:10113000B4918FB7F894EC91111108C0D095DE23CB
:10114000DC938FBFDF91CF911F910895DE2BF8CFF5
:10115000CF93DF9390E0FC01ED57FB4F2491815931
:101160009B4FFC0184918823D1F090E0880F991F58
:10117000FC01E55AFB4FA591B491FC01EB59FB4FE3
:10118000C591D491623071F49FB7F8943C91822F4D
:10119000809583238C93E8812E2B28839FBFDF913A
:1011A000CF9108958FB7F894EC912E2B2C938FBF8D
:1011B000F6CF8E50806480937C0080917A008064AA
:1011C00080937A0080917A0086FDFCCF8091780030
:1011D00090917900089584E10E94D90821E030E0DF
:1011E000853A910514F430E020E0C90108953FB735
:1011F000F8948091C1029091C202A091C302B09173
:10120000C40226B5A89B05C02F3F19F00196A11D69
:10121000B11D3FBFBA2FA92F982F8827BC01CD0140
:10122000620F711D811D911D42E0660F771F881F9F
:10123000991F4A95D1F708958F929F92AF92BF92CE
:10124000CF92DF92EF92FF926B017C010E94F70830
:101250004B015C01C114D104E104F104B9F00E9416
:10126000F708681979098A099B09683E7340810566
:10127000910580F321E0C21AD108E108F10888EE57
:10128000880E83E0981EA11CB11CE4CFFF90EF9064
:10129000DF90CF90BF90AF909F908F900895209156
:1012A0005302260F3327331F21323105ECF42091EE
:1012B0007902FC0190E080E0243069F082E008953A
:1012C000A09153022191AC014F5C5D4FA40FB52F4B
:1012D000B11D2C930196861798F380915302680FE5
:1012E0006093530280E0089581E00895109279029E
:1012F00081E080937B0210927A0261E082E10E9499
:101300007A0861E083E10E947A08E9EBF0E08081ED
:101310008E7F808380818D7F808388E48093B80076
:1013200085E48093BC000895CF93DF9391E0909380
:1013300030028823B9F0C091B800D091BA008091F2
:10134000BC008A7B8093BC0060E082E10E947A0846
:1013500060E083E10E947A080E947609D093BA0087
:10136000C093B800DF91CF9108950895089508952E
:10137000E091280280912702E81730F4F0E0E95F5D
:10138000FD4F808190E008958FEF9FEF0895909139
:101390002802809127022FEF3FEF981748F4E92F9A
:1013A000F0E0E95FFD4F208130E09F5F90932802DD
:1013B000C90108958091270290912802891B990BF9
:1013C0000895CF92DF92EF92FF920F931F93CF93E6
:1013D000DF937C01CB018A0120910602222389F050
:1013E000EB016B01C40ED51ECC15DD0569F06991CA
:1013F000D701ED91FC910190F081E02DC701099595
:10140000F3CF642F0E944F09C801DF91CF911F9144
:101410000F91FF90EF90DF90CF900895CF93DF93DF
:101420001F92CDB7DEB76983209106022223F9F01F
:1014300020912902203258F021E030E0FC01338372
:10144000228390E080E00F90DF91CF91089580910A
:101450002A02E82FF0E0EA51FE4F998190838F5FD6
:1014600080932A028093290281E090E0ECCF61E032
:10147000CE0101960E944F09F7CFDC011A96ED913B
:10148000FC9130E020E00994DC011496ED91FC9190
:1014900030E020E040E060E10994DC011696ED9137
:1014A000FC9130E020E040E069E10994DC0116960F
:1014B000ED91FC9130E020E040E068E109949A0170
:1014C000DC011696ED91FC91462F67E10994EF92AD
:1014D000FF920F931F93CF93DF931F92CDB7DEB789
:1014E0007C018B01D8016C91673129F150F4653191
:1014F000A0F40F90DF91CF911F910F91FF90EF908B
:1015000008956A3118F16E3FA1F7F80141814983CE
:1015100069E2C7010E943D0A0BC0F801418149837D
:10152000D7011696ED91FC9130E020E0C7010995B6
:101530000E5F1F4FD7CFF80181818983AE014F5FC6
:101540005F4F61E0C7010E945F0AF2CF0F5F1F4F3C
:10155000D7011696ED91FC9130E020E040E0C70104
:101560000995C0CF462FDC011696ED91FC9130E035
:1015700020E066E10994462FDC011696ED91FC917E
:1015800030E020E065E10994EF92FF920F931F9302
:10159000CF93DF93EC01042F7901693069F48BE676
:1015A00091E0998388831C8A81E0DF91CF911F911C
:1015B0000F91FF90EF9008956D3009F475C038F4E5
:1015C0006A3091F16B3009F468C080E0EECF6E3084
:1015D00009F47DC06F30C9F70E94560AF7011381E4
:1015E000110F110F110F6C89160F612F62956F701B
:1015F0006061CE010E94BB0A612F6F70CE010E9414
:10160000BB0AF7016481606BCE010E94BB0AF7013F
:10161000408151816281660F660F660FCE010E9484
:101620005F0A0150A1F75DC0EA85FB8530E020E04C
:1016300040E068E20995EE81FF8130E020E040E083
:1016400064E1CE01099541E06BE4CE010E943D0AC0
:10165000E881F981448169E2CE010E943D0A40E0BF
:101660006BE4CE010E943D0AE881F981448169E280
:10167000CE010E943D0A41E06BE4CE010E943D0A8A
:10168000E881F981458169E2CE010E943D0A66E365
:1016900071E0CE010E94670A87CF61E371E04423C5
:1016A000C1F36CE271E0F5CF411109C065E271E070
:1016B0000E94670AE881F98182898C8B75CF6EE17F
:1016C00071E00E94670AE881F9818389F6CF0E9460
:1016D000560A61E8CE010E94BB0A602FCE010E942B
:1016E000B20ACE010E944D0A5FCFDC011896ED913F
:1016F000FC9130E020E040E069E10994DC011896BB
:10170000ED91FC9130E020E040E068E10994CF9356
:10171000DF931F92CDB7DEB76983BE016F5F7F4F46
:101720000E9449080F90DF91CF910895EF92FF92A8
:101730001F93CF93DF93EC01162F7A010E947E0B4B
:1017400060E4CE010E94870BE885F9859701412F5F
:1017500067E1CE010995CE01DF91CF911F91FF90F6
:10176000EF900C94750BEF92FF921F93CF93DF9342
:10177000EC01142F7901663181F138F4643109F4F8
:101780004BC0653179F080E022C06831C9F150F179
:101790006931C9F78091E501882391F1CE010E945A
:1017A000750B2EC08091E501882319F0CE010E94AF
:1017B000750BCE010E947E0B60E0CE010E94870B6C
:1017C000612FCE010E94870B81E08093E501DF91BC
:1017D000CF911F91FF90EF900895642F0E94870B87
:1017E00081E0F5CF8091E501882319F0CE010E94B8
:1017F000750BA701193138F4612FCE010E94960BA9
:101800001092E501EDCF68E1CE010E94960B1851D0
:1018100088E1E80EF11CEDCF8E898F3F11F488E747
:101820008E8BE885F9859701412F64E1CE01DF9128
:10183000CF911F91FF90EF9009940F93FC01E05C12
:10184000FF4F0190F081E02D4E1B5F0BDC01D49621
:10185000ED91FC9109950F910895CF93DF93FC01D1
:10186000A081B18182AD90E09C0143E0220F331F43
:101870004A95E1F737AF26AF50962C91509748E044
:10188000249F9001112435AF24AF23AD30E0B9017E
:1018900053E0660F771F5A95E1F7EF01C05CDF4F09
:1018A0007983688351964C915197E901C80FD91FEC
:1018B00050E04C175D0718F4CA01821B930BEF012F
:1018C000CE5BDF4F79836883229623E0880F991FD0
:1018D0002A95E1F7860F971F99838883229654965D
:1018E0008D919C91559799838883E85BFF4F56961D
:1018F0008D919C9191838083DF91CF9108950F9377
:101900001F93FC01E25BFF4F0190F081E02DDC01B1
:10191000A05BBF4F0D90BC91A02D4A175B0740F410
:10192000E017F10748F00417150730F080E019C000
:10193000E017F107C0F3FACFFC01E65BFF4F4081EF
:101940005181845B9F4FFC018081918168177907E9
:1019500058F481E04217530720F081E0261737073B
:1019600028F71F910F91089542175307B0F3DECF68
:101970002F923F924F925F926F927F928F929F929F
:10198000AF92BF92CF92DF92EF92FF920F931F938D
:10199000CF93DF93CDB7DEB72A970FB6F894DEBFAB
:1019A0000FBECDBF9A878987865B9F4F9A838983B5
:1019B000FC0111821082E985FA85EA5BFF4F4080C5
:1019C000518029853A85245B3F4F3C832B83F90165
:1019D00051824082E985FA85EE5BFF4F208031809D
:1019E00029853A85225B3F4F3E832D83F901318261
:1019F0002082E985FA85EC5BFF4F60807180298544
:101A00003A85205B3F4F38872F83F90171826082CE
:101A1000E985FA85E85AFF4FE080F180E985FA858B
:101A2000EC5AFF4FA080B180E985FA85EA5AFF4F52
:101A3000C080D180E985FA85EE5AFF4F8080918081
:101A400087019501A601B40189859A850E947F0CC2
:101A500029853A852C573F4F3A87298781111BC02A
:101A6000F90110822A960FB6F894DEBF0FBECDBFE3
:101A7000DF91CF911F910F91FF90EF90DF90CF906A
:101A8000BF90AF909F908F907F906F905F904F909E
:101A90003F902F90089581E0E985FA858083811435
:101AA000910421F0E981FA8191828082A414B50425
:101AB00020F4EB81FC81B182A0822C143D0420F43F
:101AC000ED81FE81D182C082E614F70458F6EF81E1
:101AD000F885F182E082C6CF0F93CF93DF93E02F9A
:101AE000DC01AC57BF4FFC91FF2309F460C0211506
:101AF000310509F45CC02230310538F0023009F0BC
:101B00004AC06F5F7F4F621B730B0E2F0170E0FDA9
:101B100052C0FC01E25BFF4F0190F081E02D4E17B7
:101B20005F0708F444C0FC01E05BFF4F0190F081C7
:101B3000E02D4E175F07D8F5FC01E45BFF4F0190E5
:101B4000F081E02DDC01A65BBF4F0D90BC91A02D74
:101B5000260F371F2617370738F56E177F0718F53A
:101B60009F0121503109A217B30708F56A177B07B7
:101B700008F4BD012E173F0708F4F901E61BF70B27
:101B8000EC01AEA9BFA914960D90BC91A02D9F01A8
:101B9000FD0109950CC0033009F0B7CF4F5F5F4FCF
:101BA000421B530BB2CFBD016E177F07E0F2DF91EE
:101BB000CF910F910895FC01E65BFF4F0190F081FA
:101BC000E02D6E177F0798F3FC01E45BFF4F019057
:101BD000F081E02D6E177F0750F7FC01E05BFF4FAF
:101BE0000190F081E02DDC01A25BBF4F0D90BC9114
:101BF000A02D240F351F24173507A8F44E175F07B3
:101C000088F49F0121503109A217B30780F64A17C3
:101C10005B0708F4AD012E173F0708F4F901E41B38
:101C2000F50BAECFAD014E175F0708F6EDCF2130B3
:101C300069F038F0223079F0840F911D47FD9A95B4
:101C40000895860F911D67FD9A950895841B91094B
:101C500047FD93950895861B910967FD9395089517
:101C6000213069F038F0223079F0861B910967FD48
:101C700093950895840F911D47FD9A950895860FB9
:101C8000911D67FD9A950895841B910947FD9395D1
:101C900008953F924F925F926F927F928F929F92A0
:101CA000AF92BF92CF92DF92EF92FF920F931F936A
:101CB000CF93DF937C01162F442EEC01C25ADF4FE5
:101CC0005E806F806C018AE8C80ED11C788475181C
:101CD000312E711608F4372C8C809D800E85202FB4
:101CE000462D652D8A819B810E94170E5C01202F55
:101CF000462D652DC4010E94300EAC01442079F0C0
:101D00008C85F6018083232D30E0B501C7010E9448
:101D10006C0D171548F017196394512CD7CF8B858C
:101D20008111F7CF8D85EDCF150D1E836F82DF9169
:101D3000CF911F910F91FF90EF90DF90CF90BF90C8
:101D4000AF909F908F907F906F905F904F903F905B
:101D50000895DC011A964C911A97ED91FC91119718
:101D6000249130E0042E02C0359527950A94E2F7BD
:101D7000842F860F883068F031961196FC93EE938D
:101D8000E49198E0941B01C0EE0F9A95EAF72E2B90
:101D900088501A968C938FEF9FEF01C0880F6A9539
:101DA000EAF7809582230895FC01E60FF11D8491E6
:101DB00090E0982F88273196E4918E0F911D089519
:101DC000CF93DF9320912F053091300528173907E5
:101DD00009F490C0EC019093300580932F05FC012D
:101DE0008491809342053196E491E0934305FE018E
:101DF0003296E491E0934405FE013396E491E0933A
:101E00004505FE013496E491E0934605FE013596C2
:101E1000E491E0934705FE013696E491E09348058E
:101E2000FE013796E491E0934905FE013896E4916E
:101E3000E0934A05FE013996E491E0934B05FE01DB
:101E40003A96E491E0934C05FE013B96E491E093D1
:101E50004D05FE013C96E491E0934E05FE013D9652
:101E6000E491E0934F05FE013E96E491E093500526
:101E7000FE013F96E491E0935105FE017096E491D6
:101E8000E093520561E1CE010E94D40E9093540577
:101E90008093530563E1CE010E94D40E90935605C2
:101EA0008093550565E1CE010E94D40E90935805AC
:101EB0008093570580912F0590913005892BD1F0A3
:101EC00080914F0580935B054091500540935C05E0
:101ED00090915A05992371F0913079F490915105C0
:101EE000891714F490935B0580915205841714F4BC
:101EF00080935C05DF91CF91089530914C0520913E
:101F00004E05082E000C990B622F022E000C770B49
:101F1000630F711D37FD7A95861797071CF4320FF2
:101F200030935B05241734F720935C05E3CF4F9281
:101F30005F926F927F928F929F92AF92BF92CF9259
:101F4000DF92EF92FF920F931F93CF93DF93EC01F9
:101F50006B018A017901FC01E459FF4F80818130D6
:101F600009F44BC008F43EC0823009F451C08330FC
:101F700009F459C0FE01E05AFF4FD182C082329667
:101F80001183008338978081918147962FEFE21665
:101F9000F10411F008F0F2C0E1E6EE16F10408F4E5
:101FA0004DC0FE01E058FF4F20813181820F931F09
:101FB0009C012F5F3F4FF9014491411148C090E0CF
:101FC00080E0DF91CF911F910F91FF90EF90DF9014
:101FD000CF90BF90AF909F908F907F906F905F90C9
:101FE0004F900895FE01E45AFF4F0190F081E02DDB
:101FF000CE010995080F191FBDCFFE01E45AFF4F0E
:102000000190F081E02DCE010995C81AD90AB2CF0E
:10201000FE01E45AFF4F0190F081E02DCE010995B9
:10202000081B190BA7CFFE01E45AFF4F0190F08166
:10203000E02DCE010995C80ED91E9CCFF1E4EF1614
:10204000F10408F4B5CFFE01E258FF4FADCFFC011B
:1020500044914E151F0409F08CC00296009709F4B4
:10206000AECF7E01FEE5EF0EF11CF7019183808378
:10207000128673966081C7010E94A90EF7018087BE
:1020800074966081C7010E94A90E982EF70181877E
:102090005E01FAE8AF0EB11CF5019081F70194875B
:1020A00081E0911180E0F7018587FE01ED58FF4F37
:1020B000C0806C2DC7010E94A90E582EFE01EC585D
:1020C000FF4FD0806D2DC7010E94A90E482EFE0142
:1020D000EB58FF4F1081612FC7010E94A90E9FEF9F
:1020E000910F01E010E0980101C0220F9A95EAF7E4
:1020F000882E821AF701608416140CF0ADC0CA94C1
:10210000C80101C0880FCA94EAF7581A7684490CAE
:10211000DA94A80101C0440FDA94EAF7F42FF41915
:102120004F2E272D4F2F652DF701828193810E941D
:10213000170E6C01F70193838283272D442D652DA3
:10214000848195810E94300EF70195838483F1E0AC
:102150007F1609F485C07F1608F43FC022E072168E
:1021600009F48DC0E3E07E1609F49DC0BC01960120
:102170003EC0F9012491820F911D1ACFFE01EE5746
:10218000FF4F00811181080F191F680160E0C6012F
:102190000E94D40E080F191F62E0C6010E94D40EDF
:1021A000F4E0CF0ED11C8E159F0580F3F8018491C9
:1021B00090E0982F88273196E4918E2B009709F4B0
:1021C000FECEE816F90619F4C801039647CFF801C8
:1021D0003296E4910E0F111DE9CF9601260D311DA7
:1021E00067FC3A95BC01690D711D97FC7A958B01CE
:1021F000AC01B601CE010E947F0C882369F1F70182
:10220000168217828E0101591F4F6E01F0E7CF0E23
:10221000D11CF8016081C7010E94A90E682EF60149
:102220006081C7010E94A90E782E40E0662DCE0184
:102230000E94490E41E0672DCE010E94490E61E0E7
:10224000C7010E94A90E8111F0CFF701878189157E
:1022500004F38485F5018083882D880C990BB1CE19
:102260000919110997FC139596012F5F3F4FBC0187
:10227000660D711D67FC7A95C00ED11EB8CFA801FE
:102280004619510967FC539596012F5F3F4F091975
:10229000110997FC1395BC016F5F7F4F800F911F51
:1022A000C40ED51EA4CF9601290D311D97FC3A9579
:1022B0000619110967FC1395BC016F5F7F4F800FF2
:1022C000911F95CFCF92DF92EF92FF920F931F93C2
:1022D000CF93DF93EC018B011092ED047A01D12CA6
:1022E000C12CF70161917F01E091D704F091D804EE
:1022F00085ED94E009958F3F980719F18E3F2FEFF8
:10230000920779F39C01A801BE0185ED94E00E943B
:10231000970F20914105213059F038F0223059F0C3
:10232000233061F0C80ED91EDCCFC80FD91FFACFF9
:10233000080F191FF7CFC81BD90BF4CF081B190BB7
:10234000F1CFC601DF91CF911F910F91FF90EF90D8
:10235000DF90CF900895AF92BF92CF92DF92EF922D
:10236000FF920F931F93CF93DF9300D000D01F9263
:10237000CDB7DEB78C01DC01DA96AC90DA97DB964C
:10238000EC90DB97ED91FC91B188FE2CD12CC12C07
:10239000D801ED91FC9111978089D8962D913C91AF
:1023A0001C82FD828B83B8E08B9FC00111248C9D21
:1023B000A0018D9D500D9C9D500D1124240F351FA3
:1023C0003A832983D8011496ED91FC919E012F5FE9
:1023D0003F4F41E06FE0C8010995F3948F2D8E19AE
:1023E0008A1528F4BFEFCB1ADB0AFB1488F20F9092
:1023F0000F900F900F900F90DF91CF911F910F9141
:10240000FF90EF90DF90CF90BF90AF90089585ED53
:1024100094E00E94AB1185ED94E00C94440ACF92B5
:10242000DF92EF92FF920F931F93CF93DF93EC0114
:10243000962F683109F44BC0B901993130F49431C9
:10244000C9F0973189F080E006C0993109F461C084
:102450009032C9F781E0DF91CF911F910F91FF90EA
:10246000EF90DF90CF90089550E085EC92E00E94CD
:10247000E109F0CF8C859D85AE85BF85892B8A2BA0
:102480008B2B71F4E881F981A585B0E020EA36E86C
:1024900041E050E00E94FA2C6C877D878E879F87F1
:1024A000109228021092270210922A0210922902FA
:1024B0000E94760985EB99E0909352028093510235
:1024C00086EB99E09093560280935502C3CF2C85FA
:1024D0003D854E855F8560E074E284EF90E00E9468
:1024E000D22C20513109410951095695479537950C
:1024F00027952093B8008E8990E09595879591E077
:10250000909306028093E40110922A02109229020D
:10251000A1CFD0912902D13208F093C0C091E4013B
:102520000E94F7086B017C0180917902811164C0DF
:1025300082E08093790281E080937B028FEF809329
:10254000780210929D02D0939C02A6EEB1E0ECE7D7
:10255000F2E080E0D8137CC010929E0280919E022F
:10256000CC0FC82BC0939E0280917A02813009F073
:1025700073C010927A020E94F7086B017C0180916F
:102580009E028093BB0080912C0290912D02A0911D
:102590002E02B0912F02892B8A2B8B2B99F00E944F
:1025A000F70800912C0210912D0220912E023091FB
:1025B0002F026C197D098E099F0906171707280736
:1025C0003907D8F18091BC0083FDD9CF85EC809389
:1025D000BC000E94F7086B017C0180917902823077
:1025E000E9F1809178028F3F61F180917802803229
:1025F00041F18091780225C080912C0290912D02AA
:10260000A0912E02B0912F02892B8A2B8B2B09F4DB
:102610008BCF0E94F70800912C0210912D0220917F
:102620002E0230912F026C197D098E099F09061721
:1026300017072807390708F077CF80912B020E94EF
:10264000940910922A02109229021092060202CFD7
:102650009D9191938F5F7ECF85EEB9CF80912C02B3
:1026600090912D02A0912E02B0912F02892B8A2BDE
:102670008B2B09F4B2CF0E94F70800912C02109125
:102680002D0220912E0230912F026C197D098E09A6
:102690009F09061717072807390708F09ECFCDCFE7
:1026A0000F931F93CF93DF93EC01862F642F8C320F
:1026B00008F03AC08A3208F060C0883209F44BC092
:1026C000893209F460C0803408F475C0982F9F7374
:1026D000FE01E90FF11D868D8F3F09F44EC0903148
:1026E00008F436C0282F30E0F901E956FB4F8491F9
:1026F000F901ED57FB4F0491F901E159FB4F14919A
:10270000112379F081110E945108E12FF0E0EE0FC2
:10271000FF1FE05DFC4FA591B491EC910E2381E089
:1027200009F480E0898F29C08D3299F108F4CBCF6C
:1027300094EB980F923008F0C6CF8F73C80FD11D5D
:102740008E8D411134C061E00E94A80860E08E8D3A
:102750000E947A0812C08E01025E1F4FD0E0F8017D
:1027600081918F018F3F31F061E0D03108F062E05C
:102770000E94A808DF5FD63191F781E0DF91CF9109
:102780001F910F91089570E090E080E00E941C0975
:10279000F4CF85E090E0433010F082E090E0880FC5
:1027A000991F880F991F05970197F1F7E6CF62E00F
:1027B0000E94A808E2CF80E0E1CF25B1207C382F2D
:1027C0003F73232B25B92BB136E0959587953A9524
:1027D000E1F745E0880F991F4A95E1F72F71822BA9
:1027E0008BB90895CF93DF93EB0128B1207F28B9EF
:1027F00027B1207F27B90E94DD135A98CE010E948D
:10280000DD135B98000000000000000000000000E5
:1028100086B15B9A5A9A8F7090E0DF91CF910895BC
:10282000CF93DF93EB0138980E94DD135A98CE01C5
:102830000E94DD135B980000000000000000000013
:10284000000086B15B9A5A9A817090E0DF91CF9137
:1028500008950F931F93CF938B01C42F27B12F603F
:1028600027B90E94DD135A985C9848B1407FCF7019
:102870004C2B48B9C8010E94DD135B980000000092
:1028800000000000000000005C9A5B9A5A9ACF9109
:102890001F910F9108958F929F92AF92BF92CF9206
:1028A000DF92EF92FF920F931F93CF93DF936C0110
:1028B000D0E0C0E088248394912C8091AF02909165
:1028C000AE02282F291B922F940102C0220F331F22
:1028D0009A95E2F7C217D30744F59091AD027E01B5
:1028E00002C0EE0CFF1C9A95E2F72091AB023091EA
:1028F000AC02E22AF32A540102C0AA0CBB1C8A953E
:10290000E2F710E000E00A151B056CF48091A902C3
:102910009091AA02A601B701802B912B0E94291445
:102920000F5F1F4FF0CF2196C8CF80E0DF91CF918E
:102930001F910F91FF90EF90DF90CF90BF90AF90DD
:102940009F908F9008951F93CF93DF93EB01142FE7
:10295000399A0E94DD135A985C9810FD419A10FF35
:102960004198CE010E94DD135B980000000000003A
:102970000000000000005C9A5B9A5A9ADF91CF91A8
:102980001F9108958F929F92AF92BF92CF92DF9244
:10299000EF92FF920F931F93CF93DF936C01D0E0E0
:1029A000C0E088248394912C8091AF029091AE0274
:1029B000282F291B922F940102C0220F331F9A95B2
:1029C000E2F7C217D30744F59091AD027E0102C031
:1029D000EE0CFF1C9A95E2F72091AB023091AC020D
:1029E000E22AF32A540102C0AA0CBB1C8A95E2F722
:1029F00010E000E00A151B056CF48091A90290918B
:102A0000AA02A601B701802B912B0E94A3140F5F8D
:102A10001F4FF0CF2196C8CF80E0DF91CF911F915B
:102A20000F91FF90EF90DF90CF90BF90AF909F906D
:102A30008F9008958BB183708BB98AB183708AB9F6
:102A400085B1807C85B984B1807C84B988B1807F70
:102A500088B987B1807F87B90895CF92DF92EF92CE
:102A6000FF92CF93DF9384E10E94D908EC0180E0CC
:102A7000C53AD1050CF493C060919F027091A002F9
:102A8000072E000C880B990B0E949C2B6B017C017C
:102A9000BE01DD0F880B990B0E949C2B9B01AC01A2
:102AA000C701B6010E94F22A6093A5027093A602A4
:102AB0008093A7029093A8026091A5027091A6024C
:102AC0008091A7029091A80220E030E048EA50E40B
:102AD0000E94ED2A87FF11C06091A5027091A602A5
:102AE0008091A7029091A802C1E020E030E048E97F
:102AF00050E40E944C2C18160CF0C0E0C093B002B9
:102B0000C090A502D090A602E090A702F090A80283
:102B100085E10E94D908EC0120E030E040E45BE36D
:102B2000C701B6010E94512C6B017C01BE01DD0F73
:102B3000880B990B0E949C2B9B01AC01C701B6012D
:102B40000E94512C6093A1027093A2028093A30271
:102B50009093A4026091A1027091A2028091A302BD
:102B60009091A40229E939E949E451E40E94ED2A4F
:102B700087FF11C06091A1027091A2028091A3020F
:102B80009091A402C1E026E636E646E351E40E94B5
:102B90004C2C18160CF0C0E0C093B10281E0DF911C
:102BA000CF91FF90EF90DF90CF9008950E94EB08B7
:102BB000892BE1F30E94EB080197E1F30E94EB08F7
:102BC000892BE1F30895CF92DF92EF92FF920F935A
:102BD0001F93CF93DF936C01EB017B01E40EF51E95
:102BE00010E000E0CE15DF0561F06991D601ED91AE
:102BF000FC910190F081E02DC6010995080F191F85
:102C0000F1CFC801DF91CF911F910F91FF90EF900D
:102C1000DF90CF900895CF92DF92EF92FF920F93C3
:102C20001F93CF93DF93EC016C0124E0C20ED11C03
:102C3000FC01E057FF4F0190F081E02DC60109959E
:102C40008E3FEFEF9E07D8F48E010C561F4FF80110
:102C5000408151817E01F2E9EF0EF11CF7016081A4
:102C600071819C01C6010E94970FC059DF4F2881D6
:102C70002130C1F078F02230B9F02330E9F081E062
:102C800090E0DF91CF911F910F91FF90EF90DF9037
:102C9000CF900895F70120813181820F931F918396
:102CA0008083EDCFF801F7CFF70120813181281B18
:102CB000390B31832083E3CFF801F7CF089590E0FB
:102CC00080E0089585ED8093BC0080912C02909166
:102CD0002D02A0912E02B0912F020796A11DB11DC9
:102CE00023E0B695A795979587952A95D1F72091DA
:102CF000BC0024FD03C010927902089540912C027B
:102D000050912D0260912E0270912F02452B462B7F
:102D1000472B69F30097A105B10541F02AE22A95F6
:102D2000F1F700C00197A109B109E1CF80912B0211
:102D30000C9494091F93CF93DF93EC01162F0E94FC
:102D4000332A181739F0612FCE01DF91CF911F91EF
:102D50000C943B2ADF91CF911F9108950C94332A54
:102D6000FC01A081B18150962C9182AD38E0839F07
:102D7000C0011124289FA001299F500D112470E04B
:102D800060E080AD91AD0C94282DCF93DF93CDB74B
:102D9000DEB76A970FB6F894DEBF0FBECDBF9E01B7
:102DA0002B5D3F4F4BA15CA16AE170E0CE01019623
:102DB0000E94892786EB97E09093D8048093D704EC
:102DC000AE014F5F5F4F69A17AA18F8D98A10E94DC
:102DD00062116A960FB6F894DEBF0FBECDBFDF91C9
:102DE000CF910895EF92FF920F931F93CF93DF93AC
:102DF000CDB7DEB76A970FB6F894DEBF0FBECDBF72
:102E00008C017B01BA014AE150E0CE0101960E949B
:102E10007A2726EB37E03093D8042093D704AC010F
:102E2000B701C8010E9462116A960FB6F894DEBF1E
:102E30000FBECDBFDF91CF911F910F91FF90EF900B
:102E400008958F929F92AF92BF92CF92DF92EF92AE
:102E5000FF920F931F93CF93DF9384E10E94D908D1
:102E6000982E892E0E94EB085C016091A50270915A
:102E7000A6028091A7029091A80220E030E040E2F3
:102E800051E40E94512C0E94642BEB016091A50239
:102E90007091A6028091A7029091A80220E030E0F4
:102EA00040EA50E40E94802A20E030E04AE754E4FF
:102EB0000E94512C20E030E040EA50E40E94F22AC7
:102EC0000E94642B6B018B0185ED94E00E94B0168B
:102ED00083E898E00E94E00E42E253E06AE070E08E
:102EE00090E080E00E94F2168BEA94E00E94E00EEF
:102EF00088E4AB2809F48CE41F928F938F929F9201
:102F000083E193E09F938F931F9286E18F931F92AB
:102F10001F920E94C5168DB79EB70A960FB6F894F9
:102F20009EBF0FBE8DBF8091B0024AEE52E0882353
:102F300011F04EEE52E066E170E089E690E00E940A
:102F4000F216C60117FF04C0882799278C199D091E
:102F50002AE030E0B9010E94BE2C9F938F93C801F4
:102F6000B9010E94BE2C7F936F93CE01B9010E94DC
:102F7000BE2C9F938F937F936F9383EF92E09F93E9
:102F80008F931F928FE18F931F921F920E94C516FD
:102F90008DB79EB70E960FB6F8949EBF0FBE8DBF2D
:102FA000DF91CF911F910F91FF90EF90DF90CF9025
:102FB000BF90AF909F908F900C9407124F925F92AA
:102FC0006F927F928F929F92AF92BF92CF92DF9239
:102FD000EF92FF920F931F93CF93DF9385E10E94AF
:102FE000D9084C016091A1027091A2028091A302C4
:102FF0009091A40220E030E040E251E40E94512C84
:103000000E94642BEB016091A5027091A602809151
:10301000A7029091A80220E030E040EA50E40E942C
:10302000802A20E030E04AE754E40E94512C20E05E
:1030300030E040EA50E40E94F22A0E94642B2B0107
:103040005B016091A1027091A2028091A302909114
:10305000A40220E030E040E451E40E94802A20E015
:1030600030E04AE754E40E94512C20E030E040E494
:1030700051E40E94F22A0E94642B6B018B0185EDC2
:1030800094E00E94B01683E898E00E94E00E41EEC2
:1030900052E06AE070E090E080E00E94F2168BEA75
:1030A00094E00E94E00EC20157FE04C088279927D1
:1030B000841995092AE030E0B9010E94BE2C9F9343
:1030C0008F93C501B9010E94BE2C7F936F939F928D
:1030D0008F9284EC92E09F938F931F9286E18F935F
:1030E0001F921F920E94C516C60117FF04C08827B1
:1030F00099278C199D092AE030E0B9010E94BE2C65
:103100009F938F93C801B9010E94BE2C7F936F9348
:10311000CE01B9010E94BE2C9F938F937F936F9332
:1031200084EA92E09F938F931F928FE18F931F9277
:103130001F920E94C5168DB79EB74A960FB6F89497
:103140009EBF0FBE8DBFDF91CF911F910F91FF905A
:10315000EF90DF90CF90BF90AF909F908F907F9037
:103160006F905F904F900C940712CF93C82F85ED0E
:1031700094E00E94B01683E898E00E94E00E4DE9CA
:1031800052E06AE070E090E080E00E94F2168BEA84
:1031900094E00E94E00ECC23E9F04DE852E066E1B5
:1031A00070E090E080E00E94F21647E752E06FE1A5
:1031B00070E084E190E00E94F2160E940712CC2396
:1031C00081F00E94D6156CE271E080E090E0CF9132
:1031D0000C941C094CE652E066E170E090E080E05F
:1031E000EACFCF91089585ED94E00E94B01683E870
:1031F00098E00E94E00E40E652E06AE070E090E065
:1032000080E00E94F2168BEA94E00E94E00E4AE50C
:1032100052E06AE070E087E690E00E94F21680914A
:10322000B502823009F453C034F48823B1F0813000
:1032300059F10C940712843009F45FC00CF452C0A9
:103240008530B9F743E851E066E170E090E080E056
:103250000E94F2164BE651E035C04AE452E066E1C6
:1032600070E090E080E00E94F2168091B4024CE39E
:1032700052E0882311F043E452E066E170E080E51B
:1032800090E00E94F216D5CF4BE252E066E170E08A
:1032900090E080E00E94F2168091B3024EE152E08D
:1032A000882311F045E252E066E170E085E590E0A8
:1032B0000E94F2168091B30243E052E0882311F09D
:1032C0004DE152E06FE170E090E080E0DACF46EF50
:1032D00051E066E170E090E080E00E94F2164FED70
:1032E00051E0F0CF41ED51E066E170E090E080E028
:1032F0000E94F2164CEB51E0E5CF46EA51E066E160
:1033000070E090E080E00E94F21641E951E0DACFEF
:10331000EF92FF920F931F93CF93DF938C017B016A
:10332000EA01789485ED94E00E94B01683E898E075
:103330000E94E00E44E651E06AE070E090E080E038
:103340000E94F2168BEA94E00E94E00E86EB97E072
:103350009093D8048093D704A8016AE070E088E3D2
:1033600090E00E946211E091B2020E2E000CFF0B61
:10337000ED56FE4F80811F928F938AE591E09F93D7
:103380008F931F9216E11F931F921F920E94C516E2
:10339000E091B202EE0FFF0BED57FE4F40815181DD
:1033A00066E170E088E290E00E94F2168091AF0240
:1033B00041E050E0BA01082E02C0660F771F0A9460
:1033C000E2F7615071096E217F217F936F93909195
:1033D000AE02891B02C0440F551F8A95E2F7415087
:1033E00051094C235D235F934F938DE491E09F93AC
:1033F0008F931F921F931F928BE48F930E94C51689
:1034000047E351E06FE170E084E190E00E94F21642
:103410000E9407120E94D6158DB79EB742960FB62E
:10342000F8949EBF0FBE8DBF6CE271E080E090E02B
:10343000DF91CF911F910F91FF90EF900C941C0999
:103440004F925F926F927F928F929F92AF92BF92B4
:10345000CF92DF92EF92FF920F931F93CF93DF9360
:103460005C014B01D0E0C0E066246394712C809134
:10347000AF029091AE02282F291B922F930102C018
:10348000220F331F9A95E2F7C217D3070CF049C0F9
:103490009091AD027E0102C0EE0CFF1C9A95E2F7FE
:1034A0002091AB023091AC02E22AF32A230102C040
:1034B000440C551C8A95E2F710E000E00415150550
:1034C00074F5C090A902D090AA02C02AD12AA40102
:1034D000B701C6010E942914B701C6010E94F21368
:1034E00088159905C9F00E941A15AE01B801C501E9
:1034F0000E94881981E0DF91CF911F910F91FF9079
:10350000EF90DF90CF90BF90AF909F908F907F9083
:103510006F905F904F9008950F5F1F4FCFCF219610
:10352000A6CF80E0E8CF4F925F926F927F928F920A
:103530009F92AF92BF92CF92DF92EF92FF920F9342
:103540001F93CF93DF935C014B01D0E0C0E0662472
:103550006394712C8091AF029091AE02282F291BA9
:10356000922F930102C0220F331F9A95E2F7C217E0
:10357000D3070CF049C09091AD027E0102C0EE0C61
:10358000FF1C9A95E2F72091AB023091AC02E22A3F
:10359000F32A230102C0440C551C8A95E2F710E07F
:1035A00000E00415150574F5C090A902D090AA0298
:1035B000C02AD12AA401B701C6010E94A314B701F1
:1035C000C6010E94101488159905C9F00E941A15A9
:1035D000AE01B801C5010E94881981E0DF91CF9149
:1035E0001F910F91FF90EF90DF90CF90BF90AF9021
:1035F0009F908F907F906F905F904F9008950F5F96
:103600001F4FCFCF2196A6CF80E0E8CFCF92DF9299
:10361000EF92FF920F931F93CF93DF936C01EB0117
:10362000142F052FF22EE32E85ED94E00E94B016A4
:1036300083E898E00E94E00E86EB97E09093D80430
:103640008093D704A6016AE070E090E080E00E94D9
:1036500062118BEA94E00E94E00EE091B2020E2E1D
:10366000000CFF0BED56FE4F80811F928F938DE271
:1036700091E09F938F931F9286E18F931F921F92E9
:103680000E94C516E091B202EE0FFF0BED57FE4F00
:103690004081518166E170E088E290E00E94F2167C
:1036A0008DB79EB708960FB6F8949EBF0FBE8DBF1C
:1036B0008091B202853074F08091B4024FE151E004
:1036C000882311F046E251E066E170E08BE490E07F
:1036D0000E94F216EF92FF920F931F93DF93CF9306
:1036E00086E091E09F938F931F928FE18F931F92BB
:1036F0001F920E94C51678940E940712F8948DB705
:103700009EB70C960FB6F8949EBF0FBE8DBFDF918B
:10371000CF911F910F91FF90EF90DF90CF90089580
:10372000CF93C82F85ED94E00E94B01683E898E00F
:103730000E94E00E4AEF50E06AE070E090E080E026
:103740000E94F2168BEA94E00E94E00E44EF50E0F3
:103750006AE070E087E690E00E94F216E091B20223
:10376000EE0FFF0BED57FE4F4081518166E170E097
:1037700090E080E00E94F216E091B202EE0FFF0BA3
:10378000E25FFE4F4081518166E170E083E290E0AC
:103790000E94F216E091B2020E2E000CFF0BED56C5
:1037A000FE4F80811F928F938AEE90E09F938F93BC
:1037B0001F9286E18F931F928DE58F930E94C5160D
:1037C0008DB79EB708960FB6F8949EBF0FBE8DBFFB
:1037D000CC2341F041ED50E06FE170E088E090E0F3
:1037E0000E94F216CF910C9407124FE050E00C9417
:1037F0007A271F920F920FB60F9211242F933F93A7
:103800008F939F93AF93BF938091BD029091BE021F
:10381000A091BF02B091C0023091BC0223E0230FFF
:103820002D3758F50196A11DB11D2093BC02809340
:10383000BD029093BE02A093BF02B093C0028091DC
:10384000C1029091C202A091C302B091C40201963C
:10385000A11DB11D8093C1029093C202A093C30227
:10386000B093C402BF91AF919F918F913F912F91DF
:103870000F900FBE0F901F90189526E8230F029609
:10388000A11DB11DD2CF1F920F920FB60F9211241E
:103890002F933F934F935F936F937F938F939F9358
:1038A000AF93BF93EF93FF938091B900887F8036E9
:1038B00009F44AC0F0F5883209F4A7C018F5803140
:1038C00009F49BC0B8F4882309F4F9C0883009F4DE
:1038D00094C0FF91EF91BF91AF919F918F917F9194
:1038E0006F915F914F913F912F910F900FBE0F906D
:1038F0001F901895883109F488C0803251F7809361
:10390000780214C0803409F49DC040F48033B9F3C8
:103910008833F9F68093780285ECB0C0803509F4DD
:1039200085C0883509F496C0883499F60E946216DD
:10393000D0CF883909F48CC038F5883729F050F495
:10394000883611F0803729F683E08093790210924F
:10395000770257C0883809F47BC0803919F0803865
:1039600009F0B7CF80917702803208F071C0E09102
:10397000770281E08E0F809377028091BB00F0E0A8
:10398000E95AFD4F80833DC0803B39F0E0F4803A36
:1039900009F479C0883A09F09CCF84E080937902D9
:1039A0001092540210925302E0915102F09152028F
:1039B00009958091530281110FC081E080935302D9
:1039C0001092310209C0803C09F4A6CF883C09F46A
:1039D000A3CF883B09F07DCFE091540281E08E0FA8
:1039E00080935402F0E0EF5CFD4F80818093BB0038
:1039F000909154028091530229C080919E0280933D
:103A0000BB0085EC8093BC0064CF90919D028091B7
:103A10009C02981758F5E0919D0281E08E0F8093EB
:103A20009D02F0E0E458FD4F8081E9CFE0919D02D6
:103A300081E08E0F80939D028091BB00F0E0E458FE
:103A4000FD4F808390919D0280919C029817C8F24F
:103A500085E8D8CFE0919D0281E08E0F80939D0292
:103A60008091BB00F0E0E458FD4F808380917B02A1
:103A700081115CCF81E080937A0284EA8093BC005C
:103A80001092790226CF85EC8093BC0010927902C7
:103A900080917702803230F4E0917702F0E0E95AC9
:103AA000FD4F10826091770270E0E0915502F09135
:103AB000560287E592E00995109277020ACF10929C
:103AC000780234CFCF931092C8021092C70288EECA
:103AD00093E0A0E0B0E08093C9029093CA02A09363
:103AE000CB02B093CC028FE991E09093C602809311
:103AF000C5021092D4041092D30486EB97E0909301
:103B0000620580936105109264051092630510921E
:103B10006605109265051092ED0481EB91E090939B
:103B2000D2048093D1041092D6041092D50410923E
:103B3000EA041092E1041092E2041092E30410925D
:103B4000E4048FEF8093EB048093EF04E3EFF4E061
:103B500089E095E0CFEFC1938E179F07E1F784ECE2
:103B60009AE09093DA048093D90483EB9BE09093DE
:103B7000DC048093DB048FE092E19093DE04809379
:103B8000DD0480E593E19093E0048093DF0430E06E
:103B900020E040E069E085ED94E00E94C40A1092C4
:103BA000300510922F0580EC97E090930A058093E2
:103BB000090581ED92E090930E0580930D0584E058
:103BC00080930F051092100510923E0510925E052D
:103BD00010925A0581E080935F058093600589EB20
:103BE00091E090930C0580930B0585ED94E00E9485
:103BF0002D0C109228051092270510922C0510927A
:103C00002B058FEF9FEF90932A05809329059093C2
:103C10002E0580932D05E0910B05F0910C05028097
:103C2000F381E02D85ED94E009958FE298E0909383
:103C300032058093310510924105C093FE04C09374
:103C4000FF04C0930005CF910895CF93DF93CDB7C4
:103C5000DEB76A970FB6F894DEBF0FBECDBF78947B
:103C600084B5826084BD84B5816084BD85B5826081
:103C700085BD85B5816085BD80916E008160809332
:103C80006E0010928100809181008260809381009B
:103C900080918100816080938100809180008160AB
:103CA000809380008091B10084608093B100809106
:103CB000B00081608093B00080917A00846080932E
:103CC0007A0080917A00826080937A0080917A00F5
:103CD000816080937A0080917A00806880937A0076
:103CE0001092C100E091D904F091DA0430E020E0B4
:103CF00040E06AE085ED94E00995809160058823B5
:103D000021F085ED94E00E94B01680E00E94320818
:103D100085ED94E00E94AB111091100580910F0584
:103D2000180FE091D504F091D6048189181708F492
:103D300086C085ED94E00E94440A80E00E9432082B
:103D4000E091D904F091DA0430E020E040E06BE04B
:103D500085ED94E0099585ED94E00E94B0160E94EF
:103D60001A151092B1021092B0021092A502109290
:103D7000A6021092A7021092A8021092A10210921D
:103D8000A2021092A3021092A40290E080E00E948E
:103D9000AE16883008F081E08093B20281E090E0B6
:103DA0000E94AE1691E0811101C090E09093B402A0
:103DB00082E090E00E94AE1691E0811101C090E097
:103DC0009093B30280E092E00E94332A80939F0296
:103DD00081E092E00E94332A8093A00280919F02AA
:103DE0009091A0029C013C502736324010F083E3B2
:103DF0009DE09093A00280939F020E94EB08809325
:103E0000BA02811126C01092B5020E94F3181092D6
:103E1000BB0244244394512CE091BB02E830A8F546
:103E20000E2E000CFF0BE95EF04E0C94F42C341FA8
:103E30004D1FF41FFC1F022010206120ED208091F7
:103E40006005882321F085ED94E00E94B016812F53
:103E50005DCF0E942D1580E00E94901B1092BA0247
:103E600084E08093BB02D5CF0E94EB08182F80918D
:103E7000BA0281110AC0113041F40E942D1510932D
:103E8000BA020E94F3181093BB0280E090E0892BE5
:103E900009F4C2CF0E940000BFCF0E94EB08182F88
:103EA0008091BA028130B9F4111115C01092BA0292
:103EB0002FB7F8948091BD029091BE02A091BF02ED
:103EC000B091C0022FBF8093B6029093B702A09327
:103ED000B802B093B9028FB7F894C090BD02D090E9
:103EE000BE02E090BF02F090C0028FBF8091B60288
:103EF0009091B702A091B802B091B902C81AD90A3C
:103F0000EA0AFB0A8091BA028111BFCF113009F091
:103F1000C0C70E942D151093BA028CEDC81685E01B
:103F2000D806E104F10408F0B0CF8091B5028F5FAC
:103F300086300CF080E08093B5020E94F318A5CF84
:103F4000843009F45BC00CF451C0853009F09DCF7A
:103F500081E090E00E94AE166091B402882381F166
:103F6000611130C081E090E00E943B2A2BC080911B
:103F7000B40221E082278093B4020E94F3181092C9
:103F8000BB0283CF80E00E94B51810E000E06FEF25
:103F9000C8010E949A160F5F1F4F011532E01307E8
:103FA000B1F741E04093B4024093B30281E00E9434
:103FB000B51884E08093BB0280E00E94901B65CF1F
:103FC0006111D0CF82E090E00E94AE166091B30202
:103FD000882339F06111EDCF82E090E00E943B2A06
:103FE000E8CF6111F9CFE5CF0E942D150E94DE17B1
:103FF00082E08093BB0249CF0E942D150E942117B9
:1040000083E0F7CF0E94EB08813009F03ECF809328
:10401000BA020E942D1580E00E94901B85E0E9CF36
:104020000E94EB08182F8091BA028130B9F4111167
:1040300015C01092BA022FB7F8948091BD029091EA
:10404000BE02A091BF02B091C0022FBF8093B60202
:104050009093B702A093B802B093B9028FB7F894C7
:10406000C090BD02D090BE02E090BF02F090C002AE
:104070008FBF8091B6029091B702A091B802B09123
:10408000B902C81AD90AEA0AFB0A8091BA02811158
:10409000FCCE113009F01DC70E942D151093BA02F5
:1040A0008CEDC81685E0D806E104F10408F0EDCEE9
:1040B0008091B2028F5F88300CF080E08093B20272
:1040C0007BCF0E94EB08813009F0DFCE8093BA02EB
:1040D0000E942D158091B102811145C08091B202DC
:1040E000811141C085ED94E00E94B01683E898E00C
:1040F0000E94E00E45E653E06AE070E090E080E068
:104100000E94F2168BEA94E00E94E00EE091B20267
:10411000EE0FFF0BED57FE4F408151816AE070E0DA
:104120008CE590E00E94F21640E553E066E170E015
:1041300090E080E00E94F2164AE353E06FE170E005
:1041400084E190E00E94F2160E9407120E94D615A8
:104150006CE271E080E090E00E941C0980E00E9427
:10416000901B84E046CF8091B002811131C08091D4
:10417000B302882369F185ED94E00E94B01683E8CC
:1041800098E00E94E00E4BE953E06AE070E090E0B6
:1041900080E00E94F2168BEA94E00E94E00EE0912B
:1041A000B202EE0FFF0BED57FE4F408151816AE0E6
:1041B00070E083E590E00E94F21646E853E066E185
:1041C00070E090E080E00E94F21640E753E0B6CF46
:1041D00080E00E94901B87E00CCF6091B20290E0DB
:1041E00080E00E949A168AB18C6F8AB98BB18C617B
:1041F0008BB984B18F6384B988B1807F88B987B166
:10420000807F87B988E08093AF021092AE0210924F
:10421000AD021092AC021092AB021092AA02109260
:10422000A9028091B20285300CF0ADC0409887B1F0
:104230008C7F826087B98091B202823009F486C097
:104240000CF079C0882309F47DC0813009F490C056
:1042500087EE93E00197F1F700C0000090E080E066
:104260000E94DD1388E090E05A985A9A0197E1F78E
:104270006EE474E0CE0101960E94F51B8091B202BB
:1042800021E030E041E050E085300CF08DC061E08D
:1042900070E0CE0101960E94061B61E070E0CE0145
:1042A00001960E94931A888F988D9111E6C061E45F
:1042B00074E0CE0101960E94F51B8091B20222E0CB
:1042C00030E041E050E085300CF03BC261E070E04E
:1042D000CE0101960E94061B81E090E00E94C2146C
:1042E000D12CC12CE090AF020E2C000CFF08EC1476
:1042F000FD040CF066C062010E2C02C0CC0CDD1C6B
:104300000A94E2F703E010E00C151D050CF041C51E
:1043100082E090E08E159F050CF009C59201082EF1
:1043200002C0220F331F0A94E2F70217130709F4A1
:1043300005C20196EFCF833089F0843009F088CF31
:1043400089E001C087E08093AF0282CF21E0209313
:10435000AE021092AC021092AB027ACF31E03093F1
:10436000AE0280E890E09093AC028093AB0270CFF5
:1043700020E031E03093AC022093AB023093AA02EC
:104380002093A90265CF87B1807F87B98091B2025F
:10439000853019F08730A1F25BCF82E08093AE02C6
:1043A00031E03093AD0254CF6FE070E0CE01019662
:1043B0000E94061B6FE070E0CE0101960E94201A59
:1043C00072CF8090A9029090AA02C2010C2C02C068
:1043D000880F991F0A94E2F79595879550E040E081
:1043E00070E060E0882999290E94A31410E000E0A1
:1043F0005201002E02C0AA0CBB1C0A94E2F7B5942D
:10440000A79470E060E0C4018A299B290E941014DF
:10441000892B61F00E941A1550E040E0B501CE01F1
:1044200001960E94881921E0288F27C00F5F1F4F37
:10443000C016D106ECF6E016F1060CF47BC1520171
:10444000002E02C0AA0CBB1C0A94E2F7B594A794F4
:1044500070E060E0C4018A299B290E941014019732
:1044600009F465C10E941A1550E040E0B501CE0183
:1044700001960E94881931E0388F8091B202853010
:104480000CF01DC310E000E038014FEF641A740A0D
:10449000888D811157C06BE274E0CE0101960E94B5
:1044A000F51B22E030E0A301B801CE0101960E9485
:1044B000061BF12CE12C8091AF029091AE02282FC7
:1044C000291B922F920102C0220F331F9A95E2F707
:1044D000E216F306BCF59091AD02970102C0220FDF
:1044E000331F9A95E2F78090AB029090AC02822A3B
:1044F000932A120102C0220C331C8A95E2F7D12CB8
:10450000C12CC214D3040CF0D6C2A090A902B09062
:10451000AA02AC28BD28A801B401C5010E94A314B9
:10452000B401C5010E9410140817190709F4BDC28F
:104530000E941A15A701B601CE0101960E948819A2
:1045400031E0388F01E010E022E06216710409F0DA
:104550009BCF8091B20285300CF047C310E000E0A1
:1045600048014FEF841A940A888D811162C064E17A
:1045700074E0CE0101960E94F51B22E030E0A40118
:10458000B801CE0101960E94061BC8010E94C21408
:1045900065E074E0CE0101960E94F51B22E030E058
:1045A000A401B801CE0101960E94061BF12CE12C5A
:1045B0008091AF029091AE02282F291B922F920179
:1045C00002C0220F331F9A95E2F7E216F3068CF52C
:1045D0009091AD02970102C0220F331F9A95E2F726
:1045E0006090AB027090AC02622A732A520102C042
:1045F000AA0CBB1C8A95E2F7D12CC12CCA14DB048F
:104600000CF0EFC28091A9029091AA02B3018C290B
:104610009D290E9410148017910709F4DEC20E94A0
:104620001A15A701B601CE0101960E94881931E042
:10463000388F01E010E092E08916910409F090CFE4
:10464000988D91111CC06AED73E0CE0101960E9415
:10465000F51B8091B20221E030E041E050E070E0D3
:1046600060E085300CF058C3CE0101960E94061B15
:1046700070E060E0CE0101960E94931A888F7894D2
:104680000E941A15288D211169CD789485ED94E04A
:104690000E94B01683E898E00E94E00E43ED53E0DC
:1046A0006AE070E090E080E00E94F2168BEA94E00D
:1046B0000E94E00EE091B2020E2E000CFF0BED56B0
:1046C000FE4F80811F928F9389EC93E09F938F938D
:1046D0001F9286E18F931F921F920E94C516E09150
:1046E000B202EE0FFF0BED57FE4F4081518166E1A4
:1046F00070E088E290E00E94F2160FB6F894DEBFF8
:104700000FBECDBF8091B202853074F08091B402AB
:1047100042EC53E0811102C04BEB53E066E170E0E4
:104720008BE490E00E94F21645EA53E007CD0F5F5C
:104730001F4F81CE4FEFC41AD40AD4CD0F5F1F4F45
:10474000E3CD6FE070E0CE0101960E94061B8FE082
:1047500090E00E944B14D12CC12CE090AF020E2CA3
:10476000000CFF08EC14FD0404F562010E2C02C0DD
:10477000CC0CDD1C0A94E2F703E010E00C151D05DB
:104780000CF007C382E090E08E159F050CF0E8C2A4
:104790009201082E02C0220F331F0A94E2F702177B
:1047A000130709F459C00196EFCF8090A9029090A9
:1047B000AA02C2010C2C02C0880F991F0A94E2F7CA
:1047C0009595879550E040E070E060E08829992950
:1047D0000E94291410E000E05201002E02C0AA0C31
:1047E000BB1C0A94E2F7B594A79470E060E0C401A2
:1047F0008A299B290E94F213892B61F00E941A15C5
:1048000050E040E0B501CE0101960E94881991E088
:10481000988F33CE0F5F1F4FC016D106ECF6E0160F
:10482000F106B4F05201002E02C0AA0CBB1C0A947F
:10483000E2F7B594A79470E060E0C4018A299B294F
:104840000E94F2130F9709F0E5CD0F5F1F4FE7CFDE
:104850003FEFC31AD30A81CF0F5F1F4F8FCF22E0E4
:1048600030E042E050E061E070E0CE0101960E944D
:10487000061B81E090E00E94C214D12CC12C009153
:10488000AF02002E000C110B8091AE02081B110923
:1048900087FD13950C151D050CF56201002E02C055
:1048A000CC0CDD1C0A94E2F7F3E0EF2EF12CEC14B3
:1048B000FD040CF0E2CD82E090E0801791070CF04F
:1048C000B2C29201082E02C0220F331F0A94E2F7EF
:1048D000E216F30609F472C00196EFCF8091AD02A3
:1048E000282E082E000C3308A090AB02B090AC022A
:1048F0008090A9029090AA02B2010C2C02C0660F0F
:10490000771F0A94E2F77595679502C0660F771FC7
:104910008A95E2F76A297B2950E040E0C4010E94B1
:10492000A314F12CE12C32010E2C02C0660C771C72
:104930000A94E2F775946794B301022C02C0660FE3
:10494000771F0A94E2F76A297B29C4010E94101498
:10495000892B31F00E941A15A30170E060E0F9C1C3
:104960009FEFE91AF90ACE14DF04ECF60E151F05C5
:104970000CF132010E2C02C0660C771C0A94E2F78F
:1049800075946794B301022C02C0660F771F0A94D6
:10499000E2F76A297B29C4010E941014019731F0C3
:1049A0000E941A15A30170E060E039CD3FEFE31AD1
:1049B000F30ADCCF4FEFC41AD40A61CF9FEFE91A94
:1049C000F90A75CF8090AB029090AC028091AD0255
:1049D000282E082E000C3308B2010C2C02C0660FE2
:1049E000771F0A94E2F7759567956829792902C0BF
:1049F000660F771F8A95E2F750E040E090E080E094
:104A00000E942914F12CE12C52010E2C02C0AA0C98
:104A1000BB1C0A94E2F7B594A7946090A902709029
:104A2000AA02B501022C02C0660F771F0A94E2F7B2
:104A300068297929C3010E94F213892B21F00E9471
:104A40001A15A501B0CF3FEFE31AF30ACE14DF0425
:104A5000DCF6E016F1060CF552010E2C02C0AA0C91
:104A6000BB1C0A94E2F7B594A794B501022C02C0CE
:104A7000660F771F0A94E2F768297929C3010E941B
:104A8000F2130F9731F00E941A15A50170E060E053
:104A900079C18FEFE81AF80ADCCF9FEFC91AD90A5B
:104AA00093C13FEFE31AF30AA8C141E004278FEF57
:104AB000C81AD80A26CD9FEFE91AF90AFCCC88E07B
:104AC000E0E0F1E0DE01509601900D928A95E1F769
:104AD0008091B402882309F475C082E0B12CA12C26
:104AE000282E312CA214B3040CF033CD3FEFA31ABF
:104AF000B30A488D4111F6CFF501319780E190E07E
:104B00008C0F9D1FE80FF91F108162E274E0CE0147
:104B100001960E94F51B612F70E09101A501CE0165
:104B200001960E94061B1F70812E912C10E000E060
:104B30008091AF029091AE02282F291B922F9201F3
:104B400002C0220F331F9A95E2F70217130754F69B
:104B50009091AD02980102C0220F331F9A95E2F79F
:104B60006090AB027090AC02622A732A920102C07C
:104B7000220F331F8A95E2F73A8F298FF12CE12C0F
:104B8000898D9A8DE816F9062CF5C090A902D0906F
:104B9000AA02CE28DF28A401B301C6010E9429146D
:104BA000B301C6010E94F2138816990669F00E94AB
:104BB0001A15A801B701CE0101960E94881991E04B
:104BC000988F90CF88E08ACF2FE082263FEFE31ABC
:104BD000F30AD6CF0F5F1F4FABCF4FEFC41AD40AE3
:104BE0000DCD8FEFE81AF80AE3CC86E0E8E0F1E0BB
:104BF000DE01509601900D928A95E1F78091B40202
:104C0000882309F47FC082E010E000E0682E712C58
:104C1000061517050CF014CD0F5F1F4F288D2111BD
:104C2000F7CFF801319780E190E08C0F9D1FE80FDE
:104C3000F91FE080F12C9301A801B701CE01019684
:104C40000E94061B67EF73E0CE0101960E94F51BE0
:104C50009301A801B701CE0101960E94061BC7016E
:104C60000E944B1468EE73E0CE0101960E94F51B82
:104C70009301A801B701CE0101960E94061BD12C19
:104C8000C12C8091AF029091AE02282F291B922F48
:104C9000920102C0220F331F9A95E2F7C216D30683
:104CA0000CF0B6CF9091AD02960102C0220F331FD7
:104CB0009A95E2F72090AB023090AC02222A332A78
:104CC000420102C0880C991C8A95E2F7B12CA12CF4
:104CD000A814B904ECF48091A9029091AA02B10140
:104CE0008A299B290E94F213E816F90669F00E94AE
:104CF0001A15A601B501CE0101960E94881931E06E
:104D0000388F86CF86E080CF4FEFA41AB40AE0CF69
:104D10008FEFC81AD80AB5CFCE0101960E94061BA4
:104D200070E060E0CE0101960E94201AA7CC80912D
:104D3000A9029091AA0270E060E0802B912B0E9462
:104D40001014019709F4FACC0E941A1550E040E0C3
:104D5000B801CE0101960E94881981E0888F8DCB21
:104D60008091A9029091AA0270E060E0802B912BC3
:104D70000E94F2130F9709F46FCD0E941A1550E0AC
:104D800040E0B801CE0101960E94881941E0488FA9
:104D900074CB64E374E0CE0101960E94F51B809110
:104DA000B20285300CF45BCD22E030E042E050E00E
:104DB0006FE070E0CE0101960E94061B8FE090E04C
:104DC0000E944B14D12CC12C0091AF02002E000C7C
:104DD000110B8091AE02081B110987FD1395C016B7
:104DE000D1060CF4EFCD6201002E02C0CC0CDD1C0C
:104DF0000A94E2F733E0E32EF12CEC14FD040CF0FE
:104E00003CCB82E090E08017910744F59201082E98
:104E100002C0220F331F0A94E2F7E216F30609F4E8
:104E200040CE0196F0CF8091AD02B70102C0660F6F
:104E3000771F8A95E2F78091AB029091AC02682BC4
:104E4000792B8091A9029091AA020E9410140197D7
:104E500009F4B4CD0E941A15A7017FCD8091AD024F
:104E6000B70102C0660F771F8A95E2F78091AB0207
:104E70009091AC02682B792B8091A9029091AA02A3
:104E80000E94F2130F9709F40CCE0E941A15A70185
:104E90008ACD11110C94451F9DEDC91695E0D906D8
:104EA000E104F10410F40C94451F8091B5028230A6
:104EB00009F468C80CF044C8882309F458C8813044
:104EC00011F00C94451F9091B30289278093B3028F
:104ED00054C811110C94451F9DEDC91695E0D906D3
:104EE000E104F10410F40C94451F81E00E94901B32
:104EF00086E07FC8FB01DC014150504048F005903E
:104F00000D920020C9F701C01D9241505040E0F7BA
:104F10000895AEE0B0E0EFE8F7E20C94572A8C0178
:104F2000FA018EE08C831A83098377FF02C060E068
:104F300070E8615071097E836D83A901BF01CE01C4
:104F400001960E94B5274D815E8157FD0AC02F81D1
:104F50003885421753070CF49A01020F131FF8010A
:104F600010822E96E4E00C94732AABE0B0E0EBEBF9
:104F7000F7E20C94492A7C013B018A01FC0117826B
:104F80001682838181FFC8C1CE0101965C01F701C1
:104F90009381F30193FD859193FF81913F018823D4
:104FA00009F453C1853239F493FD859193FF8191C2
:104FB0003F01853229F4B70190E00E94A529E7CF8F
:104FC000912C212C312CFFE1F31538F08B3211F1AB
:104FD00090F4803209F1833229F137FC3CC020ED96
:104FE000280F2A3050F536FE20C08AE0989E200D0A
:104FF0001124922E06C08D3291F0803371F768949F
:1050000030F8F30193FD859193FF81913F01811168
:10501000DACF21C0689431F8689432F8F2CF6894FE
:1050200033F8EFCF689434F8ECCFEAE02E9E200DF1
:105030001124222E689435F8E4CF8E3229F436FC00
:1050400004C1689436F8DDCF8C3619F4689437F8CB
:10505000D8CF8836B1F2982F9F7D95549330E0F0E9
:105060008336A1F18337C1F1833509F063C028018C
:10507000F2E04F0E511CF801C080D180692D70E024
:1050800036FC02C06FEF7FEFC6010E948F294C01F2
:10509000689437F882010AC00C5F1F4FFFE3F98361
:1050A00088248394912C6501E89437F833FE2DC051
:1050B000522C8114910471F5552009F468CFB70181
:1050C00080E290E00E94A5295A94F6CFF8018081F1
:1050D00089830E5F1F4FE4CF2801F2E04F0E511C71
:1050E000F801C080D180692D70E036FC02C06FEFFE
:1050F0007FEFC6010E949A294C018201D5CFB701EA
:1051000080E290E00E94A5292A942814190409F04D
:10511000B0F7CECFF60137FC859137FE81916F0154
:10512000B70190E00E94A52951105A94F1E08F1A1E
:105130009108BFCF843619F0893609F077C0F8019D
:1051400037FE6BC060817181828193810C5F1F4F3C
:10515000F32DFF763F2E97FF09C0909580957095AF
:1051600061957F4F8F4F9F4F689437F82AE030E06A
:10517000A5010E94D529C82ECA188C2C432C36FEB6
:105180000CC0E89440F8C91440F434FE05C032FC69
:1051900003C0F32DFE7E4F2E892C44FE95C0FE01E8
:1051A000EC0DF11D8081803309F087C0242D297E0C
:1051B000422E842D8870582E43FC95C040FE8FC02F
:1051C0009C2C821418F42C0C922C981844FE91C03C
:1051D000B70180E390E00E94A52942FE09C088E75C
:1051E00090E041FE02C088E590E0B7010E94A52949
:1051F000C91408F48AC0CA94D12C9FEFC91AD90ADD
:10520000CA0CDB1CF60182916F01B70190E00E948D
:10521000A529AC14BD04B1F74FCF60817181072E71
:10522000000C880B990B0E5F1F4F92CFD32CE89484
:10523000D4F82AE030E0853739F1232D297FD22EAA
:105240008F3601F148F48835A9F0F70186819781FE
:105250002B96E2E10C94652A803749F08837A9F74C
:10526000D4FE02C06894D2F820E130E00DC068940A
:10527000D4F8F6CF34FE03C0822F8660D82E20E10A
:1052800032E002C028E030E0F801D7FE0FC06081B4
:105290007181828193810C5F1F4FA5010E94D529E6
:1052A000C82ECA183D2CE89437F867CF6081718109
:1052B00090E080E00E5F1F4FF0CF42FC02C083946D
:1052C00078CF8394839475CF842D867809F471CF39
:1052D000F6CFB70180E290E00E94A5298394821462
:1052E000C0F3512C73CF522C5818821408F46ECF8F
:1052F000F8CF842D867809F47BCF8BE241FE80E2E3
:1053000047FC8DE2B70190E071CFB70180E390E0F8
:105310000E94A5299A946CCF8FEF9FEF99CFFC0143
:105320000590615070400110D8F7809590958E0FD0
:105330009F1F0895FC016150704001900110D8F743
:10534000809590958E0F9F1F08950F931F93CF9375
:10535000DF93182F092FEB018B8181FD09C01FEF0F
:105360000FEF812F902FDF91CF911F910F91089513
:1053700082FF14C02E813F818C819D8128173907BF
:105380003CF4E881F981CF010196998388831083E9
:105390008E819F8101969F838E83E3CFE885F98577
:1053A000812F0995892BA1F3DACFFA01AA2728309A
:1053B00051F1203181F1E8946F936E7F6E5F7F4FE2
:1053C0008F4F9F4FAF4FB1E03ED0B4E03CD0670F5E
:1053D000781F891F9A1FA11D680F791F8A1F911DB1
:1053E000A11D6A0F711D811D911DA11D20D009F401
:1053F00068943F912AE0269F11243019305D319343
:10540000DEF6CF010895462F4770405D4193B3E02B
:105410000FD0C9F7F6CF462F4F70405D4A3318F0D2
:10542000495D31FD4052419302D0A9F7EACFB4E083
:10543000A6959795879577956795BA95C9F700973B
:105440006105710508959B01AC010A2E06945795DC
:10545000479537952795BA95C9F7620F731F841F33
:10546000951FA01D0895F999FECF92BD81BDF89AB0
:10547000992780B50895262FF999FECF1FBA92BDBE
:1054800081BD20BD0FB6F894FA9AF99A0FBE019625
:1054900008952F923F924F925F926F927F928F92D8
:1054A0009F92AF92BF92CF92DF92EF92FF920F93B3
:1054B0001F93CF93DF93CDB7DEB7CA1BDB0B0FB6BD
:1054C000F894DEBF0FBECDBF09942A88398848887A
:1054D0005F846E847D848C849B84AA84B984C88410
:1054E000DF80EE80FD800C811B81AA81B981CE0F07
:1054F000D11D0FB6F894DEBF0FBECDBFED010895EC
:105500005058BB27AA270E94982A0C94122C0E945C
:10551000042C38F00E940B2C20F039F49F3F19F432
:1055200026F40C94012C0EF4E095E7FB0C94FB2B75
:10553000E92F0E94232C58F3BA17620773078407D8
:10554000950720F079F4A6F50C94452C0EF4E0951F
:105550000B2EBA2FA02D0B01B90190010C01CA012D
:10556000A0011124FF27591B99F0593F50F4503ED8
:1055700068F11A16F040A22F232F342F4427585FCA
:10558000F3CF469537952795A795F0405395C9F7E2
:105590007EF41F16BA0B620B730B840BBAF091509A
:1055A000A1F0FF0FBB1F661F771F881FC2F70EC039
:1055B000BA0F621F731F841F48F48795779567950C
:1055C000B795F7959E3F08F0B0CF9395880F08F0F8
:1055D0009927EE0F9795879508950E94D72B08F489
:1055E00081E008950E94062B0C94122C0E940B2C33
:1055F00058F00E94042C40F029F45F3F29F00C94ED
:10560000FB2B51110C94462C0C94012C0E94232C42
:1056100068F39923B1F3552391F3951B550BBB27E1
:10562000AA2762177307840738F09F5F5F4F220F26
:10563000331F441FAA1FA9F335D00E2E3AF0E0E81D
:1056400032D091505040E695001CCAF72BD0FE2F67
:1056500029D0660F771F881FBB1F261737074807FB
:10566000AB07B0E809F0BB0B802DBF01FF279358B3
:105670005F4F3AF09E3F510578F00C94FB2B0C9451
:10568000462C5F3FE4F3983ED4F386957795679573
:10569000B795F7959F5FC9F7880F911D96958795E8
:1056A00097F90895E1E0660F771F881FBB1F621707
:1056B00073078407BA0720F0621B730B840BBA0BC5
:1056C000EE1F88F7E09508950E946B2B6894B11146
:1056D0000C94462C08950E942B2C88F09F5798F02C
:1056E000B92F9927B751B0F0E1F0660F771F881FE7
:1056F000991F1AF0BA95C9F714C0B13091F00E9401
:10570000452CB1E008950C94452C672F782F8827FD
:10571000B85F39F0B93FCCF3869577956795B39527
:10572000D9F73EF490958095709561957F4F8F4F96
:105730009F4F0895E89409C097FB3EF4909580959B
:10574000709561957F4F8F4F9F4F9923A9F0F92F47
:1057500096E9BB279395F695879577956795B795C5
:10576000F111F8CFFAF4BB0F11F460FF1BC06F5FAB
:105770007F4F8F4F9F4F16C0882311F096E911C0BD
:10578000772321F09EE8872F762F05C0662371F0DE
:1057900096E8862F70E060E02AF09A95660F771FF2
:1057A000881FDAF7880F9695879597F90895990FCE
:1057B0000008550FAA0BE0E8FEEF16161706E807DB
:1057C000F907C0F012161306E407F50798F0621BFC
:1057D000730B840B950B39F40A2661F0232B242BD1
:1057E000252B21F408950A2609F4A140A6958FEFF0
:1057F000811D811D089597F99F6780E870E060E042
:1058000008959FEF80EC089500240A941616170659
:1058100018060906089500240A94121613061406A1
:1058200005060895092E0394000C11F4882352F004
:10583000BB0F40F4BF2B11F460FF04C06F5F7F4FBC
:105840008F4F9F4F089557FD9058440F551F59F0A3
:105850005F3F71F04795880F97FB991F61F09F3F5D
:1058600079F087950895121613061406551FF2CF86
:105870004695F1DF08C0161617061806991FF1CFD6
:1058800086957105610508940895E894BB276627FD
:105890007727CB0197F908950E94D72B08F48FEF53
:1058A00008950E94642C0C94122C0E94042C38F051
:1058B0000E940B2C20F0952311F00C94FB2B0C94E0
:1058C000012C11240C94462C0E94232C70F3959FDC
:1058D000C1F3950F50E0551F629FF001729FBB27E7
:1058E000F00DB11D639FAA27F00DB11DAA1F649F83
:1058F0006627B00DA11D661F829F2227B00DA11D36
:10590000621F739FB00DA11D621F839FA00D611DBB
:10591000221F749F3327A00D611D231F849F600DDC
:10592000211D822F762F6A2F11249F5750409AF005
:10593000F1F088234AF0EE0FFF1FBB1F661F771F91
:10594000881F91505040A9F79E3F510580F00C945C
:10595000FB2B0C94462C5F3FE4F3983ED4F38695E2
:1059600077956795B795F795E7959F5FC1F7FE2BFC
:10597000880F911D9695879597F9089597FB072EA7
:1059800016F4009407D077FD09D00E94052D07FC7E
:1059900005D03EF4909581959F4F0895709561953F
:1059A0007F4F0895A1E21A2EAA1BBB1BFD010DC05B
:1059B000AA1FBB1FEE1FFF1FA217B307E407F507BF
:1059C00020F0A21BB30BE40BF50B661F771F881F9B
:1059D000991F1A9469F760957095809590959B0131
:1059E000AC01BD01CF010895EE0FFF1F0590F491AA
:1059F000E02D09940E94192DA59F900DB49F900D44
:105A0000A49F800D911D11240895AA1BBB1B51E179
:105A100007C0AA1FBB1FA617B70710F0A61BB70B1E
:105A2000881F991F5A95A9F780959095BC01CD01C3
:105A30000895A29FB001B39FC001A39F700D811D67
:105A40001124911DB29F700D811D1124911D089587
:105A5000DC0101C06D9341505040E0F70895F89487
:025A6000FFCF76
:105A6200000F050A0C030906050A0C0309069D002E
:105A720097008D0082007B0075006F00680018158A
:105A8200A015C019FF1815A115C819FF1815AE19D0
:105A9200FF1815AF19FF1815AE15D5168015A816E3
:105AA2001F15D316001540158D1614152016001556
:105AB200A115C815DA16021581168F15D916F1151A
:105AC200DB1640152E15A415A619FF0001140A6451
:105AD20064323200127A000004289610040000801A
