:020000040000FA
:100000000C9493070C94BB070C94BB070C94BB0790
:100010000C94BB070C94BB070C94BB070C94BB0758
:100020000C94BB070C94BB070C94BB070C94BB0748
:100030000C94BB070C94BB070C94BB070C94BB0738
:100040000C94AE1B0C94BB070C94BB070C94BB0721
:100050000C94BB070C94BB070C94BB070C94BB0718
:100060000C94F81B0C94BB073235364B78340036B1
:10007000344B78340031364B7834003235364B7897
:10008000310033324B78312D486967680033324B89
:1000900078312D4C6F770036344B78310031364B48
:1000A0007831003434323536003434363400343468
:1000B000313600343132353600343533322D3400A8
:1000C000343533322D330034313634003431313667
:1000D0000052656C6561736520427574746F6E20A3
:1000E000746F2053746172742E00536F636B657468
:1000F0002531640078312F7834004452414D2D541D
:1001000065737465720056616C75653D25315820C4
:1001100050726F67726573733D25642F25640053B9
:1001200074726963740053706565647900536F631A
:100130006B65742531640050726573732042757469
:10014000746F6E20746F20457869742E006F6E2076
:1001500025303358202530335800536F636B657456
:10016000253164004641494C4544002A4E6F7420B5
:10017000736176656420756E6C657373206578694C
:10018000742E005361766520616E64204578697431
:10019000002A4F6E6C79206578697420627920722C
:1001A000657365742E005669657720427574746FA7
:1001B0006E20262050777220536F75726365002A77
:1001C0004F6E6C792065786974206279207265734E
:1001D00065742E005669657720506F7765723132ED
:1001E0005620566F6C74616765002A536574746994
:1001F0006E672077696C6C20626520657869742E63
:1002000000457261736520454550524F4D002A5498
:1002100065737473206D617920626520696E616316
:100220006375726174652E000049676E6F726500B8
:10023000436865636B00355620506F776572536F66
:10024000757263653A005374726963740053706524
:100250006564790034626974204452414D204368DA
:1002600065636B3A00302E302E30004452414D2DE4
:100270005465737465720045726173696E672E2EE2
:100280002E00507265737320427574746F6E207403
:100290006F20457869742E00457261736520636F25
:1002A0006D706C6574652E00454550524F4D00567B
:1002B0006F6C746167653A2532642E253164562F60
:1002C0002532642E253164560056616C75654137C0
:1002D0003A253464204572723A252B32642E25313A
:1002E00064252500506F77657220313256204368AF
:1002F0006B2E0055534220506F72740041432D41C4
:1003000064617074657200506F776572536F7572B7
:1003100063653A0056616C756541363A2534642050
:100320002563204572723A252B32642E25316425CF
:100330002500427574746F6E2043686B2E000000B8
:100340000000230026002900507265737320427557
:1003500074746F6E20746F20457869742E00416448
:100360006A7573746D656E742072657175697265F6
:10037000642E004661696C6564203132560050720B
:1003800065737320427574746F6E20746F204578A6
:1003900069742E0041432D4164617074657220724E
:1003A000657175697265642E004661696C656420CB
:1003B000355600507265737320427574746F6E20E9
:1003C000746F20457869742E0053747269637400E9
:1003D00053706565647900536F636B657425316490
:1003E000005041535345440046696E697368696E15
:1003F00067546573740046756C6C54657374566508
:10040000726966790046756C6C54657374577269CD
:1004100074650046756C6C546573745665726966D4
:10042000790046756C6C5465737457726974650015
:10043000576F72645465737400576F7264546573B8
:100440007400416472735465737420436F6C00418F
:100450006472735465737420526F770053746172C1
:1004600074696E67546573740000000000240027EF
:10047000002A0000000000250028002B00040404CE
:10048000040404040402020202020203030303033D
:10049000030102040810204080010204081020011A
:1004A00002040810200000000800020100000304FC
:1004B0000700000000000000005F020302030401C7
:1004C0000104050800FF06FF06000140028E03BB81
:1004D0002006C5FABC022108C5FA613B9403220A32
:1004E000C5DA49944449CE00230DC53AA524199490
:1004F000CAA0949218240BC55AD952DB9264CB013E
:10050000250AC5DA619255C21C04260DC53A591256
:100510002559254AB224062707C5FA619D052808F2
:10052000C5FA59D89A032909C5DA69D89623002A49
:100530000BC5FA581449432495012B0AC5FA6818CB
:100540000D5298032C07C5FACC5A0D2D08C5FAE4B4
:100550002127012E08C5FACCD916012F0AC5FA4861
:100560009835E61000300CC5FA591225511225595C
:100570000E3108C5FA99D83603320AC5DA523192DB
:10058000C22106330BC5BA4396A94914E900340BBE
:10059000C5FA9994444316E600350BC5BA4312AE2A
:1005A0004914E900360AC5DA523855A24807370B14
:1005B000C5BA43988559982300380AC5DA5249AA22
:1005C00044910E390AC5DA52258AC648073A09C548
:1005D000FAA0A6239A0E3B09C5FAA8A6235A0D3CF9
:1005E00009C5FA48564CCB003D09C5FA94211E7244
:1005F000103E09C5DA6931AB23003F0AC5FA59122A
:1006000066399403400CC55A52242D8992485505E9
:10061000410CC5DA52254A86244AA218420AC5BAB4
:100620005365AA44C90E430AC5DA52252C453A003F
:10063000440CC5BA53254AA2244A7600450BC5BAD4
:1006400043124E6138C400460AC5BA43124E611DBA
:1006500002470BC5DA52254C9428D201480EC5BA80
:100660005112254312255112C5004908C5DA5BD83D
:1006700036034A0AC5DA5B584AB21C014B0CC5BAAC
:100680005152D2922889CA004C08C5BA61C72106C6
:100690004D0EC5BA5132244312255112C5004E0EDB
:1006A000C5BA51A2244392288912C5004F0CC5DA5D
:1006B00052254AA2248A7400500BC5BA53254AA673
:1006C000308700510CC5DA52254A948AA42600527C
:1006D0000BC5BA53254AA64A14035309C5DA526B0F
:1006E00054D2015407C5DA5BD81D550DC5BA511255
:1006F0002551122551A403560CC5BA511225511289
:10070000459A0E570EC5BA5112255132244312C5CF
:1007100000580CC5BA5112459A54896200590AC54D
:10072000BA9996D4C23A005A0AC5BA4398350E31DE
:10073000005B08C5DA53D838035C08C5BA61DA181B
:10074000035D07C5DA63A7195E08C5FA5992B302BB
:100750005F07C5FADC87046007C5DA69CE0C610A59
:10076000C5FAA4254AA26806620AC5BA613855A22C
:1007700064076309C5FA34294C6500640CC5FA485E
:10078000182D51124533006509C5FA242931EA00B4
:10079000660BC5FA5912655B982300670AC5FA24EF
:1007A000A934461200680BC5BA613855A2248A01E3
:1007B0006909C5FA3922D666006A0BC5FA480E8562
:1007C000A5248B006B0AC5BA6129992A510C6C07C4
:1007D000C5DA62B7196D0BC5FA14A54549942A000C
:1007E0006E0AC5FA94A91225510C6F0AC5FA24A9FC
:1007F00012453A00700AC5FA94A932852100710A9F
:10080000C5FAA4258AC60A00720AC5FA949252CC87
:1008100021007309C5FA34498D7400740AC5DA6180
:10082000B685499603750BC5FA94288992289A01D2
:10083000760BC5FAA4244AA224CB01770AC5FA9400
:100840004C4994CE00780AC5FA9428D2A432007993
:100850000CC5FA942889A2258A24007A0AC5FA943C
:1008600021AB0D31007B0AC55A521AA9592A037CC3
:1008700007C5FA61EF007D0BC51A6A964A69A42381
:10088000007E08C5DA493B330000000004FFFF008A
:10089000005F0204020404010305090F00FD0AFDC4
:1008A0000BFF0214046306752006F9939F7F210B4A
:1008B000F9933BD8F7D8609E02220DF9931F164991
:1008C0004552913C9F002315F9931F1E49454283D1
:1008D000512415090D469154244F092415F9931FED
:1008E000171B68229D2572BB442CD2CD4096C701B0
:1008F000251AF9931F158A242299442414C90573D3
:1009000091502491892422A13C1C2617F9931F257C
:100910008BA422A9484CA78954648A228990268FE7
:1009200006270AF9931F17ACE72300280EF9933D19
:1009300017CC057B194CE66100290EF99339194C47
:10094000067B17CCE581002A12F9931F978AD424DD
:10095000AA56899A48559E35002B0EF9939F345814
:100960003518A482F5A4002C0BF9939F8F74C2BA9A
:1009700010002D0BF9939FA3C120CF11002E09F970
:10098000939F8F747A022F0FF9931F9A0BE60A73C5
:1009900085B93C11003015F9931FB6CA54455291E0
:1009A00054241549455299AA3D013110F9931F97D6
:1009B0009325529160AF06833C1A3211F9931F358B
:1009C000D0A422A95C1F0E067934003312F9931FBC
:1009D0003418047375CB60492A33D0C3013414F939
:1009E000931F999325529150A6283318E482F570ED
:1009F000003514F9931F3418448215838C28D824A9
:100A00009519E8E1003616F9931F3608E58215833B
:100A10008C28928AA422A9CC400F073712F9931F81
:100A200034180473C15C3017CC05F324003812F974
:100A3000931FB6CA5465AA5699AA482A53B52739AE
:100A400015F9931F35D0A422A9482A12D20C12C13D
:100A5000BAD0204F3A0BF9939F914E4FA4D3133B3A
:100A60000DF9939F914E4FA413D685003C0BF9933B
:100A70001F99EB30D93D1C3D0EF9939FE9609047DB
:100A80000D067916003E0CF9931F95EC30D73D0DFD
:100A9000003F11F9931F35D0A422A960AE611E92C8
:100AA000A700401AF9931F35D0A422A94864104921
:100AB0006422898824A2880493033D1C4117F9937A
:100AC0001F5791CA5445529154643088A422A948B2
:100AD0002A8F064216F9931F3410D5A422A1CC40C8
:100AE00054938AA422A1CC404F4310F9931F35D0D0
:100AF000A422C1BECA0CF470004417F9931F34102D
:100B0000D5A422A9482A928AA422A9482833D0131E
:100B10004512F9931F34184482850351B0E1609067
:100B200047034610F9931F34184482850351B07B64
:100B300022004715F9931F35D0A422C136935424BF
:100B4000154965067A3800481AF9931F948AA42239
:100B5000A9482A32184452915424154945527934EF
:100B600000490DF9931F359005FBD9400F074A0E38
:100B7000F9931F379005FB26141AE4094B16F993D5
:100B80001F948A84324591D42C118BA432A19A549B
:100B90001E0D4C0CF9931F14EC0F07833C1A4D16D5
:100BA000F9931F948AA4221A49A249A249BF8AA490
:100BB00022A93C1A4E19F9931F948AA422A2482212
:100BC00013E926110949529154249547034F19F905
:100BD000931F35D0A422A9482A928AA422A9482A80
:100BE00092CA0CF470005012F9931F34D8A422A9B1
:100BF000482A32D804BB2702511AF9931F35D0A4D2
:100C000022A9482A928AA422A94822136933D0250E
:100C1000A5005218F9931F34D8A422A9482A32D823
:100C2000445299504D2A92CAA3015315F9931F3586
:100C3000D0A422A94872A98CA422A9CC400F0754A1
:100C40000DF9931F3418A482FD3D05005519F99341
:100C50001F948AA422A9482A928AA422A9482A92E7
:100C6000CA0CF470005617F9931F948AA422A94C59
:100C700051269449256289582297A7005713F99362
:100C80001F948AA422A9482AD2FF8B36F5700058F7
:100C900015F9931F948AA43255895C30974865AA48
:100CA00022A93C1A5910F9931F948AA43255895CE1
:100CB000B0F714005A10F9931F341804737D181CF0
:100CC0000CF268005B0DF99379900AF60F0779141E
:100CD000005C0EF9931F940C260B9385C93C1A5D9A
:100CE0000CF9937710ECBF1AE461005E0CF9931FC6
:100CF0005791CA54E579075F0BF9939FDF0C067A89
:100D000010006009F9933959CFC7006113F9939F17
:100D1000C94019CC0C26A948483348E4D1006216D2
:100D2000F9931F146C31C88822A9482A928A882214
:100D300089411E0E6310F9939FC940938A045B6535
:100D4000067A38006417F9931F1AAC192422214936
:100D50002A928AA42221CD209147036513F9939FFB
:100D6000C940938AA422834124981CE8E1006611BB
:100D7000F9931FB7CA8432A1606C200BB6270167B4
:100D800018F9939FC92011096542995068104A0EBD
:100D900034A9482A3390006815F9931F146C31C8A0
:100DA0008822A9482A928AA422A93C1A690DF9939B
:100DB0001FA6470E7B36D0C3016A11F9931FA847BF
:100DC0000E7B13CA8432A1D020036B14F9931F1435
:100DD0006C15C968122A5D4295D1A4F268006C0CAA
:100DE000F9931F35ECCF067A38006D0EF9939FC545
:100DF0004213E9FF577934006E15F9939F456290CD
:100E0000114552915424154945527934006F14F913
:100E1000939FC940938AA422A9482A92CA0CF470CD
:100E2000007016F9939F4562901145529154241514
:100E3000114512834CB00E7116F9939FC920110908
:100E400049529154241509690689600B00720EF904
:100E5000939F4564A429CA04DBD3007312F9939FBE
:100E6000C940938A2407CA482A33D0C301740FF9B2
:100E7000931F1F8C0D56C16E527B38007515F99368
:100E80009F452813CA8432A14C28130A0D127934C5
:100E9000007612F9939F452A92CA14655289582206
:100EA00097A700770FF9939F452A928AF45FB4A918
:100EB00087037811F9939F452A5395C855A4325555
:100EC0007934007917F9939F452813CA8432A14CCD
:100ED0002893112D8299506890017A0EF9939FC53D
:100EE0006090EBDD609047037B0FF9937D15AC8C30
:100EF000E994B960E51E047C09F9933BD8FF1E070D
:100F00007D0FF9937519AC4BEA64C960D51E087E54
:100F10000CF9931FA58974A3E7130000000004FFD8
:100F2000FF000000171D11241FBECFEFD8E0DEBF69
:100F3000CDBF11E0A0E0B1E0ECEEF8E502C0059015
:100F40000D92A03CB107D9F725E0A0ECB1E001C0BB
:100F50001D92A436B207E1F717E0C3E9D7E004C059
:100F60002197FE010E94392CC239D107C9F70E948E
:100F7000DA1D0C94742C0C940000662329F06A305E
:100F800019F0862F90E008958FEF9FEF0895AF92AC
:100F9000BF92CF92DF92EF92FF920F93CF93DF93A6
:100FA000EC01DA017901942F9770E1E0F0E09F0104
:100FB000092E01C0220F0A94EAF7522F6E018AE827
:100FC000C80ED11CF601808140E0823018F4422F17
:100FD000813049F15D01F8EFAF22E8ADF9AD28812C
:100FE0003981D90150968C918A9D90018B9D300D4D
:100FF0001124620F731FDF01A60FB71F01111AC062
:10100000EA0EFB1E8C91842B85278D93AE15BF05B0
:10101000C9F7DF91CF910F91FF90EF90DF90CF90C4
:10102000BF90AF90089550E0D5CF440F550FE11415
:10103000F10479F33C91342B35273C939F5F9770F3
:10104000E1E0EE1AF1089111F0CF2CAD3DADA20F09
:10105000B31FF6018081823028F4813009F051E01D
:1010600041E0E5CF51E0E3CF80E0089590E080E0FB
:101070000895CF93DF93CEECD4E08FAFEAADFBAD14
:101080000190F081E02D82ED94E00995EAADFBAD91
:101090000280F381E02D82ED94E0DF91CF910994FD
:1010A0009B01DC011896ED91FC9141E067E1099408
:1010B000833081F028F4813099F08230A9F00895CE
:1010C0008730A9F08830C9F08430B1F48091800075
:1010D0008F7D03C0809180008F778093800008957A
:1010E00084B58F7784BD089584B58F7DFBCF8091C3
:1010F000B0008F778093B00008958091B0008F7D0D
:10110000F9CF1F93CF93DF93282F30E0F901EB55F0
:10111000FB4F8491F901EF56FB4FD491F901E3584D
:10112000FB4FC491CC23A9F0162F81110E945808BF
:10113000EC2FF0E0EE0FFF1FED58FB4FA591B4919F
:101140008FB7F894EC91111108C0D095DE23DC9391
:101150008FBFDF91CF911F910895DE2BF8CFCF93F2
:10116000DF9390E0FC01EF56FB4F249183589B4F97
:10117000FC0184918823D1F090E0880F991FFC0135
:10118000E759FB4FA591B491FC01ED58FB4FC59178
:10119000D491623071F49FB7F8943C91822F80957E
:1011A00083238C93E8812E2B28839FBFDF91CF91DF
:1011B00008958FB7F894EC912E2B2C938FBFF6CF18
:1011C0008E50806480937C0080917A00806480934C
:1011D0007A0080917A0086FDFCCF80917800909112
:1011E0007900089584E10E94E00821E030E0853A2A
:1011F000910514F430E020E0C90108953FB7F89458
:101200008091BE029091BF02A091C002B091C10234
:1012100026B5A89B05C02F3F19F00196A11DB11D51
:101220003FBFBA2FA92F982F8827BC01CD01620F8D
:10123000711D811D911D42E0660F771F881F991F48
:101240004A95D1F708958F929F92AF92BF92CF9215
:10125000DF92EF92FF926B017C010E94FE084B012E
:101260005C01C114D104E104F104B9F00E94FE084C
:10127000681979098A099B09683E734081059105BF
:1012800080F321E0C21AD108E108F10888EE880E47
:1012900083E0981EA11CB11CE4CFFF90EF90DF907B
:1012A000CF90BF90AF909F908F9008952091530260
:1012B000260F3327331F21323105ECF420917902B8
:1012C000FC0190E080E0243069F082E00895A09174
:1012D00053022191AC014F5C5D4FA40FB52FB11D9E
:1012E0002C930196861798F380915302680F6093B0
:1012F000530280E0089581E008951092790281E020
:1013000080937B0210927A0261E082E10E94810860
:1013100061E083E10E948108E9EBF0E080818E7F4B
:10132000808380818D7F808388E48093B80085E40A
:101330008093BC000895CF93DF9391E090933002A7
:101340008823B9F0C091B800D091BA008091BC0058
:101350008A7B8093BC0060E082E10E94810860E0AB
:1013600083E10E9481080E947D09D093BA00C09356
:10137000B800DF91CF910895089508950895E09100
:10138000280280912702E81730F4F0E0E95FFD4F72
:10139000808190E008958FEF9FEF0895909128024B
:1013A000809127022FEF3FEF981748F4E92FF0E0E4
:1013B000E95FFD4F208130E09F5F90932802C901D3
:1013C00008958091270290912802891B990B089516
:1013D000CF92DF92EF92FF920F931F93CF93DF9301
:1013E0007C01CB018A0120910602222389F0EB01C6
:1013F0006B01C40ED51ECC15DD0569F06991D701CE
:10140000ED91FC910190F081E02DC7010995F3CF9A
:10141000642F0E945609C801DF91CF911F910F914F
:10142000FF90EF90DF90CF900895CF93DF931F92BE
:10143000CDB7DEB76983209106022223F9F020910F
:101440002902203258F021E030E0FC01338322836E
:1014500090E080E00F90DF91CF91089580912A0273
:10146000E82FF0E0EA51FE4F998190838F5F8093DF
:101470002A028093290281E090E0ECCF61E0CE0166
:1014800001960E945609F7CFDC011A96ED91FC9166
:1014900030E020E00994DC011496ED91FC9130E0FD
:1014A00020E040E060E10994DC011696ED91FC91AA
:1014B00030E020E040E069E10994DC011696ED910E
:1014C000FC9130E020E040E068E109949A01DC0101
:1014D0001696ED91FC91462F67E10994EF92FF92E9
:1014E0000F931F93CF93DF931F92CDB7DEB77C018D
:1014F0008B01D8016C91673129F150F46531A0F46A
:101500000F90DF91CF911F910F91FF90EF90089571
:101510006A3118F16E3FA1F7F8014181498369E210
:10152000C7010E94440A0BC0F80141814983D701D9
:101530001696ED91FC9130E020E0C70109950E5F11
:101540001F4FD7CFF80181818983AE014F5F5F4F75
:1015500061E0C7010E94660AF2CF0F5F1F4FD701FB
:101560001696ED91FC9130E020E040E0C70109952E
:10157000C0CF462FDC011696ED91FC9130E020E0C3
:1015800066E10994462FDC011696ED91FC9130E05E
:1015900020E065E10994EF92FF920F931F93CF93A0
:1015A000DF93EC01042F7901693069F48BE691E057
:1015B000998388831C8A81E0DF91CF911F910F91DD
:1015C000FF90EF9008956D3009F475C038F46A30DB
:1015D00091F16B3009F468C080E0EECF6E3009F411
:1015E0007DC06F30C9F70E945D0AF7011381110FAA
:1015F000110F110F6C89160F612F62956F7060616A
:10160000CE010E94C20A612F6F70CE010E94C20AF1
:10161000F7016481606BCE010E94C20AF70140812C
:1016200051816281660F660F660FCE010E94660AC5
:101630000150A1F75DC0EA85FB8530E020E040E085
:1016400068E20995EE81FF8130E020E040E064E14E
:10165000CE01099541E06BE4CE010E94440AE88185
:10166000F981448169E2CE010E94440A40E06BE4C2
:10167000CE010E94440AE881F981448169E2CE01E9
:101680000E94440A41E06BE4CE010E94440AE881D2
:10169000F981458169E2CE010E94440A66E371E066
:1016A000CE010E946E0A87CF61E371E04423C1F34B
:1016B0006CE271E0F5CF411109C065E271E00E9472
:1016C0006E0AE881F98182898C8B75CF6EE171E0B9
:1016D0000E946E0AE881F9818389F6CF0E945D0A33
:1016E00061E8CE010E94C20A602FCE010E94B90AB1
:1016F000CE010E94540A5FCFDC011896ED91FC9157
:1017000030E020E040E069E10994DC011896ED91B9
:10171000FC9130E020E040E068E10994CF93DF9352
:101720001F92CDB7DEB76983BE016F5F7F4F0E9406
:1017300050080F90DF91CF910895EF92FF921F9381
:10174000CF93DF93EC01162F7A010E94850B60E4A2
:10175000CE010E948E0BE885F9859701412F67E144
:10176000CE010995CE01DF91CF911F91FF90EF90AF
:101770000C947C0BEF92FF921F93CF93DF93EC01BD
:10178000142F7901663181F138F4643109F44BC0CA
:10179000653179F080E022C06831C9F150F16931DA
:1017A000C9F78091E501882391F1CE010E947C0B5D
:1017B0002EC08091E501882319F0CE010E947C0B98
:1017C000CE010E94850B60E0CE010E948E0B612F3E
:1017D000CE010E948E0B81E08093E501DF91CF91D5
:1017E0001F91FF90EF900895642F0E948E0B81E06F
:1017F000F5CF8091E501882319F0CE010E947C0B82
:10180000A701193138F4612FCE010E949D0B10926F
:10181000E501EDCF68E1CE010E949D0B185188E1F2
:10182000E80EF11CEDCF8E898F3F11F488E78E8B87
:10183000E885F9859701412F64E1CE01DF91CF91D1
:101840001F91FF90EF9009940F93FC01E05CFF4F14
:101850000190F081E02D4E1B5F0BDC01D496ED91E1
:10186000FC9109950F910895CF93DF93FC01A0811E
:10187000B18182AD90E09C0143E0220F331F4A9575
:10188000E1F737AF26AF50962C91509748E0249F50
:101890009001112435AF24AF23AD30E0B90153E0FE
:1018A000660F771F5A95E1F7EF01C05CDF4F798330
:1018B000688351964C915197E901C80FD91F50E0A8
:1018C0004C175D0718F4CA01821B930BEF01CE5B26
:1018D000DF4F79836883229623E0880F991F2A952A
:1018E000E1F7860F971F99838883229654968D91EE
:1018F0009C91559799838883E85BFF4F56968D910D
:101900009C9191838083DF91CF9108950F931F93D2
:10191000FC01E25BFF4F0190F081E02DDC01A05B58
:10192000BF4F0D90BC91A02D4A175B0740F4E01704
:10193000F10748F00417150730F080E019C0E017F0
:10194000F107C0F3FACFFC01E65BFF4F4081518104
:10195000845B9F4FFC01808191816817790758F45F
:1019600081E04217530720F081E02617370728F758
:101970001F910F91089542175307B0F3DECF2F92B6
:101980003F924F925F926F927F928F929F92AF920F
:10199000BF92CF92DF92EF92FF920F931F93CF935C
:1019A000DF93CDB7DEB72A970FB6F894DEBF0FBE30
:1019B000CDBF9A878987865B9F4F9A838983FC0175
:1019C00011821082E985FA85EA5BFF4F40805180E1
:1019D00029853A85245B3F4F3C832B83F901518253
:1019E0004082E985FA85EE5BFF4F208031802985B2
:1019F0003A85225B3F4F3E832D83F901318220825D
:101A0000E985FA85EC5BFF4F6080718029853A8516
:101A1000205B3F4F38872F83F90171826082E9850F
:101A2000FA85E85AFF4FE080F180E985FA85EC5AA3
:101A3000FF4FA080B180E985FA85EA5AFF4FC08048
:101A4000D180E985FA85EE5AFF4F80809180870129
:101A50009501A601B40189859A850E94860C298585
:101A60003A852C573F4F3A87298781111BC0F901CE
:101A700010822A960FB6F894DEBF0FBECDBFDF915D
:101A8000CF911F910F91FF90EF90DF90CF90BF907B
:101A9000AF909F908F907F906F905F904F903F900E
:101AA0002F90089581E0E985FA858083811491045F
:101AB00021F0E981FA8191828082A414B50420F496
:101AC000EB81FC81B182A0822C143D0420F4ED81D5
:101AD000FE81D182C082E614F70458F6EF81F885C2
:101AE000F182E082C6CF0F93CF93DF93E02FDC012A
:101AF000AC57BF4FFC91FF2309F460C0211531059D
:101B000009F45CC02230310538F0023009F04AC0D7
:101B10006F5F7F4F621B730B0E2F0170E0FD52C091
:101B2000FC01E25BFF4F0190F081E02D4E175F0753
:101B300008F444C0FC01E05BFF4F0190F081E02D10
:101B40004E175F07D8F5FC01E45BFF4F0190F08171
:101B5000E02DDC01A65BBF4F0D90BC91A02D260FA0
:101B6000371F2617370738F56E177F0718F59F01BF
:101B700021503109A217B30708F56A177B0708F44B
:101B8000BD012E173F0708F4F901E61BF70BEC0126
:101B9000AEA9BFA914960D90BC91A02D9F01FD0187
:101BA00009950CC0033009F0B7CF4F5F5F4F421B60
:101BB000530BB2CFBD016E177F07E0F2DF91CF91DB
:101BC0000F910895FC01E65BFF4F0190F081E02D3D
:101BD0006E177F0798F3FC01E45BFF4F0190F081E3
:101BE000E02D6E177F0750F7FC01E05BFF4F01907F
:101BF000F081E02DDC01A25BBF4F0D90BC91A02DC8
:101C0000240F351F24173507A8F44E175F0788F4F3
:101C10009F0121503109A217B30780F64A175B07CD
:101C200008F4AD012E173F0708F4F901E41BF50B8A
:101C3000AECFAD014E175F0708F6EDCF213069F04A
:101C400038F0223079F0840F911D47FD9A95089560
:101C5000860F911D67FD9A950895841B910947FD94
:101C600093950895861B910967FD939508952130FA
:101C700069F038F0223079F0861B910967FD939561
:101C80000895840F911D47FD9A950895860F911D23
:101C900067FD9A950895841B910947FD93950895D2
:101CA0003F924F925F926F927F928F929F92AF92EC
:101CB000BF92CF92DF92EF92FF920F931F93CF9339
:101CC000DF937C01162F442EEC01C25ADF4F5E8059
:101CD0006F806C018AE8C80ED11C78847518312E8B
:101CE000711608F4372C8C809D800E85202F462D90
:101CF000652D8A819B810E941E0E5C01202F462D3E
:101D0000652DC4010E94370EAC01442079F08C850A
:101D1000F6018083232D30E0B501C7010E94730DC9
:101D2000171548F017196394512CD7CF8B85811163
:101D3000F7CF8D85EDCF150D1E836F82DF91CF918B
:101D40001F910F91FF90EF90DF90CF90BF90AF90D9
:101D50009F908F907F906F905F904F903F900895ED
:101D6000DC011A964C911A97ED91FC9111972491F0
:101D700030E0042E02C0359527950A94E2F7842FAF
:101D8000860F883068F031961196FC93EE93E491BB
:101D900098E0941B01C0EE0F9A95EAF72E2B88501D
:101DA0001A968C938FEF9FEF01C0880F6A95EAF720
:101DB000809582230895FC01E60FF11D849190E047
:101DC000982F88273196E4918E0F911D0895CF9317
:101DD000DF9320912C0530912D052817390709F440
:101DE00090C0EC0190932D0580932C05FC0184910B
:101DF00080933F053196E491E0934005FE013296D1
:101E0000E491E0934105FE013396E491E0934205AD
:101E1000FE013496E491E0934305FE013596E4918A
:101E2000E0934405FE013696E491E0934505FE01FA
:101E30003796E491E0934605FE013896E491E093ED
:101E40004705FE013996E491E0934805FE013A9674
:101E5000E491E0934905FE013B96E491E0934A0545
:101E6000FE013C96E491E0934B05FE013D96E49122
:101E7000E0934C05FE013E96E491E0934D05FE0192
:101E80003F96E491E0934E05FE017096E491E09355
:101E90004F0561E1CE010E94DB0E909351058093C6
:101EA000500563E1CE010E94DB0E909353058093B1
:101EB000520565E1CE010E94DB0E9093550580939B
:101EC000540580912C0590912D05892BD1F080919E
:101ED0004C058093580540914D05409359059091CC
:101EE0005705992371F0913079F490914E05891737
:101EF00014F49093580580914F05841714F480933F
:101F00005905DF91CF9108953091490520914B05F6
:101F1000082E000C990B622F022E000C770B630F1A
:101F2000711D37FD7A95861797071CF4320F309391
:101F30005805241734F720935905E3CF4F925F9249
:101F40006F927F928F929F92AF92BF92CF92DF92C9
:101F5000EF92FF920F931F93CF93DF93EC016B01EE
:101F60008A017901FC01E459FF4F8081813009F435
:101F70004BC008F43EC0823009F451C0833009F4EC
:101F800059C0FE01E05AFF4FD182C08232961183C0
:101F9000008338978081918147962FEFE216F104F4
:101FA00011F008F0F2C0E1E6EE16F10408F44DC0BD
:101FB000FE01E058FF4F20813181820F931F9C0169
:101FC0002F5F3F4FF9014491411148C090E080E0FC
:101FD000DF91CF911F910F91FF90EF90DF90CF9005
:101FE000BF90AF909F908F907F906F905F904F9039
:101FF0000895FE01E45AFF4F0190F081E02DCE01DB
:102000000995080F191FBDCFFE01E45AFF4F01903B
:10201000F081E02DCE010995C81AD90AB2CFFE0190
:10202000E45AFF4F0190F081E02DCE010995081B85
:10203000190BA7CFFE01E45AFF4F0190F081E02D6C
:10204000CE010995C80ED91E9CCFF1E4EF16F1041C
:1020500008F4B5CFFE01E258FF4FADCFFC0144912B
:102060004E151F0409F08CC00296009709F4AECFFC
:102070007E01FEE5EF0EF11CF7019183808312864D
:1020800073966081C7010E94B00EF7018087749635
:102090006081C7010E94B00E982EF70181875E0112
:1020A000FAE8AF0EB11CF5019081F701948781E049
:1020B000911180E0F7018587FE01ED58FF4FC08048
:1020C0006C2DC7010E94B00E582EFE01EC58FF4F38
:1020D000D0806D2DC7010E94B00E482EFE01EB5836
:1020E000FF4F1081612FC7010E94B00E9FEF910F2B
:1020F00001E010E0980101C0220F9A95EAF7882EBE
:10210000821AF701608416140CF0ADC0CA94C8019D
:1021100001C0880FCA94EAF7581A7684490CDA94F9
:10212000A80101C0440FDA94EAF7F42FF4194F2EF6
:10213000272D4F2F652DF701828193810E941E0E5E
:102140006C01F70193838283272D442D652D8481B3
:1021500095810E94370EF70195838483F1E07F1605
:1021600009F485C07F1608F43FC022E0721609F416
:102170008DC0E3E07E1609F49DC0BC0196013EC00F
:10218000F9012491820F911D1ACFFE01EE57FF4FE6
:1021900000811181080F191F680160E0C6010E94CB
:1021A000DB0E080F191F62E0C6010E94DB0EF4E08F
:1021B000CF0ED11C8E159F0580F3F801849190E01D
:1021C000982F88273196E4918E2B009709F4FECE44
:1021D000E816F90619F4C801039647CFF8013296BC
:1021E000E4910E0F111DE9CF9601260D311D67FCFC
:1021F0003A95BC01690D711D97FC7A958B01AC0174
:10220000B601CE010E94860C882369F1F70116827F
:1022100017828E0101591F4F6E01F0E7CF0ED11CBE
:10222000F8016081C7010E94B00E682EF60160813E
:10223000C7010E94B00E782E40E0662DCE010E94AC
:10224000500E41E0672DCE010E94500E61E0C701A3
:102250000E94B00E8111F0CFF7018781891504F338
:102260008485F5018083882D880C990BB1CE0919DE
:10227000110997FC139596012F5F3F4FBC01660D26
:10228000711D67FC7A95C00ED11EB8CFA801461902
:10229000510967FC539596012F5F3F4F09191109AA
:1022A00097FC1395BC016F5F7F4F800F911FC40E89
:1022B000D51EA4CF9601290D311D97FC3A9506191C
:1022C000110967FC1395BC016F5F7F4F800F911F51
:1022D00095CFCF92DF92EF92FF920F931F93CF9300
:1022E000DF93EC018B011092EA047A01D12CC12C0E
:1022F000F70161917F01E091D404F091D50482ED62
:1023000094E009958F3F980719F18E3F2FEF9207C0
:1023100079F39C01A801BE0182ED94E00E949E0F1A
:1023200020913E05213059F038F0223059F0233009
:1023300061F0C80ED91EDCCFC80FD91FFACF080F25
:10234000191FF7CFC81BD90BF4CF081B190BF1CFFE
:10235000C601DF91CF911F910F91FF90EF90DF9019
:10236000CF900895AF92BF92CF92DF92EF92FF92FB
:102370000F931F93CF93DF9300D000D01F92CDB760
:10238000DEB78C01DC01DA96AC90DA97DB96EC9044
:10239000DB97ED91FC91B188FE2CD12CC12CD8019A
:1023A000ED91FC9111978089D8962D913C911C82DA
:1023B000FD828B83B8E08B9FC00111248C9DA0010E
:1023C0008D9D500D9C9D500D1124240F351F3A8377
:1023D0002983D8011496ED91FC919E012F5F3F4F08
:1023E00041E06FE0C8010995F3948F2D8E198A158D
:1023F00028F4BFEFCB1ADB0AFB1488F20F900F9082
:102400000F900F900F90DF91CF911F910F91FF9040
:10241000EF90DF90CF90BF90AF90089582ED94E061
:102420000E94B21182ED94E00C944B0ACF92DF929D
:10243000EF92FF920F931F93CF93DF93EC01962FB0
:10244000683109F44BC0B901993130F49431C9F0C5
:10245000973189F080E006C0993109F461C090326B
:10246000C9F781E0DF91CF911F910F91FF90EF901D
:10247000DF90CF90089550E082EC92E00E94E8094E
:10248000F0CF8C859D85AE85BF85892B8A2B8B2BC4
:1024900071F4E881F981A585B0E020EA36E841E0F1
:1024A00050E00E943F2C6C877D878E879F8710921B
:1024B00028021092270210922A02109229020E94EA
:1024C0007D098CEB99E090935202809351028DEB41
:1024D00099E09093560280935502C3CF2C853D8599
:1024E0004E855F8560E074E284EF90E00E94172CD7
:1024F000205131094109510956954795379527953E
:102500002093B8008E8990E09595879591E09093FF
:1025100006028093E40110922A0210922902A1CFB0
:10252000D0912902D13208F093C0C091E4010E94F9
:10253000FE086B017C0180917902811164C082E008
:102540008093790281E080937B028FEF8093780201
:1025500010929D02D0939C02A6EEB1E0ECE7F2E06F
:1025600080E0D8137CC010929E0280919E02CC0F16
:10257000C82BC0939E0280917A02813009F073C00B
:1025800010927A020E94FE086B017C0180919E02EB
:102590008093BB0080912C0290912D02A0912E027D
:1025A000B0912F02892B8A2B8B2B99F00E94FE0869
:1025B00000912C0210912D0220912E0230912F02B9
:1025C0006C197D098E099F09061717072807390717
:1025D000D8F18091BC0083FDD9CF85EC8093BC00FD
:1025E0000E94FE086B017C01809179028230E9F142
:1025F000809178028F3F61F180917802803241F1C1
:102600008091780225C080912C0290912D02A0919A
:102610002E02B0912F02892B8A2B8B2B09F48BCFA2
:102620000E94FE0800912C0210912D0220912E0292
:1026300030912F026C197D098E099F090617170723
:102640002807390708F077CF80912B020E949B0959
:1026500010922A02109229021092060202CF9D9136
:1026600091938F5F7ECF85EEB9CF80912C029091B0
:102670002D02A0912E02B0912F02892B8A2B8B2B39
:1026800009F4B2CF0E94FE0800912C0210912D0295
:1026900020912E0230912F026C197D098E099F091D
:1026A000061717072807390708F09ECFCDCF0F93DD
:1026B0001F93CF93DF93EC01862F642F8C3208F0A9
:1026C0003AC08A3208F060C0883209F44BC08932BF
:1026D00009F460C0803408F475C0982F9F73FE0120
:1026E000E90FF11D868D8F3F09F44EC0903108F43B
:1026F00036C0282F30E0F901EB55FB4F8491F901EA
:10270000EF56FB4F0491F901E358FB4F149111234D
:1027100079F081110E945808E12FF0E0EE0FFF1FC1
:10272000E25CFC4FA591B491EC910E2381E009F499
:1027300080E0898F29C08D3299F108F4CBCF94EBDA
:10274000980F923008F0C6CF8F73C80FD11D8E8DB1
:10275000411134C061E00E94AF0860E08E8D0E949C
:10276000810812C08E01025E1F4FD0E0F8018191F6
:102770008F018F3F31F061E0D03108F062E00E94BC
:10278000AF08DF5FD63191F781E0DF91CF911F91E4
:102790000F91089570E090E080E00E942309F4CF4B
:1027A00085E090E0433010F082E090E0880F991FC0
:1027B000880F991F05970197F1F7E6CF62E00E9415
:1027C000AF08E2CF80E0E1CF25B1207C382F3F7306
:1027D000232B25B92BB136E0959587953A95E1F7EE
:1027E00045E0880F991F4A95E1F72F71822B8BB92D
:1027F0000895CF93DF93EB0128B1207F28B927B14B
:10280000207F27B90E94E4135A98CE010E94E41356
:102810005B9800000000000000000000000086B18E
:102820005B9A5A9A8F7090E0DF91CF910895CF9381
:10283000DF93EB0138980E94E4135A98CE010E946E
:10284000E4135B980000000000000000000000009E
:1028500086B15B9A5A9A817090E0DF91CF9108958A
:102860000F931F93CF938B01C42F27B12F6027B9EC
:102870000E94E4135A985C9848B1407FCF704C2B6B
:1028800048B9C8010E94E4135B98000000000000F2
:102890000000000000005C9A5B9A5A9ACF911F9149
:1028A0000F9108958F929F92AF92BF92CF92DF9235
:1028B000EF92FF920F931F93CF93DF937C0110E071
:1028C00000E0CC24C394D12C8091AC029091AB0257
:1028D000282F291B922F960102C0220F331F9A9591
:1028E000E2F7021713072CF5C091AA020C2E000C78
:1028F000DD0BC02BD12B9091A90202C0CC0FDD1FA4
:102900009A95E2F7560102C0AA0CBB1C8A95E2F721
:10291000912C812C8A149B044CF4A701BE01C401A4
:102920000E9430148FEF881A980AF4CF0F5F1F4F60
:10293000CBCF80E0DF91CF911F910F91FF90EF906F
:10294000DF90CF90BF90AF909F908F9008951F938E
:10295000CF93DF93EB01142F399A0E94E4135A9816
:102960005C9810FD419A10FF4198CE010E94E4133B
:102970005B980000000000000000000000005C9A6E
:102980005B9A5A9ADF91CF911F9108958F929F92EF
:10299000AF92BF92CF92DF92EF92FF920F931F936D
:1029A000CF93DF937C0110E000E0CC24C394D12CC2
:1029B0008091AC029091AB02282F291B922F960197
:1029C00002C0220F331F9A95E2F7021713072CF566
:1029D000C091AA020C2E000CDD0BC02BD12B9091C4
:1029E000A90202C0CC0FDD1F9A95E2F7560102C082
:1029F000AA0CBB1C8A95E2F7912C812C8A149B04AB
:102A00004CF4A701BE01C4010E94A7148FEF881ADD
:102A1000980AF4CF0F5F1F4FCBCF80E0DF91CF91AB
:102A20001F910F91FF90EF90DF90CF90BF90AF90EC
:102A30009F908F9008958BB183708BB98AB183700A
:102A40008AB985B1807C85B984B1807C84B988B12C
:102A5000807F88B987B1807F87B90895CF92DF9250
:102A6000EF92FF92CF93DF9384E10E94E008EC01A4
:102A700080E0C53AD1050CF493C060919F0270913B
:102A8000A002072E000C880B990B0E94E12A6B0113
:102A90007C01BE01DD0F880B990B0E94E12A9B018E
:102AA000AC01C701B6010E94372A6093A50270935A
:102AB000A6028093A7029093A8026091A50270914C
:102AC000A6028091A7029091A80220E030E048EA97
:102AD00050E40E94322A87FF11C06091A5027091D4
:102AE000A6028091A7029091A802C1E020E030E008
:102AF00048E950E40E94912B18160CF0C0E0C093F6
:102B0000AD02C090A502D090A602E090A702F0907E
:102B1000A80285E10E94E008EC0120E030E040E4FA
:102B20005BE3C701B6010E94962B6B017C01BE01DD
:102B3000DD0F880B990B0E94E12A9B01AC01C701B4
:102B4000B6010E94962B6093A1027093A20280931B
:102B5000A3029093A4026091A1027091A2028091BD
:102B6000A3029091A40229E939E949E451E40E94C1
:102B7000322A87FF11C06091A1027091A202809158
:102B8000A3029091A402C1E026E636E646E351E4B2
:102B90000E94912B18160CF0C0E0C093AE0281E0A9
:102BA000DF91CF91FF90EF90DF90CF9008950E943A
:102BB000F208892BE1F30E94F2080197E1F30E94E9
:102BC000F208892BE1F30895CF92DF92EF92FF9202
:102BD0000F931F93CF93DF936C01EB017B01E40E06
:102BE000F51E10E000E0CE15DF0561F06991D60119
:102BF000ED91FC910190F081E02DC6010995080F3F
:102C0000191FF1CFC801DF91CF911F910F91FF9054
:102C1000EF90DF90CF900895CF92DF92EF92FF92E6
:102C20000F931F93CF93DF93EC016C0124E0C20E4E
:102C3000D11CFC01E057FF4F0190F081E02DC6014F
:102C400009958E3FEFEF9E07D8F48E010C561F4F6B
:102C5000F801408151817E01F2E9EF0EF11CF7018C
:102C6000608171819C01C6010E949E0FC059DF4F97
:102C700028812130C1F078F02230B9F02330E9F01A
:102C800081E090E0DF91CF911F910F91FF90EF9045
:102C9000DF90CF900895F70120813181820F931F3B
:102CA00091838083EDCFF801F7CFF7012081318147
:102CB000281B390B31832083E3CFF801F7CF089528
:102CC00090E080E0089585ED8093BC0080912C0217
:102CD00090912D02A0912E02B0912F020796A11D76
:102CE000B11D23E0B695A795979587952A95D1F7BD
:102CF0002091BC0024FD03C01092790208954091F8
:102D00002C0250912D0260912E0270912F02452BC2
:102D1000462B472B69F30097A105B10541F02AE244
:102D20002A95F1F700C00197A109B109E1CF80917F
:102D30002B020C949B091F93CF93DF93EC01162F6A
:102D40000E947829181739F0612FCE01DF91CF91B9
:102D50001F910C948029DF91CF911F9108950C94BD
:102D60007829FC01A081B18150962C9182AD38E088
:102D7000839FC0011124289FA001299F500D112479
:102D800070E060E080AD91AD0C946D2CCF93DF933B
:102D9000CDB7DEB76A970FB6F894DEBF0FBECDBFD2
:102DA0009E012B5D3F4F4BA15CA16AE170E0CE011B
:102DB00001960E94CE268DEB97E09093D5048093E8
:102DC000D404AE014F5F5F4F69A17AA18F8D98A1A6
:102DD0000E9469116A960FB6F894DEBF0FBECDBF90
:102DE000DF91CF910895EF92FF920F931F93CF93AE
:102DF000DF93CDB7DEB76A970FB6F894DEBF0FBE8C
:102E0000CDBF8C017B01BA014AE150E0CE010196B1
:102E10000E94BF262DEB37E03093D5042093D404D5
:102E2000AC01B701C8010E9469116A960FB6F89407
:102E3000DEBF0FBECDBFDF91CF911F910F91FF90ED
:102E4000EF900895AF92BF92CF92DF92EF92FF92F0
:102E50000F931F93CF93DF9384E10E94E008B82E75
:102E6000A92E0E94F2088C016091A5027091A60221
:102E70008091A7029091A80220E030E040EA50E45F
:102E80000E94C52920E030E04AE754E40E94962BD6
:102E900020E030E040EA50E40E94372A0E94A92A4C
:102EA0006B01EB0182ED94E00E94B11681E998E09C
:102EB0000E94E70E42E353E06AE070E090E080E0B9
:102EC0000E94F31689EB94E00E94E70EC601D7FE3C
:102ED00004C0882799278C199D092AE030E0B901A0
:102EE0000E94032C482FE92FCE01B9010E94032C28
:102EF00088E4012B09F48CE4EF934F937F936F9355
:102F00001F928F93AF92BF9284E193E09F938F9330
:102F10001F9286E18F931F921F920E94C61647E070
:102F200053E06FE170E090E080E00E94F3168DB70F
:102F30009EB70E960FB6F8949EBF0FBE8DBF8091C0
:102F4000AD0243EF52E0882311F04CEF52E06FE105
:102F500070E081E490E00E94F316DF91CF911F9121
:102F60000F91FF90EF90DF90CF90BF90AF900C94B7
:102F70000E126F927F928F929F92AF92BF92CF92DA
:102F8000DF92EF92FF920F931F93CF93DF9385E130
:102F90000E94E008782E692E6091A1027091A20231
:102FA0008091A3029091A40220E030E040E251E43D
:102FB0000E94962B0E94A92A8B016091A502709114
:102FC000A6028091A7029091A80220E030E040E4A0
:102FD00050E40E94962B20E030E040E251E40E9451
:102FE000962B0E94A92A7B016091A5027091A602EE
:102FF0008091A7029091A80220E030E040EA50E4DE
:103000000E94C52920E030E04AE754E40E94962B54
:1030100020E030E040EA50E40E94372A0E94A92ACA
:103020004B016B0182ED94E00E94B11681E998E0BA
:103030000E94E70E44EE52E06AE070E090E080E02B
:103040000E94F31689EB94E00E94E70EC40197FEFC
:1030500004C08827992788199909CAE0D0E0BE01E1
:103060000E94032C9F938F93C601BE010E94032CE4
:103070007F936F936F927F9289EC92E09F938F93EF
:103080001F9286E18F931F921F920E94C616C7015E
:10309000BE010E94032C9F938F937F936F93C8016F
:1030A000BE010E94032C9F938F937F936F938FEAAF
:1030B00092E09F938F931F928FE18F931F921F92A5
:1030C0000E94C6168DB79EB74A960FB6F8949EBF5B
:1030D0000FBE8DBFDF91CF911F910F91FF90EF90A9
:1030E000DF90CF90BF90AF909F908F907F906F9028
:1030F0000C940E12CF93C82F82ED94E00E94B1166B
:1031000081E998E00E94E70E48EA52E06AE070E048
:1031100090E080E00E94F31689EB94E00E94E70EB5
:10312000CC23E9F048E952E066E170E090E080E00D
:103130000E94F31642E852E06FE170E084E190E013
:103140000E94F3160E940E12CC2381F00E94D71524
:103150006CE271E080E090E0CF910C94230947E7A6
:1031600052E066E170E090E080E0EACFCF91089510
:1031700082ED94E00E94B11681E998E00E94E70E8A
:103180004BE652E06AE070E090E080E00E94F316C7
:1031900089EB94E00E94E70E45E652E06AE070E0B9
:1031A00087E690E00E94F3168091B202823009F423
:1031B00053C034F48823B1F0813059F10C940E12CD
:1031C000843009F45FC00CF452C08530B9F743E88D
:1031D00051E066E170E090E080E00E94F3164BE67B
:1031E00051E035C044E552E066E170E090E080E0F7
:1031F0000E94F3168091B10246E452E0882311F058
:103200004DE452E066E170E085E590E00E94F3163F
:10321000D5CF46E352E066E170E090E080E00E94A6
:10322000F3168091B00249E252E0882311F040E3A6
:1032300052E066E170E080E590E00E94F316809134
:10324000B0024EE052E0882311F048E252E06FE114
:1032500070E090E080E0DACF41E052E066E170E0BB
:1032600090E080E00E94F3164AEE51E0F0CF44ED8A
:1032700051E066E170E090E080E00E94F3164FEBD1
:1032800051E0E5CF46EA51E066E170E090E080E091
:103290000E94F31641E951E0DACFEF92FF920F93CB
:1032A0001F93CF93DF938C017B01EA01789482ED29
:1032B00094E00E94B11681E998E00E94E70E44E68E
:1032C00051E06AE070E090E080E00E94F31689EB44
:1032D00094E00E94E70E8DEB97E09093D5048093E5
:1032E000D404A8016AE070E088E390E00E946911CC
:1032F000E091AF020E2E000CFF0BED56FE4F8081C9
:103300001F928F938AE591E09F938F931F9216E10E
:103310001F931F921F920E94C616E091AF02EE0FFC
:10332000FF0BED57FE4F4081518166E170E088E26E
:1033300090E00E94F3168091AC0241E050E0BA01A7
:10334000082E02C0660F771F0A94E2F761507109D8
:103350006E217F217F936F939091AB02891B02C0F6
:10336000440F551F8A95E2F7415051094C235D23C4
:103370005F934F938DE491E09F938F931F921F93E0
:103380001F928BE48F930E94C61647E351E06FE1D2
:1033900070E084E190E00E94F3160E940E120E94F9
:1033A000D7158DB79EB742960FB6F8949EBF0FBE45
:1033B0008DBF6CE271E080E090E0DF91CF911F91D2
:1033C0000F91FF90EF900C9423096F927F928F9250
:1033D0009F92AF92BF92CF92DF92EF92FF920F93A4
:1033E0001F93CF93DF936C014B01F12CE12C6624EA
:1033F0006394712C8091AC029091AB02282F291B11
:10340000922F930102C0220F331F9A95E2F7E21622
:10341000F3060CF043C0C091AA020C2E000CDD0B89
:10342000CE29DF299091A90202C0CC0FDD1F9A9509
:10343000E2F7530102C0AA0CBB1C8A95E2F710E028
:1034400000E00A151B0534F5A401BE01C8010E9465
:103450003014BE01C8010E94F91388159905B9F00E
:103460000E941B15A701B801C6010E944D1981E0F9
:10347000DF91CF911F910F91FF90EF90DF90CF9050
:10348000BF90AF909F908F907F906F9008950F5F47
:103490001F4FD7CF8FEFE81AF80AACCF80E0E8CF04
:1034A0006F927F928F929F92AF92BF92CF92DF9254
:1034B000EF92FF920F931F93CF93DF936C014B0119
:1034C000F12CE12C66246394712C8091AC029091D4
:1034D000AB02282F291B922F930102C0220F331F0A
:1034E0009A95E2F7E216F3060CF043C0C091AA02E7
:1034F0000C2E000CDD0BCE29DF299091A90202C011
:10350000CC0FDD1F9A95E2F7530102C0AA0CBB1C39
:103510008A95E2F710E000E00A151B0534F5A401D6
:10352000BE01C8010E94A714BE01C8010E94171461
:1035300088159905B9F00E941B15A701B801C601AD
:103540000E944D1981E0DF91CF911F910F91FF9063
:10355000EF90DF90CF90BF90AF909F908F907F9033
:103560006F9008950F5F1F4FD7CF8FEFE81AF80ABB
:10357000ACCF80E0E8CFCF92DF92EF92FF920F9333
:103580001F93CF93DF936C01EB01142F052FF22EC5
:10359000E32E82ED94E00E94B11681E998E00E944A
:1035A000E70E8DEB97E09093D5048093D404A601A9
:1035B0006AE070E090E080E00E94691189EB94E09D
:1035C0000E94E70EE091AF020E2E000CFF0BED56AD
:1035D000FE4F80811F928F938DE291E09F938F9396
:1035E0001F9286E18F931F921F920E94C616E09150
:1035F000AF02EE0FFF0BED57FE4F4081518166E1A8
:1036000070E088E290E00E94F3168DB79EB70896AE
:103610000FB6F8949EBF0FBE8DBF8091AF0285306C
:1036200074F08091B1024FE151E0882311F046E23D
:1036300051E066E170E08BE490E00E94F316EF92B7
:10364000FF920F931F93DF93CF9386E091E09F93B8
:103650008F931F928FE18F931F921F920E94C61625
:1036600078940E940E12F8948DB79EB70C960FB600
:10367000F8949EBF0FBE8DBFDF91CF911F910F9128
:10368000FF90EF90DF90CF900895CF93C82F82EDF9
:1036900094E00E94B11681E998E00E94E70E4AEF9B
:1036A00050E06AE070E090E080E00E94F31689EB61
:1036B00094E00E94E70E44EF50E06AE070E087E695
:1036C00090E00E94F316E091AF02EE0FFF0BED5772
:1036D000FE4F4081518166E170E090E080E00E9401
:1036E000F316E091AF02EE0FFF0BE25FFE4F408159
:1036F000518166E170E083E290E00E94F316E09170
:10370000AF020E2E000CFF0BED56FE4F80811F9274
:103710008F938AEE90E09F938F931F9286E18F9311
:103720001F928DE58F930E94C6168DB79EB708969F
:103730000FB6F8949EBF0FBE8DBFCC2341F041ED74
:1037400050E06FE170E088E090E00E94F316CF91C6
:103750000C940E124FE050E00C94BF261F920F9273
:103760000FB60F9211242F933F938F939F93AF9394
:10377000BF938091BA029091BB02A091BC02B0911C
:10378000BD023091B90223E0230F2D3758F5019681
:10379000A11DB11D2093B9028093BA029093BB0280
:1037A000A093BC02B093BD028091BE029091BF0273
:1037B000A091C002B091C1020196A11DB11D8093DC
:1037C000BE029093BF02A093C002B093C102BF910A
:1037D000AF919F918F913F912F910F900FBE0F90BE
:1037E0001F90189526E8230F0296A11DB11DD2CF78
:1037F0001F920F920FB60F9211242F933F934F9366
:103800005F936F937F938F939F93AF93BF93EF9348
:10381000FF938091B900887F803609F44AC0F0F5A3
:10382000883209F4A7C018F5803109F49BC0B8F4B8
:10383000882309F4F9C0883009F494C0FF91EF910E
:10384000BF91AF919F918F917F916F915F914F91B8
:103850003F912F910F900FBE0F901F9018958831B8
:1038600009F488C0803251F78093780214C0803404
:1038700009F49DC040F48033B9F38833F9F680939E
:10388000780285ECB0C0803509F485C0883509F42C
:1038900096C0883499F60E946316D0CF883909F40F
:1038A0008CC038F5883729F050F4883611F080370D
:1038B00029F683E0809379021092770257C0883806
:1038C00009F47BC0803919F0803809F0B7CF8091B6
:1038D0007702803208F071C0E091770281E08E0FAC
:1038E000809377028091BB00F0E0E95AFD4F80831E
:1038F0003DC0803B39F0E0F4803A09F479C0883A61
:1039000009F09CCF84E080937902109254021092C7
:103910005302E0915102F0915202099580915302B5
:1039200081110FC081E0809353021092310209C0CF
:10393000803C09F4A6CF883C09F4A3CF883B09F06A
:103940007DCFE091540281E08E0F80935402F0E02D
:10395000EF5CFD4F80818093BB0090915402809179
:10396000530229C080919E028093BB0085EC809316
:10397000BC0064CF90919D0280919C02981758F5ED
:10398000E0919D0281E08E0F80939D02F0E0E4586B
:10399000FD4F8081E9CFE0919D0281E08E0F809301
:1039A0009D028091BB00F0E0E458FD4F8083909130
:1039B0009D0280919C029817C8F285E8D8CFE091CB
:1039C0009D0281E08E0F80939D028091BB00F0E00C
:1039D000E458FD4F808380917B0281115CCF81E0B0
:1039E00080937A0284EA8093BC001092790226CFF9
:1039F00085EC8093BC00109279028091770280322E
:103A000030F4E0917702F0E0E95AFD4F10826091C6
:103A1000770270E0E0915502F091560287E592E05E
:103A20000995109277020ACF1092780234CFCF9383
:103A30001092C5021092C40288EE93E0A0E0B0E0BC
:103A40008093C6029093C702A093C802B093C902A4
:103A50008FE991E09093C3028093C2021092D10447
:103A60001092D0048DEB97E090935F0580935E05F4
:103A70001092610510926005109263051092620524
:103A80001092EA0481EB91E09093CF048093CE04EE
:103A90001092D3041092D2041092E7041092DE0424
:103AA0001092DF041092E0041092E1048FEF8093F3
:103AB000E8048093EC04E0EFF4E086E095E0CFEFDB
:103AC000C1938E179F07E1F78BEC9AE09093D70490
:103AD0008093D6048AEB9BE09093D9048093D8041A
:103AE00086E192E19093DB048093DA0487E593E129
:103AF0009093DD048093DC0430E020E040E069E056
:103B000082ED94E00E94CB0A10922D0510922C05B4
:103B100087EC97E090930705809306058EEC92E082
:103B200090930B0580930A0584E080930C05109216
:103B30000D0510923B0510925B051092570581E030
:103B400080935C0580935D0589EB91E09093090576
:103B50008093080582ED94E00E94340C10922505B4
:103B60001092240510922905109228058FEF9FEFDF
:103B7000909327058093260590932B0580932A0523
:103B8000E0910805F09109050280F381E02D82EDB6
:103B900094E0099586E398E090932F0580932E0595
:103BA00010923E05C093FB04C093FC04C093FD0437
:103BB000CF910895CF93DF93CDB7DEB769970FB656
:103BC000F894DEBF0FBECDBF789484B5826084BD0B
:103BD00084B5816084BD85B5826085BD85B5816011
:103BE00085BD80916E00816080936E00109281008F
:103BF000809181008260809381008091810081604A
:103C0000809381008091800081608093800080910A
:103C1000B10084608093B1008091B0008160809396
:103C2000B00080917A00846080937A0080917A005D
:103C3000826080937A0080917A00816080937A001C
:103C400080917A00806880937A001092C100E091A0
:103C5000D604F091D70430E020E040E06AE082ED45
:103C600094E0099580915D05882321F082ED94E030
:103C70000E94B11680E00E94390882ED94E00E9413
:103C8000B21110910D0580910C05180FE091D2042E
:103C9000F091D3048189181708F49DC082ED94E057
:103CA0000E944B0A80E00E943908E091D604F0910E
:103CB000D70430E020E040E06BE082ED94E009952D
:103CC00082ED94E00E94B1160E941B151092AE0284
:103CD0001092AD021092A5021092A6021092A702B5
:103CE0001092A8021092A1021092A2021092A302B6
:103CF0001092A40290E080E00E94AF16883008F095
:103D000081E08093AF0281E090E00E94AF1691E0E5
:103D1000811101C090E09093B10282E090E00E9496
:103D2000AF1691E0811101C090E09093B00280E065
:103D300092E00E94782980939F0281E092E00E94A5
:103D400078298093A00200919F021091A002B801EF
:103D5000012E000C880B990B0E94E12A6B017C015B
:103D600026E636E646E655E40E94912B18160CF43A
:103D70003CC020E030E040E455E4C701B6010E94B9
:103D8000322A87FD32C01093A00200939F020E9446
:103D9000F2088093B70281112BC01092B2020E94E8
:103DA000B8181092B80201E010E044244394E09166
:103DB000B802E83008F039C00E2E000CFF0BED51B0
:103DC000F14E0C94392C031F1D1FC41FCC1FD21F92
:103DD000E01F3120BD2080915D05882321F082ED18
:103DE00094E00E94B116812F46CF03E31DE0CBCFB4
:103DF0000E942E1580E00E94451B1092B70284E0BD
:103E00008093B802D0CF0E94F208F82E8091B702BA
:103E100081110BC021E0F21208C00E942E15F09211
:103E2000B7020E94B818F092B80220E030E0232BCD
:103E300009F4BDCF0E940000B8CF0E94F208F82E0E
:103E40008091B7028130B9F4F11015C01092B70219
:103E50002FB7F8948091BA029091BB02A091BC0256
:103E6000B091BD022FBF8093B3029093B402A09390
:103E7000B502B093B6028FB7F8948090BA029090D2
:103E8000BB02A090BC02B090BD028FBF8091B30274
:103E90009091B402A091B502B091B602881A990A25
:103EA000AA0ABB0A8091B7028111BFCF31E0F31299
:103EB0003AC70E942E15F092B7024CED841645E0E9
:103EC0009406A104B10408F0B0CF8091B2028F5FD4
:103ED00086300CF080E08093B2020E94B818A5CF23
:103EE000843009F45BC00CF451C0853009F09DCFDB
:103EF00081E090E00E94AF166091B102882381F1C9
:103F0000611130C081E090E00E9480292BC0809137
:103F1000B10291E089278093B1020E94B8181092F3
:103F2000B80283CF80E00E947A18F12CE12C6FEF69
:103F3000C7010E949B162FEFE21AF20AE11432E049
:103F4000F306A9F74092B1024092B00281E00E94CC
:103F50007A1884E08093B80280E00E94451B65CF08
:103F60006111D0CF82E090E00E94AF166091B00264
:103F7000882339F06111EDCF82E090E00E94802922
:103F8000E8CF6111F9CFE5CF0E942E150E94B91735
:103F900082E08093B80249CF0E942E150E9422171A
:103FA00083E0F7CF0E94F208813009F03ECF809382
:103FB000B7020E942E1580E00E94451B85E0E9CFE4
:103FC0000E94F208F82E8091B7028130B9F4F11006
:103FD00015C01092B7022FB7F8948091BA02909151
:103FE000BB02A091BC02B091BD022FBF8093B3026F
:103FF0009093B402A093B502B093B6028FB7F89431
:104000008090BA029090BB02A090BC02B090BD021A
:104010008FBF8091B3029091B402A091B502B0918C
:10402000B602881A990AAA0ABB0A8091B7028111BE
:10403000FCCE41E0F41294C60E942E15F092B70215
:104040005CED851655E09506A104B10408F0EDCEAF
:104050008091AF028F5F88300CF080E08093AF02D8
:104060007BCF0E94F208813009F0DFCE8093B70247
:104070000E942E158091AE02811145C08091AF0241
:10408000811141C082ED94E00E94B11681E998E06F
:104090000E94E70E43E753E06AE070E090E080E0C2
:1040A0000E94F31689EB94E00E94E70EE091AF02C4
:1040B000EE0FFF0BED57FE4F408151816AE070E03B
:1040C0008CE590E00E94F3164EE553E066E170E067
:1040D00090E080E00E94F31648E453E06FE170E066
:1040E00084E190E00E94F3160E940E120E94D71500
:1040F0006CE271E080E090E00E94230980E00E9481
:10410000451B84E046CF8091AD02811131C0809182
:10411000B002882369F182ED94E00E94B11681E932
:1041200098E00E94E70E49EA53E06AE070E090E010
:1041300080E00E94F31689EB94E00E94E70EE09184
:10414000AF02EE0FFF0BED57FE4F408151816AE049
:1041500070E083E590E00E94F31644E953E066E1E5
:1041600070E090E080E00E94F3164EE753E0B6CF97
:1041700080E00E94451B87E00CCF6091AF0290E089
:1041800080E00E949B168AB18C6F8AB98BB18C61DA
:104190008BB984B18F6384B988B1807F88B987B1C6
:1041A000807F87B998E09093AC021092AB02109296
:1041B000A9021092AA028091AF0285300CF098C03B
:1041C000409887B18C7F826087B98091AF0282303E
:1041D00009F483C00CF076C0882309F47AC087EE16
:1041E00093E00197F1F700C0000090E080E00E94AA
:1041F000E41388E090E05A985A9A0197E1F76CE549
:1042000074E0CE0101960E94AA1B8091AF0221E0CA
:1042100030E041E050E085300CF07AC061E070E0C1
:10422000CE0101960E94BB1A61E070E0CE010196BA
:104230000E94501A582E8111A5C06FE474E0CE017F
:1042400001960E94AA1B8091AF0222E030E041E07B
:1042500050E085300CF00AC261E070E0CE010196BA
:104260000E94BB1A81E090E00E94C614D12CC12CA0
:104270008090AC02082C000C99088C149D040CF062
:1042800054C06801082C02C0CC0CDD1C0A94E2F773
:10429000F3E0EF2EF12CEC14FD040CF0CAC482E024
:1042A00090E0881599050CF0ABC49801082E02C067
:1042B000220F331F0A94E2F7E216F30609F4D2C183
:1042C0000196EFCF833071F0843009F088CF89E018
:1042D00001C087E08093AC0282CF4092AB02109283
:1042E000AA027DCF4092AB0280E88093AA0277CFEA
:1042F00087B1807F87B98091AF02853019F0873010
:1043000031F36DCF82E08093AB024092A90267CF78
:104310006FE070E0CE0101960E94BB1A6FE070E082
:10432000CE0101960E94E51985CF50E040E070E093
:1043300060E0C8010C2C02C0880F991F0A94E2F7B4
:10434000959587950E94A714F12CE12C58010E2C0D
:1043500002C0AA0CBB1C0A94E2F7B594A79470E0C3
:1043600060E0C5010E941714892B09F458C10E940E
:104370001B1550E040E0B501CE0101960E944D1999
:10438000552453948091AF0285300CF009C3F12C71
:10439000E12C17015FEF251A350A511051C069E36E
:1043A00074E0CE0101960E94AA1B22E030E0A10138
:1043B000B701CE0101960E94BB1A912C812C8091ED
:1043C000AC029091AB02282F291B922F980102C0BA
:1043D000220F331F9A95E2F7821693068CF56090B0
:1043E000AA02062C000C7708682879289091A90267
:1043F00002C0660C771C9A95E2F7580102C0AA0C1D
:10440000BB1C8A95E2F7D12CC12CCA14DB040CF03A
:10441000C3C2A701B301C6010E94A714B301C6011C
:104420000E941714E816F90609F4B0C20E941B1581
:10443000A401B601CE0101960E944D195524539452
:10444000EE24E394F12C82E02816310409F0A1CF88
:104450008091AF0285300CF033C3F12CE12C370191
:104460002FEF621A720A51105DC062E274E0CE0151
:1044700001960E94AA1B22E030E0A301B701CE0101
:1044800001960E94BB1AC7010E94C61463E174E042
:10449000CE0101960E94AA1B22E030E0A301B701E1
:1044A000CE0101960E94BB1AD12CC12C8091AC0286
:1044B0009091AB02382F391B932F980102C0220F25
:1044C000331F9A95E2F7C216D30664F52090AA022C
:1044D000022C000C33082C283D289091A90202C020
:1044E000220C331C9A95E2F7580102C0AA0CBB1C9F
:1044F0008A95E2F7912C812C8A149B040CF0DCC283
:10450000B101C4010E9417148E159F0509F4D0C291
:104510000E941B15A601B401CE0101960E944D19FF
:1045200055245394EE24E394F12C82E06816710430
:1045300009F095CF51101CC068EE73E0CE010196D2
:104540000E94AA1B8091AF0221E030E041E050E0E0
:1045500070E060E085300CF048C3CE0101960E9407
:10456000BB1A70E060E0CE0101960E94501A582EEE
:1045700078940E941B155110C1CD789482ED94E07F
:104580000E94B11681E998E00E94E70E41EE53E0E7
:104590006AE070E090E080E00E94F31689EB94E01E
:1045A0000E94E70EE091AF020E2E000CFF0BED56BD
:1045B000FE4F80811F928F9327ED33E03F932F931F
:1045C0001F9286E18F931F921F920E94C616E09160
:1045D000AF02EE0FFF0BED57FE4F4081518166E1B8
:1045E00070E088E290E00E94F3160FB6F894DEBF08
:1045F0000FBECDBF8091AF02853074F08091B102C3
:1046000040ED53E0811102C049EC53E066E170E0F7
:104610008BE490E00E94F31643EB53E05FCD9FEFF5
:10462000E91AF90ACE14DF040CF090CE8E149F0420
:10463000ACF058010E2C02C0AA0CBB1C0A94E2F785
:10464000B594A79470E060E0C5010E94171401972B
:1046500009F08DCE2FEFE21AF20AE8CF3FEFC31A2E
:10466000D30A06CE4FEFE41AF40A15CE6FE070E0DD
:10467000CE0101960E94BB1A8FE090E00E94521476
:10468000D12CC12C8090AC02082C000C99088C1401
:104690009D040CF56801082C02C0CC0CDD1C0A94AA
:1046A000E2F733E0E32EF12CEC14FD040CF0C1C270
:1046B00082E090E0881599050CF0B0C29801082EB0
:1046C00002C0220F331F0A94E2F7E216F30609F440
:1046D000ACC20196EFCF50E040E070E060E0C8016E
:1046E0000C2C02C0880F991F0A94E2F795958795C4
:1046F0000E943014F12CE12C58010E2C02C0AA0C9F
:10470000BB1C0A94E2F7B594A79470E060E0C50181
:104710000E94F913892B09F02ACE5FEFE51AF50AFA
:10472000CE14DF044CF78E149F04ACF058010E2C0D
:1047300002C0AA0CBB1C0A94E2F7B594A79470E0DF
:1047400060E0C5010E94F9130F9709F010CE8FEFBA
:10475000E81AF80AE8CF9FEFC91AD90A93CF22E0E6
:1047600030E042E050E061E070E0CE0101960E944E
:10477000BB1A81E090E00E94C614D12CC12CE090BD
:10478000AC020E2C000CFF088091AB02E81AF10875
:1047900087FDF394EC14FD040CF558010E2C02C0B7
:1047A000AA0CBB1C0A94E2F7F3E0CF2ED12CCA145A
:1047B000DB040CF0E7CD82E090E08E159F050CF055
:1047C00081C29801082E02C0220F331F0A94E2F71B
:1047D000C216D30609F46CC00196EFCFA090AA02CE
:1047E0000A2C000CBB088091A902282E082E000C70
:1047F0003308B8010C2C02C0660F771F0A94E2F749
:10480000759567956A297B2902C0660F771F8A957F
:10481000E2F750E040E090E080E00E94A714912C85
:10482000812C3801082C02C0660C771C0A94E2F730
:1048300075946794B50166297729022C02C0660F2A
:10484000771F0A94E2F790E080E00E941714892B0A
:1048500031F00E941B15A30170E060E08DCD3FEFA9
:10486000831A930AC814D904E4F6E814F904E4F0AE
:104870003801082C02C0660C771C0A94E2F7759484
:104880006794B50166297729022C02C0660F771F4D
:104890000A94E2F790E080E00E9417140197C9F6AD
:1048A0004FEF841A940AE1CF5FEFC51AD50A67CF9C
:1048B0008FEFC81AD80A7BCFA090AA020A2C000C4E
:1048C000BB088091A902282E082E000C3308B801DD
:1048D0000C2C02C0660F771F0A94E2F77595679556
:1048E0006A297B2902C0660F771F8A95E2F750E09C
:1048F00040E090E080E00E943014912C812C38013F
:10490000082C02C0660C771C0A94E2F77594679431
:10491000B50166297729022C02C0660F771F0A9419
:10492000E2F790E080E00E94F913892B31F00E94B9
:104930001B15A3016FEF7FEF1FCD9FEF891A990A17
:10494000C814D904E4F68E149F04E4F43801082C4A
:1049500002C0660C771C0A94E2F775946794B5015F
:1049600066297729022C02C0660F771F0A94E2F7A6
:1049700090E080E00E94F9130F97C9F62FEF821A9A
:10498000920AE1CF3FEFC31AD30A6EC131E0E326AA
:104990004FEFC41AD40A39CD5FEF851A950A0FCDAF
:1049A00088E0E0E0F1E0DE01509601900D928A95FA
:1049B000E1F78091B102882309F46EC082E0912C66
:1049C000812CA82EB12C8A149B040CF041CD9FEFB2
:1049D000891A990A5110F7CFF401319720E130E09C
:1049E0002C0F3D1FE20FF31F608060E374E0CE01E7
:1049F00001960E94AA1B662D70E09501A401CE01CC
:104A000001960E94BB1A362D3F70632E712CD12C5B
:104A1000C12C8091AC029091AB02482F491B9801A8
:104A200002C0220F331F4A95E2F7C216D3065CF686
:104A30002090AA02022C000C33082C283D289091CB
:104A4000A90202C0220C331C9A95E2F7980102C019
:104A5000220F331F8A95E2F7398F288FF12CE12C32
:104A6000488D598DE416F506FCF4A301B101C70188
:104A70000E943014B101C7010E94F913681679062B
:104A800069F00E941B15A601B701CE0101960E9494
:104A90004D195524539497CF88E091CF5FE0652658
:104AA0008FEFE81AF80ADCCF9FEFC91AD90AB1CF05
:104AB0004FEF841A940A20CD5FEFC51AD50AF6CCC1
:104AC00086E0E8E0F1E0DE01509601900D928A95D3
:104AD000E1F78091B102882309F47DC082E0F12CD6
:104AE000E12C282E312CE214F3040CF023CD9FEF9F
:104AF000E91AF90A5110F7CFF701319720E130E0B8
:104B00002C0F3D1FE20FF31FC080D12C9101A70194
:104B1000B601CE0101960E94BB1A65E074E0CE0199
:104B200001960E94AA1B9101A701B601CE01019630
:104B30000E94BB1AC6010E94521466EF73E0CE01B8
:104B400001960E94AA1B9101A701B601CE01019610
:104B50000E94BB1A712C612C2091AC028091AB0297
:104B6000322F381BA80102C0440F551F3A95E2F7B7
:104B7000641675060CF0B7CF8091AA02082E000CBF
:104B8000990B862997293091A902AC0102C0440FE4
:104B9000551F3A95E2F7598F488F480102C0880C9B
:104BA000991C2A95E2F7B12CA12CA814B904CCF4D5
:104BB000688D798DC5010E94F913C816D90669F070
:104BC0000E941B15A301B501CE0101960E944D194B
:104BD0005524539488CF86E082CF5FEFA51AB50A9B
:104BE000E4CF8FEF681A780AB7CFCE0101960E9402
:104BF000BB1A70E060E0CE0101960E94E519B7CCC7
:104C000070E060E0C7010E941714019709F42ACDF3
:104C10000E941B1550E040E0B701AECB70E060E0B1
:104C2000C7010E94F9130F9799F72FEFE21AF20AC2
:104C30003BCD62E474E0CE0101960E94AA1B8091F4
:104C4000AF0285300CF48BCD22E030E042E050E042
:104C50006FE070E0CE0101960E94BB1A8FE090E0F9
:104C60000E945214D12CC12CE090AC020E2C000CEE
:104C7000FF088091AB02E81AF10887FDF394CE1487
:104C8000DF040CF419CE58010E2C02C0AA0CBB1C78
:104C90000A94E2F753E0C52ED12CCA14DB040CF0C1
:104CA00071CB82E090E08E159F052CF59801082EBF
:104CB00002C0220F331F0A94E2F7C216D30679F11D
:104CC0000196F1CF6091AA02062E000C770B6C2999
:104CD0007D298091A90202C0660F771F8A95E2F7AD
:104CE00090E080E00E941714019709F4E1CD0E9442
:104CF0001B15A601B1CD6091AA02062E000C770B00
:104D00006C297D298091A90202C0660F771F8A95C0
:104D1000E2F790E080E00E94F9130F9741F74FEF20
:104D2000C41AD40ABACFF11080C85DED851655E0DB
:104D30009506A104B10408F478C88091B2028230CB
:104D400009F4F0C80CF0CCC8882309F4E0C881301D
:104D500009F06BC89091B00289278093B002DDC83A
:104D6000F11063C88DED881685E09806A104B104A2
:104D700008F45BC881E00E94451B86E00AC9FB017C
:104D8000DC014150504048F005900D920020C9F7D9
:104D900001C01D9241505040E0F70895AEE0B0E0F0
:104DA000E4EDF6E20C949C298C01FA018EE08C83F0
:104DB0001A83098377FF02C060E070E861507109CF
:104DC0007E836D83A901BF01CE0101960E94FA2660
:104DD0004D815E8157FD0AC02F81388542175307E8
:104DE0000CF49A01020F131FF80110822E96E4E0D2
:104DF0000C94B829ABE0B0E0E0E0F7E20C948E2927
:104E00007C013B018A01FC0117821682838181FFAC
:104E1000C8C1CE0101965C01F7019381F30193FDB6
:104E2000859193FF81913F01882309F453C1853215
:104E300039F493FD859193FF81913F01853229F4E7
:104E4000B70190E00E94EA28E7CF912C212C312C69
:104E5000FFE1F31538F08B3211F190F4803209F153
:104E6000833229F137FC3CC020ED280F2A3050F561
:104E700036FE20C08AE0989E200D1124922E06C096
:104E80008D3291F0803371F7689430F8F30193FD1F
:104E9000859193FF81913F018111DACF21C0689400
:104EA00031F8689432F8F2CF689433F8EFCF689411
:104EB00034F8ECCFEAE02E9E200D1124222E6894C7
:104EC00035F8E4CF8E3229F436FC04C1689436F804
:104ED000DDCF8C3619F4689437F8D8CF8836B1F224
:104EE000982F9F7D95549330E0F08336A1F183375E
:104EF000C1F1833509F063C02801F2E04F0E511C67
:104F0000F801C080D180692D70E036FC02C06FEFDF
:104F10007FEFC6010E94D4284C01689437F88201C3
:104F20000AC00C5F1F4FFFE3F98388248394912C00
:104F30006501E89437F833FE2DC0522C811491049A
:104F400071F5552009F468CFB70180E290E00E9426
:104F5000EA285A94F6CFF801808189830E5F1F4FAB
:104F6000E4CF2801F2E04F0E511CF801C080D1803F
:104F7000692D70E036FC02C06FEF7FEFC6010E9422
:104F8000DF284C018201D5CFB70180E290E00E947A
:104F9000EA282A942814190409F0B0F7CECFF601B4
:104FA00037FC859137FE81916F01B70190E00E9437
:104FB000EA2851105A94F1E08F1A9108BFCF843635
:104FC00019F0893609F077C0F80137FE6BC06081AF
:104FD0007181828193810C5F1F4FF32DFF763F2EED
:104FE00097FF09C090958095709561957F4F8F4F81
:104FF0009F4F689437F82AE030E0A5010E941A29F3
:10500000C82ECA188C2C432C36FE0CC0E89440F8ED
:10501000C91440F434FE05C032FC03C0F32DFE7EFB
:105020004F2E892C44FE95C0FE01EC0DF11D8081B0
:10503000803309F087C0242D297E422E842D88706C
:10504000582E43FC95C040FE8FC09C2C821418F44F
:105050002C0C922C981844FE91C0B70180E390E08C
:105060000E94EA2842FE09C088E790E041FE02C0A3
:1050700088E590E0B7010E94EA28C91408F48AC0C4
:10508000CA94D12C9FEFC91AD90ACA0CDB1CF601AD
:1050900082916F01B70190E00E94EA28AC14BD0430
:1050A000B1F74FCF60817181072E000C880B990BEF
:1050B0000E5F1F4F92CFD32CE894D4F82AE030E053
:1050C000853739F1232D297FD22E8F3601F148F40F
:1050D0008835A9F0F701868197812B96E2E10C943F
:1050E000AA29803749F08837A9F7D4FE02C068940E
:1050F000D2F820E130E00DC06894D4F8F6CF34FE49
:1051000003C0822F8660D82E20E132E002C028E062
:1051100030E0F801D7FE0FC06081718182819381F8
:105120000C5F1F4FA5010E941A29C82ECA183D2CDA
:10513000E89437F867CF6081718190E080E00E5F7E
:105140001F4FF0CF42FC02C0839478CF83948394A6
:1051500075CF842D867809F471CFF6CFB70180E240
:1051600090E00E94EA2883948214C0F3512C73CFFC
:10517000522C5818821408F46ECFF8CF842D8678FC
:1051800009F47BCF8BE241FE80E247FC8DE2B70160
:1051900090E071CFB70180E390E00E94EA289A94F2
:1051A0006CCF8FEF9FEF99CFFC010590615070405D
:1051B0000110D8F7809590958E0F9F1F0895FC01E0
:1051C0006150704001900110D8F7809590958E0F36
:1051D0009F1F08950F931F93CF93DF93182F092FCD
:1051E000EB018B8181FD09C01FEF0FEF812F902F05
:1051F000DF91CF911F910F91089582FF14C02E81EE
:105200003F818C819D81281739073CF4E881F98121
:10521000CF0101969983888310838E819F810196A7
:105220009F838E83E3CFE885F985812F0995892BAC
:10523000A1F3DACFFA01AA27283051F1203181F108
:10524000E8946F936E7F6E5F7F4F8F4F9F4FAF4F8E
:10525000B1E03ED0B4E03CD0670F781F891F9A1FA1
:10526000A11D680F791F8A1F911DA11D6A0F711D55
:10527000811D911DA11D20D009F468943F912AE061
:10528000269F11243019305D3193DEF6CF01089549
:10529000462F4770405D4193B3E00FD0C9F7F6CF7A
:1052A000462F4F70405D4A3318F0495D31FD405242
:1052B000419302D0A9F7EACFB4E0A69597958795D8
:1052C00077956795BA95C9F70097610571050895B7
:1052D0009B01AC010A2E0694579547953795279563
:1052E000BA95C9F7620F731F841F951FA01D0895FB
:1052F000F999FECF92BD81BDF89A992780B508959E
:10530000262FF999FECF1FBA92BD81BD20BD0FB6E1
:10531000F894FA9AF99A0FBE019608952F923F9247
:105320004F925F926F927F928F929F92AF92BF92B5
:10533000CF92DF92EF92FF920F931F93CF93DF9361
:10534000CDB7DEB7CA1BDB0B0FB6F894DEBF0FBEBE
:10535000CDBF09942A88398848885F846E847D840B
:105360008C849B84AA84B984C884DF80EE80FD800D
:105370000C811B81AA81B981CE0FD11D0FB6F89483
:10538000DEBF0FBECDBFED0108955058BB27AA2741
:105390000E94DD290C94572B0E94492B38F00E9463
:1053A000502B20F039F49F3F19F426F40C94462B2F
:1053B0000EF4E095E7FB0C94402BE92F0E94682B3C
:1053C00058F3BA17620773078407950720F079F43A
:1053D000A6F50C948A2B0EF4E0950B2EBA2FA02D77
:1053E0000B01B90190010C01CA01A0011124FF2792
:1053F000591B99F0593F50F4503E68F11A16F0408D
:10540000A22F232F342F4427585FF3CF469537958B
:105410002795A795F0405395C9F77EF41F16BA0B50
:10542000620B730B840BBAF09150A1F0FF0FBB1FFE
:10543000661F771F881FC2F70EC0BA0F621F731F47
:10544000841F48F4879577956795B795F7959E3FA4
:1054500008F0B0CF9395880F08F09927EE0F979535
:10546000879508950E941C2B08F481E008950E94FE
:105470004B2A0C94572B0E94502B58F00E94492B1A
:1054800040F029F45F3F29F00C94402B51110C940B
:105490008B2B0C94462B0E94682B68F39923B1F355
:1054A000552391F3951B550BBB27AA27621773074A
:1054B000840738F09F5F5F4F220F331F441FAA1FDE
:1054C000A9F335D00E2E3AF0E0E832D0915050409A
:1054D000E695001CCAF72BD0FE2F29D0660F771F48
:1054E000881FBB1F261737074807AB07B0E809F02E
:1054F000BB0B802DBF01FF2793585F4F3AF09E3FB3
:10550000510578F00C94402B0C948B2B5F3FE4F307
:10551000983ED4F3869577956795B795F7959F5FF5
:10552000C9F7880F911D9695879597F90895E1E041
:10553000660F771F881FBB1F621773078407BA07A0
:1055400020F0621B730B840BBA0BEE1F88F7E095FB
:1055500008950E94B02A6894B1110C948B2B089581
:105560000E94702B88F09F5798F0B92F9927B75158
:10557000B0F0E1F0660F771F881F991F1AF0BA95F7
:10558000C9F714C0B13091F00E948A2BB1E00895A0
:105590000C948A2B672F782F8827B85F39F0B93F92
:1055A000CCF3869577956795B395D9F73EF49095AA
:1055B0008095709561957F4F8F4F9F4F0895E89428
:1055C00009C097FB3EF490958095709561957F4F4B
:1055D0008F4F9F4F9923A9F0F92F96E9BB279395F9
:1055E000F695879577956795B795F111F8CFFAF409
:1055F000BB0F11F460FF1BC06F5F7F4F8F4F9F4F3A
:1056000016C0882311F096E911C0772321F09EE897
:10561000872F762F05C0662371F096E8862F70E0FD
:1056200060E02AF09A95660F771F881FDAF7880FD7
:105630009695879597F90895990F0008550FAA0B2D
:10564000E0E8FEEF16161706E807F907C0F0121695
:105650001306E407F50798F0621B730B840B950B98
:1056600039F40A2661F0232B242B252B21F40895ED
:105670000A2609F4A140A6958FEF811D811D08958A
:1056800097F99F6780E870E060E008959FEF80ECF5
:10569000089500240A941616170618060906089598
:1056A00000240A9412161306140605060895092EFE
:1056B0000394000C11F4882352F0BB0F40F4BF2B6D
:1056C00011F460FF04C06F5F7F4F8F4F9F4F0895AD
:1056D00057FD9058440F551F59F05F3F71F04795A3
:1056E000880F97FB991F61F09F3F79F08795089588
:1056F000121613061406551FF2CF4695F1DF08C0A7
:10570000161617061806991FF1CF869571056105C3
:1057100008940895E894BB2766277727CB0197F96B
:1057200008950E941C2B08F48FEF08950E94A92B66
:105730000C94572B0E94492B38F00E94502B20F0DC
:10574000952311F00C94402B0C94462B11240C94AF
:105750008B2B0E94682B70F3959FC1F3950F50E03F
:10576000551F629FF001729FBB27F00DB11D639F13
:10577000AA27F00DB11DAA1F649F6627B00DA11DB9
:10578000661F829F2227B00DA11D621F739FB00D5F
:10579000A11D621F839FA00D611D221F749F3327CF
:1057A000A00D611D231F849F600D211D822F762F68
:1057B0006A2F11249F5750409AF0F1F088234AF045
:1057C000EE0FFF1FBB1F661F771F881F91505040B1
:1057D000A9F79E3F510580F00C94402B0C948B2B25
:1057E0005F3FE4F3983ED4F3869577956795B79538
:1057F000F795E7959F5FC1F7FE2B880F911D969552
:10580000879597F9089597FB072E16F4009407D013
:1058100077FD09D00E944A2C07FC05D03EF49095F4
:1058200081959F4F0895709561957F4F0895A1E2EE
:105830001A2EAA1BBB1BFD010DC0AA1FBB1FEE1F0A
:10584000FF1FA217B307E407F50720F0A21BB30B55
:10585000E40BF50B661F771F881F991F1A9469F7D1
:1058600060957095809590959B01AC01BD01CF012D
:105870000895EE0FFF1F0590F491E02D09940E940A
:105880005E2CA59F900DB49F900DA49F800D911D3F
:1058900011240895AA1BBB1B51E107C0AA1FBB1FFF
:1058A000A617B70710F0A61BB70B881F991F5A95AC
:1058B000A9F780959095BC01CD010895A29FB001F4
:1058C000B39FC001A39F700D811D1124911DB29F34
:1058D000700D811D1124911D0895DC0101C06D938F
:1058E00041505040E0F70895F894FFCF000F050AAB
:1058F0000C030906050A0C0309069D0097008D009C
:1059000082007B0075006F0068001815A015C01993
:10591000FF1815A115C819FF1815AE19FF1815AFF6
:1059200019FF1815AE15D5168015A8161F15D31614
:10593000001540158D16141520160015A115C81553
:10594000DA16021581168F15D916F115DB164015DA
:105950002E15A415A619FF0001140A646432320042
:10596000127A00000428961004000080002000CC69
:1059700000C700C000B900B300AE00A900A300003A
:105980000101010102020300000000150AE809609C
:1059900016BE09E109CE09BF09000000000C16E49B
:0C59A0001560165F16340CBF0C240C00C0
:107800000C94343C0C94513C0C94513C0C94513CE1
:107810000C94513C0C94513C0C94513C0C94513CB4
:107820000C94513C0C94513C0C94513C0C94513CA4
:107830000C94513C0C94513C0C94513C0C94513C94
:107840000C94513C0C94513C0C94513C0C94513C84
:107850000C94513C0C94513C0C94513C0C94513C74
:107860000C94513C0C94513C11241FBECFEFD8E036
:10787000DEBFCDBF11E0A0E0B1E0ECE9FFE702C060
:1078800005900D92A230B107D9F712E0A2E0B1E065
:1078900001C01D92AD30B107E1F70E942D3D0C945F
:1078A000CC3F0C94003C982F959595959595959582
:1078B000905D8F708A307CF0282F295A8091C0000B
:1078C00085FFFCCF9093C6008091C00085FFFCCF60
:1078D0002093C6000895282F205DF0CF982F809127
:1078E000C00085FFFCCF9093C6000895EF92FF92F1
:1078F0000F931F93EE24FF2487018091C00087FD22
:1079000017C00894E11CF11C011D111D81E4E8164B
:1079100082E4F8068FE0080780E0180770F3E09132
:107920000401F091050109958091C00087FFE9CF1E
