:100000000C948C070C94B4070C94B4070C94B407AC
:100010000C94B4070C94B4070C94B4070C94B40774
:100020000C94B4070C94B4070C94B4070C94B40764
:100030000C94B4070C94B4070C94B4070C94B40754
:100040000C94021D0C94B4070C94B4070C94B407E0
:100050000C94B4070C94B4070C94B4070C94B40734
:100060000C94E31B0C94B4073235364B78340036CD
:10007000344B78340031364B7834003235364B7897
:10008000310033324B78312D486967680033324B89
:1000900078312D4C6F770036344B78310031364B48
:1000A0007831003434323536003434363400343468
:1000B000313600343132353600343533322D3400A8
:1000C000343533322D330034313634003431313667
:1000D0000052656C6561736520427574746F6E20A3
:1000E000746F2053746172742E00536F636B657468
:1000F0002531640078312F7834004452414D2D541D
:1001000065737465720056616C75653D25315820C4
:1001100050726F67726573733D25642F25640053B9
:1001200074726963740053706565647900536F631A
:100130006B65742531640050726573732042757469
:10014000746F6E20746F20457869742E006F6E2076
:1001500025303358202530335800536F636B657456
:10016000253164004641494C4544002A4E6F7420B5
:10017000736176656420756E6C657373206578694C
:10018000742E005361766520616E64204578697431
:10019000002A4F6E6C79206578697420627920722C
:1001A000657365742E005669657720427574746FA7
:1001B0006E202620506F7765723556002A4F6E6C80
:1001C0007920657869742062792072657365742E70
:1001D000005669657720506F776572313256002A74
:1001E00053657474696E672077696C6C2062652052
:1001F000657869742E0045726173652045455052DB
:100200004F4D002A5465737473206D6179206265C7
:1002100020696E61636375726174652E00004967C1
:100220006E6F726500436865636B00506F7765722F
:10023000355620566F6C746167653A005374726965
:100240006374005370656564790034626974204496
:1002500052414D20546573743A00302E302E3000D8
:100260004452414D2D54657374657200457261733B
:10027000696E672E2E2E005072657373204275745E
:10028000746F6E20746F20457869742E004572611A
:10029000736520636F6D706C6574652E0045455005
:1002A000524F4D00566F6C746167653A2532642E6B
:1002B00025316456206572723A252B32642E253121
:1002C0006425250056616C756541373A25346420F4
:1002D00065727235563A252B32642E2531642525F8
:1002E000003132562043686B2E0042616400476F34
:1002F0006F6400566F6C746167653A2531642E2512
:10030000316456206572723A252B32642E25316491
:1003100025250056616C756541363A2534642025E3
:10032000630042746E20262035562043686B2E00F1
:10033000000000002300260029005072657373201E
:10034000427574746F6E20746F20457869742E0046
:1003500041646A7573746D656E7420726571756938
:100360007265642E004661696C6564203132560006
:10037000507265737320427574746F6E20746F20B1
:10038000457869742E0041432D4164617074657233
:100390002072657175697265642E004661696C65CD
:1003A0006420355600507265737320427574746F03
:1003B0006E20746F20457869742E005374726963DF
:1003C000740053706565647900536F636B657425C1
:1003D0003164005041535345440046696E69736867
:1003E000696E67546573740046756C6C54657374FC
:1003F0005665726966790046756C6C5465737457FE
:10040000726974650046756C6C54657374566572D8
:100410006966790046756C6C5465737457726974BB
:100420006500576F72645465737400576F7264543B
:1004300065737400416472735465737420436F6C08
:1004400000416472735465737420526F7700537463
:10045000617274696E675465737400000000002453
:100460000027002A0000000000250028002B0004BF
:10047000040404040404040202020202020303034B
:100480000303030102040810204080010204081045
:1004900020010204081020000000080002010000F2
:1004A00003040700000000000000005F02030203D5
:1004B00004010104050800FF06FF06000140028E4A
:1004C00003BB2006C5FABC022108C5FA613B9403B0
:1004D000220AC5DA49944449CE00230DC53AA52421
:1004E0001994CAA0949218240BC55AD952DB92646D
:1004F000CB01250AC5DA619255C21C04260DC53A06
:1005000059122559254AB224062707C5FA619D05C7
:100510002808C5FA59D89A032909C5DA69D8962353
:10052000002A0BC5FA581449432495012B0AC5FA31
:1005300068180D5298032C07C5FACC5A0D2D08C522
:10054000FAE42127012E08C5FACCD916012F0AC5D5
:10055000FA489835E61000300CC5FA5912255112A8
:1005600025590E3108C5FA99D83603320AC5DA5230
:100570003192C22106330BC5BA4396A94914E9004A
:10058000340BC5FA9994444316E600350BC5BA43BB
:1005900012AE4914E900360AC5DA523855A24807A6
:1005A000370BC5BA43988559982300380AC5DA52E3
:1005B00049AA44910E390AC5DA52258AC648073A33
:1005C00009C5FAA0A6239A0E3B09C5FAA8A6235A84
:1005D0000D3C09C5FA48564CCB003D09C5FA94219B
:1005E0001E72103E09C5DA6931AB23003F0AC5FA15
:1005F000591266399403400CC55A52242D899248E9
:100600005505410CC5DA52254A86244AA218420AE9
:10061000C5BA5365AA44C90E430AC5DA52252C450A
:100620003A00440CC5BA53254AA2244A7600450B29
:10063000C5BA43124E6138C400460AC5BA43124EC9
:10064000611D02470BC5DA52254C9428D201480E91
:10065000C5BA5112254312255112C5004908C5DA01
:100660005BD836034A0AC5DA5B584AB21C014B0C08
:10067000C5BA5152D2922889CA004C08C5BA61C77E
:1006800021064D0EC5BA5132244312255112C50020
:100690004E0EC5BA51A2244392288912C5004F0CB0
:1006A000C5DA52254AA2248A7400500BC5BA5325D4
:1006B0004AA6308700510CC5DA52254A948AA426EE
:1006C00000520BC5BA53254AA64A14035309C5DA8A
:1006D000526B54D2015407C5DA5BD81D550DC5BA0B
:1006E00051122551122551A403560CC5BA51122599
:1006F0005112459A0E570EC5BA5112255132244354
:1007000012C500580CC5BA5112459A548962005955
:100710000AC5BA9996D4C23A005A0AC5BA4398355E
:100720000E31005B08C5DA53D838035C08C5BA61DE
:10073000DA18035D07C5DA63A7195E08C5FA59928E
:10074000B3025F07C5FADC87046007C5DA69CE0C1F
:10075000610AC5FAA4254AA26806620AC5BA6138C8
:1007600055A264076309C5FA34294C6500640CC5B9
:10077000FA48182D51124533006509C5FA2429316C
:10078000EA00660BC5FA5912655B982300670AC533
:10079000FA24A934461200680BC5BA613855A22460
:1007A0008A016909C5FA3922D666006A0BC5FA487A
:1007B0000E85A5248B006B0AC5BA6129992A510CB4
:1007C0006C07C5DA62B7196D0BC5FA14A5454994D3
:1007D0002A006E0AC5FA94A91225510C6F0AC5FAAF
:1007E00024A912453A00700AC5FA94A9328521005D
:1007F000710AC5FAA4258AC60A00720AC5FA94923B
:1008000052CC21007309C5FA34498D7400740AC5AD
:10081000DA61B685499603750BC5FA942889922842
:100820009A01760BC5FAA4244AA224CB01770AC503
:10083000FA944C4994CE00780AC5FA9428D2A4328E
:1008400000790CC5FA942889A2258A24007A0AC561
:10085000FA9421AB0D31007B0AC55A521AA9592AC4
:10086000037C07C5FA61EF007D0BC51A6A964A69D9
:10087000A423007E08C5DA493B330000000004FFD2
:10088000FF00005F0204020404010305090F00FDDC
:100890000AFD0BFF0214046306752006F9939F7F7F
:1008A000210BF9933BD8F7D8609E02220DF9931FD4
:1008B00016494552913C9F002315F9931F1E494547
:1008C0004283512415090D469154244F092415F9EA
:1008D000931F171B68229D2572BB442CD2CD4096D6
:1008E000C701251AF9931F158A242299442414C993
:1008F000057391502491892422A13C1C2617F99359
:100900001F258BA422A9484CA78954648A22899068
:10091000268F06270AF9931F17ACE72300280EF944
:10092000933D17CC057B194CE66100290EF99339EC
:10093000194C067B17CCE581002A12F9931F978A80
:10094000D424AA56899A48559E35002B0EF9939FB8
:1009500034583518A482F5A4002C0BF9939F8F749A
:10096000C2BA10002D0BF9939FA3C120CF11002E06
:1009700009F9939F8F747A022F0FF9931F9A0BE650
:100980000A7385B93C11003015F9931FB6CA544556
:10099000529154241549455299AA3D013110F993B9
:1009A0001F979325529160AF06833C1A3211F99339
:1009B0001F35D0A422A95C1F0E067934003312F92A
:1009C000931F3418047375CB60492A33D0C30134A4
:1009D00014F9931F999325529150A6283318E48255
:1009E000F570003514F9931F3418448215838C2850
:1009F000D8249519E8E1003616F9931F3608E582E8
:100A000015838C28928AA422A9CC400F073712F9AB
:100A1000931F34180473C15C3017CC05F3240038DD
:100A200012F9931FB6CA5465AA5699AA482A53B513
:100A3000273915F9931F35D0A422A9482A12D20CC0
:100A400012C1BAD0204F3A0BF9939F914E4FA4D3C5
:100A5000133B0DF9939F914E4FA413D685003C0B89
:100A6000F9931F99EB30D93D1C3D0EF9939FE96036
:100A700090470D067916003E0CF9931F95EC30D780
:100A80003D0D003F11F9931F35D0A422A960AE613E
:100A90001E92A700401AF9931F35D0A422A94864DA
:100AA00010496422898824A2880493033D1C4117BD
:100AB000F9931F5791CA5445529154643088A42227
:100AC000A9482A8F064216F9931F3410D5A422A1F3
:100AD000CC4054938AA422A1CC404F4310F9931FD9
:100AE00035D0A422C1BECA0CF470004417F9931F7C
:100AF0003410D5A422A9482A928AA422A9482833CE
:100B0000D0134512F9931F34184482850351B0E184
:100B1000609047034610F9931F34184482850351AF
:100B2000B07B22004715F9931F35D0A422C136931C
:100B30005424154965067A3800481AF9931F948A97
:100B4000A422A9482A3218445291542415494552E6
:100B5000793400490DF9931F359005FBD9400F07F3
:100B60004A0EF9931F379005FB26141AE4094B1619
:100B7000F9931F948A84324591D42C118BA432A10D
:100B80009A541E0D4C0CF9931F14EC0F07833C1A5A
:100B90004D16F9931F948AA4221A49A249A249BF6B
:100BA0008AA422A93C1A4E19F9931F948AA422A25E
:100BB000482213E926110949529154249547034FBD
:100BC00019F9931F35D0A422A9482A928AA422A9F0
:100BD000482A92CA0CF470005012F9931F34D8A41A
:100BE00022A9482A32D804BB2702511AF9931F358B
:100BF000D0A422A9482A928AA422A94822136933A0
:100C0000D025A5005218F9931F34D8A422A9482A48
:100C100032D8445299504D2A92CAA3015315F993E0
:100C20001F35D0A422A94872A98CA422A9CC400FB8
:100C300007540DF9931F3418A482FD3D0500551982
:100C4000F9931F948AA422A9482A928AA422A94827
:100C50002A92CA0CF470005617F9931F948AA422A2
:100C6000A94C51269449256289582297A700571309
:100C7000F9931F948AA422A9482AD2FF8B36F570D3
:100C8000005815F9931F948AA43255895C3097480F
:100C900065AA22A93C1A5910F9931F948AA43255C7
:100CA000895CB0F714005A10F9931F341804737D4F
:100CB000181C0CF268005B0DF99379900AF60F0787
:100CC0007914005C0EF9931F940C260B9385C93C94
:100CD0001A5D0CF9937710ECBF1AE461005E0CF911
:100CE000931F5791CA54E579075F0BF9939FDF0C67
:100CF000067A10006009F9933959CFC7006113F9DA
:100D0000939FC94019CC0C26A948483348E4D10028
:100D10006216F9931F146C31C88822A9482A928A56
:100D2000882289411E0E6310F9939FC940938A045B
:100D30005B65067A38006417F9931F1AAC192422F0
:100D400021492A928AA42221CD209147036513F9D3
:100D5000939FC940938AA422834124981CE8E10010
:100D60006611F9931FB7CA8432A1606C200BB627B5
:100D7000016718F9939FC9201109654299506810BD
:100D80004A0E34A9482A3390006815F9931F146C51
:100D900031C88822A9482A928AA422A93C1A690D3E
:100DA000F9931FA6470E7B36D0C3016A11F9931F32
:100DB000A8470E7B13CA8432A1D020036B14F99389
:100DC0001F146C15C968122A5D4295D1A4F26800FF
:100DD0006C0CF9931F35ECCF067A38006D0EF99341
:100DE0009FC54213E9FF577934006E15F9939F456B
:100DF0006290114552915424154945527934006F3F
:100E000014F9939FC940938AA422A9482A92CA0C34
:100E1000F470007016F9939F4562901145529154F9
:100E20002415114512834CB00E7116F9939FC920F9
:100E3000110949529154241509690689600B007201
:100E40000EF9939F4564A429CA04DBD3007312F9F9
:100E5000939FC940938A2407CA482A33D0C3017498
:100E60000FF9931F1F8C0D56C16E527B38007515FC
:100E7000F9939F452813CA8432A14C28130A0D12F6
:100E80007934007612F9939F452A92CA14655289E3
:100E9000582297A700770FF9939F452A928AF45F0B
:100EA000B4A987037811F9939F452A5395C855A48F
:100EB00032557934007917F9939F452813CA843243
:100EC000A14C2893112D8299506890017A0EF993C4
:100ED0009FC56090EBDD609047037B0FF9937D1514
:100EE000AC8CE994B960E51E047C09F9933BD8FF0A
:100EF0001E077D0FF9937519AC4BEA64C960D51EC6
:100F0000087E0CF9931FA58974A3E7130000000065
:100F100004FFFF0000004C1D11241FBECFEFD8E0DE
:100F2000DEBFCDBF11E0A0E0B1E0E4E2F9E502C030
:100F300005900D92A03CB107D9F725E0A0ECB1E0F7
:100F400001C01D92A436B207E1F717E0CCE8D7E064
:100F500004C02197FE010E94172ACB38D107C9F798
:100F60000E940F1E0C94902C0C940000662329F014
:100F70006A3019F0862F90E008958FEF9FEF089563
:100F8000AF92BF92CF92DF92EF92FF920F93CF93E7
:100F9000DF93EC01DA017901942F9770E1E0F0E042
:100FA0009F01092E01C0220F0A94EAF7522F6E0109
:100FB0008AE8C80ED11CF601808140E0823018F426
:100FC000422F813049F15D01F8EFAF22E8ADF9AD74
:100FD00028813981D90150968C918A9D90018B9DF1
:100FE000300D1124620F731FDF01A60FB71F01110F
:100FF0001AC0EA0EFB1E8C91842B85278D93AE15AB
:10100000BF05C9F7DF91CF910F91FF90EF90DF906F
:10101000CF90BF90AF90089550E0D5CF440F550FBB
:10102000E114F10479F33C91342B35273C939F5F15
:101030009770E1E0EE1AF1089111F0CF2CAD3DADC3
:10104000A20FB31FF6018081823028F4813009F0AD
:1010500051E041E0E5CF51E0E3CF80E0089590E03A
:1010600080E00895CF93DF93CEECD4E08FAFEAAD6C
:10107000FBAD0190F081E02D82ED94E00995EAADA1
:10108000FBAD0280F381E02D82ED94E0DF91CF9102
:1010900009949B01DC011896ED91FC9141E067E118
:1010A000099420917602260F3327331F2132310510
:1010B000ECF420919C02FC0190E080E0243069F087
:1010C00082E00895A09176022191AC014C5A5D4FC7
:1010D000A40FB52FB11D2C930196861798F380911C
:1010E0007602680F6093760280E0089581E00895AB
:1010F000089508950895E0914B0280914A02E817FF
:1011000030F4F0E0E65DFD4F808190E008958FEFD0
:101110009FEF089590914B0280914A022FEF3FEF8D
:10112000981748F4E92FF0E0E65DFD4F208130E0AC
:101130009F5F90934B02C901089580914A0290915C
:101140004B02891B990B0895CF92DF92EF92FF9289
:101150000F931F93CF93DF937C01CB018A012091E2
:101160002902222389F0EB016B01C40ED51ECC1598
:10117000DD0569F06991D701ED91FC910190F08155
:10118000E02DC7010995F3CF642F0E945108C801D3
:10119000DF91CF911F910F91FF90EF90DF90CF9053
:1011A0000895CF93DF931F92CDB7DEB76983209167
:1011B00029022223F9F020914C02203258F021E03C
:1011C00030E0FC013383228390E080E00F90DF91D8
:1011D000CF91089580914D02E82FF0E0E75FFD4F39
:1011E000998190838F5F80934D0280934C0281E0C0
:1011F00090E0ECCF61E0CE0101960E945108F7CF5C
:10120000833081F028F4813099F08230A9F008957C
:101210008730A9F08830C9F08430B1F48091800023
:101220008F7D03C0809180008F7780938000089528
:1012300084B58F7784BD089584B58F7DFBCF809171
:10124000B0008F778093B00008958091B0008F7DBB
:10125000F9CF1F93CF93DF93282F30E0F901E956A0
:10126000FB4F8491F901ED57FB4FD491F901E159FE
:10127000FB4FC491CC23A9F0162F81110E940009C5
:10128000EC2FF0E0EE0FFF1FEB59FB4FA591B4914F
:101290008FB7F894EC91111108C0D095DE23DC9340
:1012A0008FBFDF91CF911F910895DE2BF8CF109261
:1012B0009C0281E080939E0210929D0261E082E197
:1012C0000E94290961E083E10E942909E9EBF0E02D
:1012D00080818E7F808380818D7F808388E480936E
:1012E000B80085E48093BC000895CF93DF9391E02C
:1012F000909353028823B9F0C091B800D091BA00FE
:101300008091BC008A7B8093BC0060E082E10E94F7
:10131000290960E083E10E9429090E945709D093BE
:10132000BA00C093B800DF91CF910895CF93DF93B7
:1013300090E0FC01ED57FB4F249181599B4FFC013C
:1013400084918823D1F090E0880F991FFC01E55A21
:10135000FB4FA591B491FC01EB59FB4FC591D49182
:10136000623071F49FB7F8943C91822F809583236B
:101370008C93E8812E2B28839FBFDF91CF91089516
:101380008FB7F894EC912E2B2C938FBFF6CF8E5005
:10139000806480937C0080917A00806480937A00DE
:1013A00080917A0086FDFCCF809178009091790041
:1013B000089584E10E94C70921E030E0853A910553
:1013C00014F430E020E0C90108953FB7F89480910B
:1013D000050290910602A0910702B091080226B57D
:1013E000A89B05C02F3F19F00196A11DB11D3FBF5D
:1013F000BA2FA92F982F8827BC01CD01620F711D2C
:10140000811D911D42E0660F771F881F991F4A9525
:10141000D1F708958F929F92AF92BF92CF92DF92B1
:10142000EF92FF926B017C010E94E5094B015C0188
:10143000C114D104E104F104B9F00E94E50968196E
:1014400079098A099B09683E73408105910580F3FB
:1014500021E0C21AD108E108F10888EE880E83E085
:10146000981EA11CB11CE4CFFF90EF90DF90CF90AD
:10147000BF90AF909F908F900895DC011A96ED91E8
:10148000FC9130E020E00994DC011496ED91FC9190
:1014900030E020E040E060E10994DC011696ED9137
:1014A000FC9130E020E040E069E10994DC0116960F
:1014B000ED91FC9130E020E040E068E109949A0170
:1014C000DC011696ED91FC91462F67E10994EF92AD
:1014D000FF920F931F93CF93DF931F92CDB7DEB789
:1014E0007C018B01D8016C91673129F150F4653191
:1014F000A0F40F90DF91CF911F910F91FF90EF908B
:1015000008956A3118F16E3FA1F7F80141814983CE
:1015100069E2C7010E943D0A0BC0F801418149837D
:10152000D7011696ED91FC9130E020E0C7010995B6
:101530000E5F1F4FD7CFF80181818983AE014F5FC6
:101540005F4F61E0C7010E945F0AF2CF0F5F1F4F3C
:10155000D7011696ED91FC9130E020E040E0C70104
:101560000995C0CF462FDC011696ED91FC9130E035
:1015700020E066E10994462FDC011696ED91FC917E
:1015800030E020E065E10994EF92FF920F931F9302
:10159000CF93DF93EC01042F7901693069F48BE676
:1015A00091E0998388831C8A81E0DF91CF911F911C
:1015B0000F91FF90EF9008956D3009F475C038F4E5
:1015C0006A3091F16B3009F468C080E0EECF6E3084
:1015D00009F47DC06F30C9F70E94560AF7011381E4
:1015E000110F110F110F6C89160F612F62956F701B
:1015F0006061CE010E94BB0A612F6F70CE010E9414
:10160000BB0AF7016481606BCE010E94BB0AF7013F
:10161000408151816281660F660F660FCE010E9484
:101620005F0A0150A1F75DC0EA85FB8530E020E04C
:1016300040E068E20995EE81FF8130E020E040E083
:1016400064E1CE01099541E06BE4CE010E943D0AC0
:10165000E881F981448169E2CE010E943D0A40E0BF
:101660006BE4CE010E943D0AE881F981448169E280
:10167000CE010E943D0A41E06BE4CE010E943D0A8A
:10168000E881F981458169E2CE010E943D0A66E365
:1016900071E0CE010E94670A87CF61E371E04423C5
:1016A000C1F36CE271E0F5CF411109C065E271E070
:1016B0000E94670AE881F98182898C8B75CF6EE17F
:1016C00071E00E94670AE881F9818389F6CF0E9460
:1016D000560A61E8CE010E94BB0A602FCE010E942B
:1016E000B20ACE010E944D0A5FCFDC011896ED913F
:1016F000FC9130E020E040E069E10994DC011896BB
:10170000ED91FC9130E020E040E068E10994CF9356
:10171000DF931F92CDB7DEB76983BE016F5F7F4F46
:101720000E9449080F90DF91CF910895EF92FF92A8
:101730001F93CF93DF93EC01162F7A010E947E0B4B
:1017400060E4CE010E94870BE885F9859701412F5F
:1017500067E1CE010995CE01DF91CF911F91FF90F6
:10176000EF900C94750BEF92FF921F93CF93DF9342
:10177000EC01142F7901663181F138F4643109F4F8
:101780004BC0653179F080E022C06831C9F150F179
:101790006931C9F78091E501882391F1CE010E945A
:1017A000750B2EC08091E501882319F0CE010E94AF
:1017B000750BCE010E947E0B60E0CE010E94870B6C
:1017C000612FCE010E94870B81E08093E501DF91BC
:1017D000CF911F91FF90EF900895642F0E94870B87
:1017E00081E0F5CF8091E501882319F0CE010E94B8
:1017F000750BA701193138F4612FCE010E94960BA9
:101800001092E501EDCF68E1CE010E94960B1851D0
:1018100088E1E80EF11CEDCF8E898F3F11F488E747
:101820008E8BE885F9859701412F64E1CE01DF9128
:10183000CF911F91FF90EF9009940F93FC01E05C12
:10184000FF4F0190F081E02D4E1B5F0BDC01D49621
:10185000ED91FC9109950F910895CF93DF93FC01D1
:10186000A081B18182AD90E09C0143E0220F331F43
:101870004A95E1F737AF26AF50962C91509748E044
:10188000249F9001112435AF24AF23AD30E0B9017E
:1018900053E0660F771F5A95E1F7EF01C05CDF4F09
:1018A0007983688351964C915197E901C80FD91FEC
:1018B00050E04C175D0718F4CA01821B930BEF012F
:1018C000CE5BDF4F79836883229623E0880F991FD0
:1018D0002A95E1F7860F971F99838883229654965D
:1018E0008D919C91559799838883E85BFF4F56961D
:1018F0008D919C9191838083DF91CF9108950F9377
:101900001F93FC01E25BFF4F0190F081E02DDC01B1
:10191000A05BBF4F0D90BC91A02D4A175B0740F410
:10192000E017F10748F00417150730F080E019C000
:10193000E017F107C0F3FACFFC01E65BFF4F4081EF
:101940005181845B9F4FFC018081918168177907E9
:1019500058F481E04217530720F081E0261737073B
:1019600028F71F910F91089542175307B0F3DECF68
:101970002F923F924F925F926F927F928F929F929F
:10198000AF92BF92CF92DF92EF92FF920F931F938D
:10199000CF93DF93CDB7DEB72A970FB6F894DEBFAB
:1019A0000FBECDBF9A878987865B9F4F9A838983B5
:1019B000FC0111821082E985FA85EA5BFF4F4080C5
:1019C000518029853A85245B3F4F3C832B83F90165
:1019D00051824082E985FA85EE5BFF4F208031809D
:1019E00029853A85225B3F4F3E832D83F901318261
:1019F0002082E985FA85EC5BFF4F60807180298544
:101A00003A85205B3F4F38872F83F90171826082CE
:101A1000E985FA85E85AFF4FE080F180E985FA858B
:101A2000EC5AFF4FA080B180E985FA85EA5AFF4F52
:101A3000C080D180E985FA85EE5AFF4F8080918081
:101A400087019501A601B40189859A850E947F0CC2
:101A500029853A852C573F4F3A87298781111BC02A
:101A6000F90110822A960FB6F894DEBF0FBECDBFE3
:101A7000DF91CF911F910F91FF90EF90DF90CF906A
:101A8000BF90AF909F908F907F906F905F904F909E
:101A90003F902F90089581E0E985FA858083811435
:101AA000910421F0E981FA8191828082A414B50425
:101AB00020F4EB81FC81B182A0822C143D0420F43F
:101AC000ED81FE81D182C082E614F70458F6EF81E1
:101AD000F885F182E082C6CF0F93CF93DF93E02F9A
:101AE000DC01AC57BF4FFC91FF2309F460C0211506
:101AF000310509F45CC02230310538F0023009F0BC
:101B00004AC06F5F7F4F621B730B0E2F0170E0FDA9
:101B100052C0FC01E25BFF4F0190F081E02D4E17B7
:101B20005F0708F444C0FC01E05BFF4F0190F081C7
:101B3000E02D4E175F07D8F5FC01E45BFF4F0190E5
:101B4000F081E02DDC01A65BBF4F0D90BC91A02D74
:101B5000260F371F2617370738F56E177F0718F53A
:101B60009F0121503109A217B30708F56A177B07B7
:101B700008F4BD012E173F0708F4F901E61BF70B27
:101B8000EC01AEA9BFA914960D90BC91A02D9F01A8
:101B9000FD0109950CC0033009F0B7CF4F5F5F4FCF
:101BA000421B530BB2CFBD016E177F07E0F2DF91EE
:101BB000CF910F910895FC01E65BFF4F0190F081FA
:101BC000E02D6E177F0798F3FC01E45BFF4F019057
:101BD000F081E02D6E177F0750F7FC01E05BFF4FAF
:101BE0000190F081E02DDC01A25BBF4F0D90BC9114
:101BF000A02D240F351F24173507A8F44E175F07B3
:101C000088F49F0121503109A217B30780F64A17C3
:101C10005B0708F4AD012E173F0708F4F901E41B38
:101C2000F50BAECFAD014E175F0708F6EDCF2130B3
:101C300069F038F0223079F0840F911D47FD9A95B4
:101C40000895860F911D67FD9A950895841B91094B
:101C500047FD93950895861B910967FD9395089517
:101C6000213069F038F0223079F0861B910967FD48
:101C700093950895840F911D47FD9A950895860FB9
:101C8000911D67FD9A950895841B910947FD9395D1
:101C900008953F924F925F926F927F928F929F92A0
:101CA000AF92BF92CF92DF92EF92FF920F931F936A
:101CB000CF93DF937C01162F442EEC01C25ADF4FE5
:101CC0005E806F806C018AE8C80ED11C788475181C
:101CD000312E711608F4372C8C809D800E85202FB4
:101CE000462D652D8A819B810E94170E5C01202F55
:101CF000462D652DC4010E94300EAC01442079F0C0
:101D00008C85F6018083232D30E0B501C7010E9448
:101D10006C0D171548F017196394512CD7CF8B858C
:101D20008111F7CF8D85EDCF150D1E836F82DF9169
:101D3000CF911F910F91FF90EF90DF90CF90BF90C8
:101D4000AF909F908F907F906F905F904F903F905B
:101D50000895DC011A964C911A97ED91FC91119718
:101D6000249130E0042E02C0359527950A94E2F7BD
:101D7000842F860F883068F031961196FC93EE938D
:101D8000E49198E0941B01C0EE0F9A95EAF72E2B90
:101D900088501A968C938FEF9FEF01C0880F6A9539
:101DA000EAF7809582230895FC01E60FF11D8491E6
:101DB00090E0982F88273196E4918E0F911D089519
:101DC000CF93DF9320912C0530912D0528173907EB
:101DD00009F490C0EC0190932D0580932C05FC0133
:101DE000849180933F053196E491E0934005FE0194
:101DF0003296E491E0934105FE013396E491E0933D
:101E00004205FE013496E491E0934305FE013596C8
:101E1000E491E0934405FE013696E491E093450594
:101E2000FE013796E491E0934605FE013896E49171
:101E3000E0934705FE013996E491E0934805FE01E1
:101E40003A96E491E0934905FE013B96E491E093D4
:101E50004A05FE013C96E491E0934B05FE013D9658
:101E6000E491E0934C05FE013E96E491E0934D052C
:101E7000FE013F96E491E0934E05FE017096E491D9
:101E8000E0934F0561E1CE010E94D40E909351057D
:101E90008093500563E1CE010E94D40E90935305C8
:101EA0008093520565E1CE010E94D40E90935505B2
:101EB0008093540580912C0590912D05892BD1F0AC
:101EC00080914C058093580540914D0540935905EC
:101ED00090915705992371F0913079F490914E05C6
:101EE000891714F49093580580914F05841714F4C2
:101EF00080935905DF91CF91089530914905209144
:101F00004B05082E000C990B622F022E000C770B4C
:101F1000630F711D37FD7A95861797071CF4320FF2
:101F200030935805241734F720935905E3CF4F9287
:101F30005F926F927F928F929F92AF92BF92CF9259
:101F4000DF92EF92FF920F931F93CF93DF93EC01F9
:101F50006B018A017901FC01E459FF4F80818130D6
:101F600009F44BC008F43EC0823009F451C08330FC
:101F700009F459C0FE01E05AFF4FD182C082329667
:101F80001183008338978081918147962FEFE21665
:101F9000F10411F008F0F2C0E1E6EE16F10408F4E5
:101FA0004DC0FE01E058FF4F20813181820F931F09
:101FB0009C012F5F3F4FF9014491411148C090E0CF
:101FC00080E0DF91CF911F910F91FF90EF90DF9014
:101FD000CF90BF90AF909F908F907F906F905F90C9
:101FE0004F900895FE01E45AFF4F0190F081E02DDB
:101FF000CE010995080F191FBDCFFE01E45AFF4F0E
:102000000190F081E02DCE010995C81AD90AB2CF0E
:10201000FE01E45AFF4F0190F081E02DCE010995B9
:10202000081B190BA7CFFE01E45AFF4F0190F08166
:10203000E02DCE010995C80ED91E9CCFF1E4EF1614
:10204000F10408F4B5CFFE01E258FF4FADCFFC011B
:1020500044914E151F0409F08CC00296009709F4B4
:10206000AECF7E01FEE5EF0EF11CF7019183808378
:10207000128673966081C7010E94A90EF7018087BE
:1020800074966081C7010E94A90E982EF70181877E
:102090005E01FAE8AF0EB11CF5019081F70194875B
:1020A00081E0911180E0F7018587FE01ED58FF4F37
:1020B000C0806C2DC7010E94A90E582EFE01EC585D
:1020C000FF4FD0806D2DC7010E94A90E482EFE0142
:1020D000EB58FF4F1081612FC7010E94A90E9FEF9F
:1020E000910F01E010E0980101C0220F9A95EAF7E4
:1020F000882E821AF701608416140CF0ADC0CA94C1
:10210000C80101C0880FCA94EAF7581A7684490CAE
:10211000DA94A80101C0440FDA94EAF7F42FF41915
:102120004F2E272D4F2F652DF701828193810E941D
:10213000170E6C01F70193838283272D442D652DA3
:10214000848195810E94300EF70195838483F1E0AC
:102150007F1609F485C07F1608F43FC022E072168E
:1021600009F48DC0E3E07E1609F49DC0BC01960120
:102170003EC0F9012491820F911D1ACFFE01EE5746
:10218000FF4F00811181080F191F680160E0C6012F
:102190000E94D40E080F191F62E0C6010E94D40EDF
:1021A000F4E0CF0ED11C8E159F0580F3F8018491C9
:1021B00090E0982F88273196E4918E2B009709F4B0
:1021C000FECEE816F90619F4C801039647CFF801C8
:1021D0003296E4910E0F111DE9CF9601260D311DA7
:1021E00067FC3A95BC01690D711D97FC7A958B01CE
:1021F000AC01B601CE010E947F0C882369F1F70182
:10220000168217828E0101591F4F6E01F0E7CF0E23
:10221000D11CF8016081C7010E94A90E682EF60149
:102220006081C7010E94A90E782E40E0662DCE0184
:102230000E94490E41E0672DCE010E94490E61E0E7
:10224000C7010E94A90E8111F0CFF701878189157E
:1022500004F38485F5018083882D880C990BB1CE19
:102260000919110997FC139596012F5F3F4FBC0187
:10227000660D711D67FC7A95C00ED11EB8CFA801FE
:102280004619510967FC539596012F5F3F4F091975
:10229000110997FC1395BC016F5F7F4F800F911F51
:1022A000C40ED51EA4CF9601290D311D97FC3A9579
:1022B0000619110967FC1395BC016F5F7F4F800FF2
:1022C000911F95CFCF92DF92EF92FF920F931F93C2
:1022D000CF93DF93EC018B011092EA047A01D12CA9
:1022E000C12CF70161917F01E091D404F091D504F4
:1022F00082ED94E009958F3F980719F18E3F2FEFFB
:10230000920779F39C01A801BE0182ED94E00E943E
:10231000970F20913E05213059F038F0223059F0C6
:10232000233061F0C80ED91EDCCFC80FD91FFACFF9
:10233000080F191FF7CFC81BD90BF4CF081B190BB7
:10234000F1CFC601DF91CF911F910F91FF90EF90D8
:10235000DF90CF900895AF92BF92CF92DF92EF922D
:10236000FF920F931F93CF93DF9300D000D01F9263
:10237000CDB7DEB78C01DC01DA96AC90DA97DB964C
:10238000EC90DB97ED91FC91B188FE2CD12CC12C07
:10239000D801ED91FC9111978089D8962D913C91AF
:1023A0001C82FD828B83B8E08B9FC00111248C9D21
:1023B000A0018D9D500D9C9D500D1124240F351FA3
:1023C0003A832983D8011496ED91FC919E012F5FE9
:1023D0003F4F41E06FE0C8010995F3948F2D8E19AE
:1023E0008A1528F4BFEFCB1ADB0AFB1488F20F9092
:1023F0000F900F900F900F90DF91CF911F910F9141
:10240000FF90EF90DF90CF90BF90AF90089582ED56
:1024100094E00E94AB1182ED94E00C94440ACF92B8
:10242000DF92EF92FF920F931F93CF93DF93EC0114
:10243000962F683109F44BC0B901993130F49431C9
:10244000C9F0973189F080E006C0993109F461C084
:102450009032C9F781E0DF91CF911F910F91FF90EA
:10246000EF90DF90CF90089550E082EC92E00E94D0
:10247000A408F0CF8C859D85AE85BF85892B8A2BDE
:102480008B2B71F4E881F981A585B0E020EA36E86C
:1024900041E050E00E941D2A6C877D878E879F87D0
:1024A00010924B0210924A0210924D0210924C026E
:1024B0000E94570988E798E0909375028093740210
:1024C00089E798E09093790280937802C3CF2C85B6
:1024D0003D854E855F8560E074E284EF90E00E9468
:1024E000F5292051310941095109569547953795EC
:1024F00027952093B8008E8990E09595879591E077
:10250000909329028093E40110924D0210924C02A4
:10251000A1CFD0914C02D13208F093C0C091E40118
:102520000E94E5096B017C0180919C02811164C0CD
:1025300082E080939C0281E080939E028FEF8093E3
:102540009B021092C002D093BF02A9E0B2E0EFE973
:10255000F2E080E0D8137CC01092C1028091C102E9
:10256000CC0FC82BC093C10280919D02813009F02D
:1025700073C010929D020E94E5096B017C0180915D
:10258000C1028093BB0080914F0290915002A091B4
:102590005102B0915202892B8A2B8B2B99F00E9409
:1025A000E50900914F0210915002209151023091A3
:1025B00052026C197D098E099F0906171707280713
:1025C0003907D8F18091BC0083FDD9CF85EC809389
:1025D000BC000E94E5096B017C0180919C02823065
:1025E000E9F180919B028F3F61F180919B028032E3
:1025F00041F180919B0225C080914F029091500241
:10260000A0915102B0915202892B8A2B8B2B09F495
:102610008BCF0E94E50900914F021091500220914A
:102620005102309152026C197D098E099F090617DB
:1026300017072807390708F077CF80914E020E94CC
:10264000750910924D0210924C021092290202CF8D
:102650009D9191938F5F7ECF85EEB9CF80914F0290
:1026600090915002A0915102B0915202892B8A2B75
:102670008B2B09F4B2CF0E94E50900914F02109113
:10268000500220915102309152026C197D098E093D
:102690009F09061717072807390708F09ECFCDCFE7
:1026A0000F931F93CF93DF93EC01862F642F8C320F
:1026B00008F03AC08A3208F060C0883209F44BC092
:1026C000893209F460C0803408F475C0982F9F7374
:1026D000FE01E90FF11D868D8F3F09F44EC0903148
:1026E00008F436C0282F30E0F901E956FB4F8491F9
:1026F000F901ED57FB4F0491F901E159FB4F14919A
:10270000112379F081110E940009E12FF0E0EE0F12
:10271000FF1FE05DFC4FA591B491EC910E2381E089
:1027200009F480E0898F29C08D3299F108F4CBCF6C
:1027300094EB980F923008F0C6CF8F73C80FD11D5D
:102740008E8D411134C061E00E94960960E08E8D4B
:102750000E94290912C08E01025E1F4FD0E0F801CD
:1027600081918F018F3F31F061E0D03108F062E05C
:102770000E949609DF5FD63191F781E0DF91CF911A
:102780001F910F91089570E090E080E00E940A0A86
:10279000F4CF85E090E0433010F082E090E0880FC5
:1027A000991F880F991F05970197F1F7E6CF62E00F
:1027B0000E949609E2CF80E0E1CF25B1207C382F3E
:1027C0003F73232B25B92BB136E0959587953A9524
:1027D000E1F745E0880F991F4A95E1F72F71822BA9
:1027E0008BB90895CF93DF93EB0128B1207F28B9EF
:1027F00027B1207F27B90E94DD135A98CE010E948D
:10280000DD135B98000000000000000000000000E5
:1028100086B15B9A5A9A8F7090E0DF91CF910895BC
:10282000CF93DF93EB0138980E94DD135A98CE01C5
:102830000E94DD135B980000000000000000000013
:10284000000086B15B9A5A9A817090E0DF91CF9137
:1028500008950F931F93CF938B01C42F27B12F603F
:1028600027B90E94DD135A985C9848B1407FCF7019
:102870004C2B48B9C8010E94DD135B980000000092
:1028800000000000000000005C9A5B9A5A9ACF9109
:102890001F910F9108958F929F92AF92BF92CF9206
:1028A000DF92EF92FF920F931F93CF93DF937C0100
:1028B00010E000E0CC24C394D12C8091F3019091DE
:1028C000F201282F291B922F960102C0220F331FDD
:1028D0009A95E2F7021713072CF5C091F1010C2E1F
:1028E000000CDD0BC02BD12B9091F00102C0CC0F5E
:1028F000DD1F9A95E2F7560102C0AA0CBB1C8A950F
:10290000E2F7912C812C8A149B044CF4A701BE01A0
:10291000C4010E9429148FEF881A980AF4CF0F5F20
:102920001F4FCBCF80E0DF91CF911F910F91FF9090
:10293000EF90DF90CF90BF90AF909F908F900895D1
:102940001F93CF93DF93EB01142F399A0E94DD136D
:102950005A985C9810FD419A10FF4198CE010E9450
:10296000DD135B9800000000000000000000000084
:102970005C9A5B9A5A9ADF91CF911F9108958F923A
:102980009F92AF92BF92CF92DF92EF92FF920F93FE
:102990001F93CF93DF937C0110E000E0CC24C3941D
:1029A000D12C8091F3019091F201282F291B922FB5
:1029B000960102C0220F331F9A95E2F70217130700
:1029C0002CF5C091F1010C2E000CDD0BC02BD12B8E
:1029D0009091F00102C0CC0FDD1F9A95E2F75601ED
:1029E00002C0AA0CBB1C8A95E2F7912C812C8A1498
:1029F0009B044CF4A701BE01C4010E94A0148FEFF8
:102A0000881A980AF4CF0F5F1F4FCBCF80E0DF9179
:102A1000CF911F910F91FF90EF90DF90CF90BF90DB
:102A2000AF909F908F9008958BB183708BB98AB1CE
:102A300083708AB985B1807C85B984B1807C84B982
:102A400088B1807F88B987B1807F87B90895CF9298
:102A5000DF92EF92FF920F931F93CF93DF936C015E
:102A6000EB017B01E40EF51E10E000E0CE15DF0562
:102A700061F06991D601ED91FC910190F081E02D1A
:102A8000C6010995080F191FF1CFC801DF91CF9139
:102A90001F910F91FF90EF90DF90CF900895CF920C
:102AA000DF92EF92FF920F931F93CF93DF93EC018E
:102AB0006C0124E0C20ED11CFC01E057FF4F0190D5
:102AC000F081E02DC60109958E3FEFEF9E07D8F407
:102AD0008E010C561F4FF801408151817E01F2E9B1
:102AE000EF0EF11CF701608171819C01C6010E940B
:102AF000970FC059DF4F28812130C1F078F0223084
:102B0000B9F02330E9F081E090E0DF91CF911F919F
:102B10000F91FF90EF90DF90CF900895F701208103
:102B20003181820F931F91838083EDCFF801F7CF1E
:102B3000F70120813181281B390B31832083E3CFBA
:102B4000F801F7CF089590E080E00895CF92DF92EA
:102B5000EF92FF92CF93DF9384E10E94C709EC01CB
:102B600080E0C53AD1050CF493C06091E601709104
:102B7000E701072E000C880B990B0E94672B6B0155
:102B80007C01BE01DD0F880B990B0E94672B9B0116
:102B9000AC01C701B6010E94BD2A6093EC0170939D
:102BA000ED018093EE019093EF016091EC01709143
:102BB000ED018091EE019091EF0120E030E048EAD4
:102BC00050E40E94B82A87FF11C06091EC01709117
:102BD000ED018091EE019091EF01C1E020E030E045
:102BE00048E950E40E94172C18160CF0C0E0C0937E
:102BF000F401C090EC01D090ED01E090EE01F09076
:102C0000EF0185E10E94C709EC0120E030E040E4DB
:102C10005BE3C701B6010E941C2C6B017C01BE0165
:102C2000DD0F880B990B0E94672B9B01AC01C7013C
:102C3000B6010E941C2C6093E8017093E901809317
:102C4000EA019093EB016091E8017091E9018091B4
:102C5000EA019091EB0129E939E949E451E40E9444
:102C6000B82A87FF11C06091E8017091E901809155
:102C7000EA019091EB01C1E026E636E646E351E435
:102C80000E94172C18160CF0C0E0C093F50181E0EB
:102C9000DF91CF91FF90EF90DF90CF9008950E9449
:102CA000D909892BE1F30E94D9090197E1F30E9428
:102CB000D909892BE1F3089585ED8093BC008091BB
:102CC0004F0290915002A0915102B091520207968A
:102CD000A11DB11D23E0B695A795979587952A95D7
:102CE000D1F72091BC0024FD03C010929C020895EE
:102CF00040914F02509150026091510270915202E6
:102D0000452B462B472B69F30097A105B10541F0F0
:102D10002AE22A95F1F700C00197A109B109E1CF94
:102D200080914E020C9475091F93CF93DF93EC01B1
:102D3000162F0E949429181739F0612FCE01DF91C8
:102D4000CF911F910C949C29DF91CF911F910895F1
:102D50000C949429FC01A081B18150962C9182ADF4
:102D600038E0839FC0011124289FA001299F500DA6
:102D7000112470E060E080AD91AD0C94892CCF936C
:102D8000DF93CDB7DEB76A970FB6F894DEBF0FBEFC
:102D9000CDBF9E012B5D3F4F4BA15CA16AE170E06E
:102DA000CE0101960E94EA2686EB97E09093D50427
:102DB0008093D404AE014F5F5F4F69A17AA18F8DDC
:102DC00098A10E9462116A960FB6F894DEBF0FBEFA
:102DD000CDBFDF91CF910895EF92FF920F931F9394
:102DE000CF93DF93CDB7DEB76A970FB6F894DEBF07
:102DF0000FBECDBF8C017B01BA014AE150E0CE018C
:102E000001960E94DB2626EB37E03093D504209311
:102E1000D404AC01B701C8010E9462116A960FB6D2
:102E2000F894DEBF0FBECDBFDF91CF911F910F9100
:102E3000FF90EF9008958F929F92AF92BF92CF92A2
:102E4000DF92EF92FF920F931F93CF93DF9384E172
:102E50000E94C709982E892E0E94D9095C016091B1
:102E6000EC017091ED018091EE019091EF0120E075
:102E700030E040E251E40E941C2C0E942F2BEB0119
:102E80006091EC017091ED018091EE019091EF0164
:102E900020E030E040EA50E40E944B2A20E030E09D
:102EA0004AE754E40E941C2C20E030E040EA50E461
:102EB0000E94BD2A0E942F2B6B018B0182ED94E0B2
:102EC0000E94AA1683E898E00E94E00E42E253E0D6
:102ED0006AE070E090E080E00E94EC168BEA94E0FB
:102EE0000E94E00E88E4AB2809F48CE41F928F93D3
:102EF0008F929F9283E193E09F938F931F9286E13D
:102F00008F931F921F920E94BF168DB79EB70A968D
:102F10000FB6F8949EBF0FBE8DBF8091F4014AEEAC
:102F200052E0882311F04EEE52E066E170E089E64F
:102F300090E00E94EC16C60117FF04C0882799276D
:102F40008C199D092AE030E0B9010E94E1299F9384
:102F50008F93C801B9010E94E1297F936F93CE013D
:102F6000B9010E94E1299F938F937F936F9383EF21
:102F700092E09F938F931F928FE18F931F921F92E6
:102F80000E94BF168DB79EB70E960FB6F8949EBFDF
:102F90000FBE8DBFDF91CF911F910F91FF90EF90EA
:102FA000DF90CF90BF90AF909F908F900C940712BE
:102FB0004F925F926F927F928F929F92AF92BF9249
:102FC000CF92DF92EF92FF920F931F93CF93DF93F5
:102FD00085E10E94C7094C016091E8017091E90107
:102FE0008091EA019091EB0120E030E040E251E471
:102FF0000E941C2C0E942F2BEB016091EC01709120
:10300000ED018091EE019091EF0120E030E040EA87
:1030100050E40E944B2A20E030E04AE754E40E944A
:103020001C2C20E030E040EA50E40E94BD2A0E94BF
:103030002F2B2B015B016091E8017091E9018091D8
:10304000EA019091EB0120E030E040E451E40E947D
:103050004B2A20E030E04AE754E40E941C2C20E098
:1030600030E040E451E40E94BD2A0E942F2B6B0106
:103070008B0182ED94E00E94AA1683E898E00E94FA
:10308000E00E41EE52E06AE070E090E080E00E94E5
:10309000EC168BEA94E00E94E00EC20157FE04C0D9
:1030A00088279927841995092AE030E0B9010E9400
:1030B000E1299F938F93C501B9010E94E1297F9374
:1030C0006F939F928F9284EC92E09F938F931F92C5
:1030D00086E18F931F921F920E94BF16C60117FFB1
:1030E00004C0882799278C199D092AE030E0B9018E
:1030F0000E94E1299F938F93C801B9010E94E129A1
:103100007F936F93CE01B9010E94E1299F938F9322
:103110007F936F9384EA92E09F938F931F928FE146
:103120008F931F921F920E94BF168DB79EB74A962B
:103130000FB6F8949EBF0FBE8DBFDF91CF911F9148
:103140000F91FF90EF90DF90CF90BF90AF909F9046
:103150008F907F906F905F904F900C940712CF9359
:10316000C82F82ED94E00E94AA1683E898E00E949E
:10317000E00E4DE952E06AE070E090E080E00E94ED
:10318000EC168BEA94E00E94E00ECC23E9F04DE8C7
:1031900052E066E170E090E080E00E94EC1647E7C4
:1031A00052E06FE170E084E190E00E94EC160E9432
:1031B0000712CC2381F00E944F166CE271E080E090
:1031C00090E0CF910C940A0A4CE652E066E170E080
:1031D00090E080E0EACFCF91089582ED94E00E94E4
:1031E000AA1683E898E00E94E00E40E652E06AE00A
:1031F00070E090E080E00E94EC168BEA94E00E9480
:10320000E00E4AE552E06AE070E087E690E00E9456
:10321000EC168091F901823009F453C034F488230C
:10322000B1F0813059F10C940712843009F45FC079
:103230000CF452C08530B9F743E851E066E170E024
:1032400090E080E00E94EC164BE651E035C04AE485
:1032500052E066E170E090E080E00E94EC16809120
:10326000F8014CE352E0882311F043E452E066E1B8
:1032700070E080E590E00E94EC16D5CF4BE252E082
:1032800066E170E090E080E00E94EC168091F7012A
:103290004EE152E0882311F045E252E066E170E031
:1032A00085E590E00E94EC168091F70143E052E042
:1032B000882311F04DE152E06FE170E090E080E092
:1032C000DACF46EF51E066E170E090E080E00E94E6
:1032D000EC164FED51E0F0CF41ED51E066E170E0CA
:1032E00090E080E00E94EC164CEB51E0E5CF46EA1E
:1032F00051E066E170E090E080E00E94EC1641E968
:1033000051E0DACFEF92FF920F931F93CF93DF93A9
:103310008C017B01EA01789482ED94E00E94AA1668
:1033200083E898E00E94E00E44E651E06AE070E035
:1033300090E080E00E94EC168BEA94E00E94E00EA0
:1033400086EB97E09093D5048093D404A8016AE0BB
:1033500070E088E390E00E946211E091F6010E2E89
:10336000000CFF0BED56FE4F80811F928F938AE574
:1033700091E09F938F931F9216E11F931F921F92CC
:103380000E94BF16E091F601EE0FFF0BED57FE4FC6
:103390004081518166E170E088E290E00E94EC1685
:1033A0008091F30141E050E0BA01082E02C0660F9F
:1033B000771F0A94E2F7615071096E217F217F9394
:1033C0006F939091F201891B02C0440F551F8A959B
:1033D000E2F7415051094C235D235F934F938DE4F5
:1033E00091E09F938F931F921F931F928BE48F9373
:1033F0000E94BF1647E351E06FE170E084E190E086
:103400000E94EC160E9407120E944F168DB79EB7BD
:1034100042960FB6F8949EBF0FBE8DBF6CE271E06E
:1034200080E090E0DF91CF911F910F91FF90EF909E
:103430000C940A0A6F927F928F929F92AF92BF92E2
:10344000CF92DF92EF92FF920F931F93CF93DF9370
:103450006C014B01F12CE12C66246394712C80915A
:10346000F3019091F201282F291B922F930102C0A2
:10347000220F331F9A95E2F7E216F3060CF043C0D1
:10348000C091F1010C2E000CDD0BCE29DF299091AB
:10349000F00102C0CC0FDD1F9A95E2F7530102C084
:1034A000AA0CBB1C8A95E2F710E000E00A151B0588
:1034B00034F5A401BE01C8010E942914BE01C8014F
:1034C0000E94F21388159905B9F00E941415A701FE
:1034D000B801C6010E94821981E0DF91CF911F914E
:1034E0000F91FF90EF90DF90CF90BF90AF909F90A3
:1034F0008F907F906F9008950F5F1F4FD7CF8FEF02
:10350000E81AF80AACCF80E0E8CF6F927F928F92F2
:103510009F92AF92BF92CF92DF92EF92FF920F9362
:103520001F93CF93DF936C014B01F12CE12C6624A8
:103530006394712C8091F3019091F201282F291B43
:10354000922F930102C0220F331F9A95E2F7E216E1
:10355000F3060CF043C0C091F1010C2E000CDD0B02
:10356000CE29DF299091F00102C0CC0FDD1F9A9582
:10357000E2F7530102C0AA0CBB1C8A95E2F710E0E7
:1035800000E00A151B0534F5A401BE01C8010E9424
:10359000A014BE01C8010E94101488159905B9F045
:1035A0000E941415A701B801C6010E94821981E08A
:1035B000DF91CF911F910F91FF90EF90DF90CF900F
:1035C000BF90AF909F908F907F906F9008950F5F06
:1035D0001F4FD7CF8FEFE81AF80AACCF80E0E8CFC3
:1035E000CF92DF92EF92FF920F931F93CF93DF93CF
:1035F0006C01EB01142F052FF22EE32E82ED94E0E7
:103600000E94AA1683E898E00E94E00E86EB97E0FD
:103610009093D5048093D404A6016AE070E090E012
:1036200080E00E9462118BEA94E00E94E00EE0913B
:10363000F6010E2E000CFF0BED56FE4F80811F92FF
:103640008F938DE291E09F938F931F9286E18F93EA
:103650001F921F920E94BF16E091F601EE0FFF0B22
:10366000ED57FE4F4081518166E170E088E290E0C5
:103670000E94EC168DB79EB708960FB6F8949EBFC1
:103680000FBE8DBF8091F601853074F08091F801F6
:103690004FE151E0882311F046E251E066E170E02D
:1036A0008BE490E00E94EC16EF92FF920F931F9331
:1036B000DF93CF9386E091E09F938F931F928FE1EA
:1036C0008F931F921F920E94BF1678940E94071238
:1036D000F8948DB79EB70C960FB6F8949EBF0FBEA8
:1036E0008DBFDF91CF911F910F91FF90EF90DF90F1
:1036F000CF900895CF93C82F82ED94E00E94AA1630
:1037000083E898E00E94E00E4AEF50E06AE070E043
:1037100090E080E00E94EC168BEA94E00E94E00EBC
:1037200044EF50E06AE070E087E690E00E94EC161B
:10373000E091F601EE0FFF0BED57FE4F40815181F6
:1037400066E170E090E080E00E94EC16E091F60106
:10375000EE0FFF0BE25FFE4F4081518166E170E0AA
:1037600083E290E00E94EC16E091F6010E2E000C30
:10377000FF0BED56FE4F80811F928F938AEE90E0F3
:103780009F938F931F9286E18F931F928DE58F9366
:103790000E94BF168DB79EB708960FB6F8949EBFCD
:1037A0000FBE8DBFCC2341F041ED50E06FE170E0E2
:1037B00088E090E00E94EC16CF910C9407124FE045
:1037C00050E00C94DB261F920F920FB60F9211243B
:1037D0002F933F934F935F936F937F938F939F9319
:1037E000AF93BF93EF93FF938091B900887F8036AA
:1037F00009F44AC0F0F5883209F4A7C018F5803101
:1038000009F49BC0B8F4882309F4F9C0883009F49E
:1038100094C0FF91EF91BF91AF919F918F917F9154
:103820006F915F914F913F912F910F900FBE0F902D
:103830001F901895883109F488C0803251F7809321
:103840009B0214C0803409F49DC040F48033B9F366
:103850008833F9F680939B0285ECB0C0803509F47B
:1038600085C0883509F496C0883499F60E945C16A4
:10387000D0CF883909F48CC038F5883729F050F456
:10388000883611F0803729F683E080939C021092ED
:103890009A0257C0883809F47BC0803919F0803803
:1038A00009F0B7CF80919A02803208F071C0E091A0
:1038B0009A0281E08E0F80939A028091BB00F0E023
:1038C000E658FD4F80833DC0803B39F0E0F4803AFC
:1038D00009F479C0883A09F09CCF84E080939C0277
:1038E0001092770210927602E0917402F0917502C4
:1038F00009958091760281110FC081E08093760254
:103900001092540209C0803C09F4A6CF883C09F407
:10391000A3CF883B09F07DCFE091770281E08E0F45
:1039200080937702F0E0EC5AFD4F80818093BB00DA
:10393000909177028091760229C08091C102809394
:10394000BB0085EC8093BC0064CF9091C002809155
:10395000BF02981758F5E091C00281E08E0F809366
:10396000C002F0E0E156FD4F8081E9CFE091C00256
:1039700081E08E0F8093C0028091BB00F0E0E156A1
:10398000FD4F80839091C0028091BF029817C8F2CA
:1039900085E8D8CFE091C00281E08E0F8093C0020D
:1039A0008091BB00F0E0E156FD4F808380919E0244
:1039B00081115CCF81E080939D0284EA8093BC00FA
:1039C00010929C0226CF85EC8093BC0010929C0242
:1039D00080919A02803230F4E0919A02F0E0E65849
:1039E000FD4F108260919A0270E0E0917802F091B0
:1039F00079028AE792E0099510929A020ACF109212
:103A00009B0234CF1F920F920FB60F9211242F9367
:103A10003F938F939F93AF93BF93809101029091B7
:103A20000202A0910302B09104023091000223E04F
:103A3000230F2D3758F50196A11DB11D20930002CB
:103A40008093010290930202A0930302B0930402B8
:103A50008091050290910602A0910702B0910802A0
:103A60000196A11DB11D8093050290930602A093BB
:103A70000702B0930802BF91AF919F918F913F9140
:103A80002F910F900FBE0F901F90189526E8230FCF
:103A90000296A11DB11DD2CFCF931092C5021092F4
:103AA000C40288EE93E0A0E0B0E08093C602909359
:103AB000C702A093C802B093C9028FE991E0909326
:103AC000C3028093C2021092D1041092D00486EBFC
:103AD00097E090935F0580935E05109261051092C8
:103AE000600510926305109262051092EA0481EB62
:103AF00091E09093CF048093CE041092D30410925F
:103B0000D2041092E7041092DE041092DF041092A7
:103B1000E0041092E1048FEF8093E8048093EC04BA
:103B2000E0EFF4E086E095E0CFEFC1938E179F07BA
:103B3000E1F784EC9AE09093D7048093D60483EB6A
:103B40009BE09093D9048093D8048FE092E1909306
:103B5000DB048093DA0480E593E19093DD048093A5
:103B6000DC0430E020E040E069E082ED94E00E9477
:103B7000C40A10922D0510922C0580EC97E09093CA
:103B80000705809306058EEC92E090930B058093D9
:103B90000A0584E080930C0510920D0510923B05F8
:103BA00010925B051092570581E080935C0580932D
:103BB0005D0589EB91E0909309058093080582EDFE
:103BC00094E00E942D0C109225051092240510926D
:103BD0002905109228058FEF9FEF9093270580937A
:103BE000260590932B0580932A05E0910805F09116
:103BF00009050280F381E02D82ED94E009958FE2C2
:103C000098E090932F0580932E0510923E05C09367
:103C1000FB04C093FC04C093FD04CF910895CF939F
:103C2000DF93CDB7DEB769970FB6F894DEBF0FBE4E
:103C3000CDBF789484B5826084BD84B5816084BD35
:103C400085B5826085BD85B5816085BD80916E003A
:103C5000816080936E00109281008091810082606B
:103C600080938100809181008160809381008091A8
:103C700080008160809380008091B1008460809397
:103C8000B1008091B00081608093B00080917A0093
:103C9000846080937A0080917A00826080937A00B9
:103CA00080917A00816080937A0080917A008068A8
:103CB00080937A001092C100E091D604F091D7046D
:103CC00030E020E040E06AE082ED94E009958091E8
:103CD0005D05882321F082ED94E00E94AA1680E021
:103CE0000E94320882ED94E00E94AB1110910D0504
:103CF00080910C05180FE091D204F091D3048189D2
:103D0000181708F487C082ED94E00E94440A80E00E
:103D10000E943208E091D604F091D70430E020E010
:103D200040E06BE082ED94E0099582ED94E00E9422
:103D3000AA160E9414151092F5011092F401109227
:103D4000EC011092ED011092EE011092EF01109231
:103D5000E8011092E9011092EA011092EB0190E063
:103D600080E00E94A816883008F081E08093F60178
:103D700081E090E00E94A81691E0811101C090E0DE
:103D80009093F80182E090E00E94A81691E08111E2
:103D900001C090E09093F70180E092E00E949429A6
:103DA0008093E60181E092E00E9494298093E701EC
:103DB0008091E6019091E7019C013C50273632400A
:103DC00010F083E39DE09093E7018093E6010E9469
:103DD000D9098093FE01811127C01092F9010E9438
:103DE000ED181092FF0101E010E044244394E091AB
:103DF000FF01E830B0F50E2E000CFF0BEE5FF04E29
:103E00000C94172A1F1F391FE01FE81FEE1FFC1F0D
:103E10004D20D92080915D05882321F082ED94E02A
:103E20000E94AA16812F5CCF0E94A61580E00E94F6
:103E30007A1B1092FE0184E08093FF01D4CF0E9490
:103E4000D909F82E8091FE0181110BC051E0F512C5
:103E500008C00E94A615F092FE010E94ED18F09293
:103E6000FF0120E030E0232B09F4C1CF0E940000C5
:103E7000BCCF0E94D909F82E8091FE018130B9F49F
:103E8000F11015C01092FE012FB7F8948091010235
:103E900090910202A0910302B09104022FBF80937F
:103EA000FA019093FB01A093FC01B093FD018FB741
:103EB000F8948090010290900202A0900302B090CA
:103EC00004028FBF8091FA019091FB01A091FC0147
:103ED000B091FD01881A990AAA0ABB0A8091FE01D5
:103EE0008111BFCF81E0F8123AC70E94A615F09267
:103EF000FE019CED891695E09906A104B10408F035
:103F0000B0CF8091F9018F5F86300CF080E0809314
:103F1000F9010E94ED18A5CF843009F45BC00CF4C0
:103F200051C0853009F09DCF81E090E00E94A81635
:103F30006091F801882381F1611130C081E090E047
:103F40000E949C292BC08091F80131E08327809347
:103F5000F8010E94ED181092FF0183CF80E00E94CB
:103F6000AF18F12CE12C6FEFC7010E9494164FEFB0
:103F7000E41AF40AE11452E0F506A9F74092F801B8
:103F80004092F70181E00E94AF1884E08093FF0126
:103F900080E00E947A1B65CF6111D0CF82E090E073
:103FA0000E94A8166091F701882339F06111EDCFC6
:103FB00082E090E00E949C29E8CF6111F9CFE5CF23
:103FC0000E94A6150E94D81782E08093FF0149CF76
:103FD0000E94A6150E941B1783E0F7CF0E94D90903
:103FE000813009F03ECF8093FE010E94A61580E04B
:103FF0000E947A1B85E0E9CF0E94D909F82E8091B2
:10400000FE018130B9F4F11015C01092FE012FB7F6
:10401000F8948091010290910202A0910302B09164
:1040200004022FBF8093FA019093FB01A093FC013F
:10403000B093FD018FB7F894809001029090020236
:10404000A0900302B09004028FBF8091FA0190917A
:10405000FB01A091FC01B091FD01881A990AAA0AFE
:10406000BB0A8091FE018111FCCE81E0F81294C65A
:104070000E94A615F092FE019CED891695E0990626
:10408000A104B10408F0EDCE8091F6018F5F883075
:104090000CF080E08093F6017BCF0E94D90981303B
:1040A00009F0DFCE8093FE010E94A6158091F501F4
:1040B000811145C08091F601811141C082ED94E0EB
:1040C0000E94AA1683E898E00E94E00E45E653E0BD
:1040D0006AE070E090E080E00E94EC168BEA94E0E9
:1040E0000E94E00EE091F601EE0FFF0BED57FE4F40
:1040F000408151816AE070E08CE590E00E94EC160E
:1041000040E553E066E170E090E080E00E94EC164C
:104110004AE353E06FE170E084E190E00E94EC1626
:104120000E9407120E944F166CE271E080E090E05E
:104130000E940A0A80E00E947A1B84E046CF8091A8
:10414000F401811131C08091F701882369F182ED7A
:1041500094E00E94AA1683E898E00E94E00E4BE9E2
:1041600053E06AE070E090E080E00E94EC168BEA99
:1041700094E00E94E00EE091F601EE0FFF0BED5788
:10418000FE4F408151816AE070E083E590E00E943B
:10419000EC1646E853E066E170E090E080E00E94B3
:1041A000EC1640E753E0B6CF80E00E947A1B87E030
:1041B0000CCF6091F60190E080E00E9494168AB1E5
:1041C0008C6F8AB98BB18C618BB984B18F6384B9E0
:1041D00088B1807F88B987B1807F87B938E0309314
:1041E000F3011092F2011092F0011092F10180910E
:1041F000F60185300CF098C0409887B18C7F8260C2
:1042000087B98091F601823009F483C00CF076C042
:10421000882309F47AC087EE93E00197F1F700C094
:10422000000090E080E00E94DD1388E090E05A9862
:104230005A9A0197E1F76EE474E0CE0101960E946C
:10424000DF1B8091F60121E030E041E050E0853055
:104250000CF07AC061E070E0CE0101960E94F01A85
:1042600061E070E0CE0101960E94851A582E8111FE
:10427000A5C061E474E0CE0101960E94DF1B80912D
:10428000F60122E030E041E050E085300CF00AC257
:1042900061E070E0CE0101960E94F01A81E090E0AA
:1042A0000E94BF14D12CC12C8090F301082C000C6B
:1042B00099088C149D040CF054C06801082C02C0AD
:1042C000CC0CDD1C0A94E2F7F3E0EF2EF12CEC1499
:1042D000FD040CF0CAC482E090E0881599050CF04A
:1042E000ABC49801082E02C0220F331F0A94E2F7D4
:1042F000E216F30609F4D2C10196EFCF833071F0D4
:10430000843009F088CF89E001C087E08093F30111
:1043100082CF4092F2011092F1017DCF4092F201E2
:1043200080E88093F10177CF87B1807F87B9809152
:10433000F601853019F0873031F36DCF82E080933C
:10434000F2014092F00167CF6FE070E0CE0101967C
:104350000E94F01A6FE070E0CE0101960E941A1AD6
:1043600085CF50E040E070E060E0C8010C2C02C056
:10437000880F991F0A94E2F7959587950E94A014DB
:10438000F12CE12C58010E2C02C0AA0CBB1C0A9483
:10439000E2F7B594A79470E060E0C5010E941014A4
:1043A000892B09F458C10E94141550E040E0B50172
:1043B000CE0101960E948219552453948091F601F2
:1043C00085300CF009C3F12CE12C17015FEF251AA1
:1043D000350A511051C06BE274E0CE0101960E9483
:1043E000DF1B22E030E0A101B701CE0101960E945F
:1043F000F01A912C812C8091F3019091F201282FD9
:10440000291B922F980102C0220F331F9A95E2F7C1
:10441000821693068CF56090F101062C000C77084B
:10442000682879289091F00102C0660C771C9A9553
:10443000E2F7580102C0AA0CBB1C8A95E2F7D12C06
:10444000C12CCA14DB040CF0C3C2A701B301C6011E
:104450000E94A014B301C6010E941014E816F906C8
:1044600009F4B0C20E941415A401B601CE01019650
:104470000E94821955245394EE24E394F12C82E097
:104480002816310409F0A1CF8091F60185300CF097
:1044900033C3F12CE12C37012FEF621A720A51104D
:1044A0005DC064E174E0CE0101960E94DF1B22E052
:1044B00030E0A301B701CE0101960E94F01AC701B6
:1044C0000E94BF1465E074E0CE0101960E94DF1BDC
:1044D00022E030E0A301B701CE0101960E94F01A5C
:1044E000D12CC12C8091F3019091F201382F391B0E
:1044F000932F980102C0220F331F9A95E2F7C2163C
:10450000D30664F52090F101022C000C33082C280E
:104510003D289091F00102C0220C331C9A95E2F7DD
:10452000580102C0AA0CBB1C8A95E2F7912C812C81
:104530008A149B040CF0DCC2B101C4010E94101467
:104540008E159F0509F4D0C20E941415A601B4016E
:10455000CE0101960E94821955245394EE24E394CF
:10456000F12C82E06816710409F095CF51101CC03F
:104570006AED73E0CE0101960E94DF1B8091F60187
:1045800021E030E041E050E070E060E085300CF088
:1045900048C3CE0101960E94F01A70E060E0CE019F
:1045A00001960E94851A582E78940E941415511075
:1045B000C1CD789482ED94E00E94AA1683E898E039
:1045C0000E94E00E43ED53E06AE070E090E080E08E
:1045D0000E94EC168BEA94E00E94E00EE091F60156
:1045E0000E2E000CFF0BED56FE4F80811F928F9315
:1045F00029EC33E03F932F931F9286E18F931F9214
:104600001F920E94BF16E091F601EE0FFF0BED57CF
:10461000FE4F4081518166E170E088E290E00E94A7
:10462000EC160FB6F894DEBF0FBECDBF8091F60139
:10463000853074F08091F80142EC53E0811102C0A2
:104640004BEB53E066E170E08BE490E00E94EC16E7
:1046500045EA53E05FCD9FEFE91AF90ACE14DF0473
:104660000CF090CE8E149F04ACF058010E2C02C0BA
:10467000AA0CBB1C0A94E2F7B594A79470E060E022
:10468000C5010E941014019709F08DCE2FEFE21A98
:10469000F20AE8CF3FEFC31AD30A06CE4FEFE41A6F
:1046A000F40A15CE6FE070E0CE0101960E94F01A78
:1046B0008FE090E00E944B14D12CC12C8090F3012C
:1046C000082C000C99088C149D040CF56801082C2A
:1046D00002C0CC0CDD1C0A94E2F733E0E32EF12C8F
:1046E000EC14FD040CF0C1C282E090E0881599053D
:1046F0000CF0B0C29801082E02C0220F331F0A949A
:10470000E2F7E216F30609F4ACC20196EFCF50E0EF
:1047100040E070E060E0C8010C2C02C0880F991FD7
:104720000A94E2F7959587950E942914F12CE12CC3
:1047300058010E2C02C0AA0CBB1C0A94E2F7B594D7
:10474000A79470E060E0C5010E94F213892B09F084
:104750002ACE5FEFE51AF50ACE14DF044CF78E146B
:104760009F04ACF058010E2C02C0AA0CBB1C0A948A
:10477000E2F7B594A79470E060E0C5010E94F213DF
:104780000F9709F010CE8FEFE81AF80AE8CF9FEFE5
:10479000C91AD90A93CF22E030E042E050E061E04C
:1047A00070E0CE0101960E94F01A81E090E00E9434
:1047B000BF14D12CC12CE090F3010E2C000CFF088B
:1047C0008091F201E81AF10887FDF394EC14FD04DE
:1047D0000CF558010E2C02C0AA0CBB1C0A94E2F77F
:1047E000F3E0CF2ED12CCA14DB040CF0E7CD82E02D
:1047F00090E08E159F050CF081C29801082E02C032
:10480000220F331F0A94E2F7C216D30609F46CC0D4
:104810000196EFCFA090F1010A2C000CBB0880910B
:10482000F001282E082E000C3308B8010C2C02C011
:10483000660F771F0A94E2F7759567956A297B29B9
:1048400002C0660F771F8A95E2F750E040E090E0E3
:1048500080E00E94A014912C812C3801082C02C009
:10486000660C771C0A94E2F775946794B501662983
:104870007729022C02C0660F771F0A94E2F790E0B6
:1048800080E00E941014892B31F00E941415A301BE
:1048900070E060E08DCD3FEF831A930AC814D9040D
:1048A000E4F6E814F904E4F03801082C02C0660CC0
:1048B000771C0A94E2F775946794B5016629772905
:1048C000022C02C0660F771F0A94E2F790E080E0A6
:1048D0000E9410140197C9F64FEF841A940AE1CF91
:1048E0005FEFC51AD50A67CF8FEFC81AD80A7BCFFA
:1048F000A090F1010A2C000CBB088091F001282E39
:10490000082E000C3308B8010C2C02C0660F771F6C
:104910000A94E2F7759567956A297B2902C0660FAC
:10492000771F8A95E2F750E040E090E080E00E9437
:104930002914912C812C3801082C02C0660C771C9C
:104940000A94E2F775946794B50166297729022CD9
:1049500002C0660F771F0A94E2F790E080E00E94A1
:10496000F213892B31F00E941415A3016FEF7FEF32
:104970001FCD9FEF891A990AC814D904E4F68E1442
:104980009F04E4F43801082C02C0660C771C0A94DA
:10499000E2F775946794B50166297729022C02C065
:1049A000660F771F0A94E2F790E080E00E94F2130E
:1049B0000F97C9F62FEF821A920AE1CF3FEFC31A81
:1049C000D30A6EC131E0E3264FEFC41AD40A39CDC1
:1049D0005FEF851A950A0FCD88E0E0E0F1E0DE0197
:1049E000509601900D928A95E1F78091F801882305
:1049F00009F46EC082E0912C812CA82EB12C8A146F
:104A00009B040CF041CD9FEF891A990A5110F7CF02
:104A1000F401319720E130E02C0F3D1FE20FF31F2E
:104A2000608062E274E0CE0101960E94DF1B662D79
:104A300070E09501A401CE0101960E94F01A362D76
:104A40003F70632E712CD12CC12C8091F301909179
:104A5000F201482F491B980102C0220F331F4A95CB
:104A6000E2F7C216D3065CF62090F101022C000C8E
:104A700033082C283D289091F00102C0220C331CF1
:104A80009A95E2F7980102C0220F331F8A95E2F748
:104A9000398F288FF12CE12C488D598DE416F506BD
:104AA000FCF4A301B101C7010E942914B101C7019F
:104AB0000E94F2136816790669F00E941415A60187
:104AC000B701CE0101960E9482195524539497CFC5
:104AD00088E091CF5FE065268FEFE81AF80ADCCF17
:104AE0009FEFC91AD90AB1CF4FEF841A940A20CD8B
:104AF0005FEFC51AD50AF6CC86E0E8E0F1E0DE010A
:104B0000509601900D928A95E1F78091F8018823E3
:104B100009F47DC082E0F12CE12C282E312CE21426
:104B2000F3040CF023CD9FEFE91AF90A5110F7CFE7
:104B3000F701319720E130E02C0F3D1FE20FF31F0A
:104B4000C080D12C9101A701B601CE0101960E942F
:104B5000F01A67EF73E0CE0101960E94DF1B91010E
:104B6000A701B601CE0101960E94F01AC6010E946B
:104B70004B1468EE73E0CE0101960E94DF1B910199
:104B8000A701B601CE0101960E94F01A712C612C8A
:104B90002091F3018091F201322F381BA80102C04D
:104BA000440F551F3A95E2F7641675060CF0B7CF1F
:104BB0008091F101082E000C990B862997293091DC
:104BC000F001AC0102C0440F551F3A95E2F7598F2E
:104BD000488F480102C0880C991C2A95E2F7B12C35
:104BE000A12CA814B904CCF4688D798DC5010E945C
:104BF000F213C816D90669F00E941415A301B50175
:104C0000CE0101960E9482195524539488CF86E0E4
:104C100082CF5FEFA51AB50AE4CF8FEF681A780A42
:104C2000B7CFCE0101960E94F01A70E060E0CE018D
:104C300001960E941A1AB7CC70E060E0C7010E948A
:104C40001014019709F42ACD0E94141550E040E099
:104C5000B701AECB70E060E0C7010E94F2130F977E
:104C600099F72FEFE21AF20A3BCD64E374E0CE012C
:104C700001960E94DF1B8091F60185300CF48BCDEC
:104C800022E030E042E050E06FE070E0CE010196BB
:104C90000E94F01A8FE090E00E944B14D12CC12C9E
:104CA000E090F3010E2C000CFF088091F201E81A4D
:104CB000F10887FDF394CE14DF040CF419CE5801EB
:104CC0000E2C02C0AA0CBB1C0A94E2F753E0C52EBE
:104CD000D12CCA14DB040CF071CB82E090E08E156D
:104CE0009F052CF59801082E02C0220F331F0A944D
:104CF000E2F7C216D30679F10196F1CF6091F10186
:104D0000062E000C770B6C297D298091F00102C0E2
:104D1000660F771F8A95E2F790E080E00E941014FA
:104D2000019709F4E1CD0E941415A601B1CD60915F
:104D3000F101062E000C770B6C297D298091F00182
:104D400002C0660F771F8A95E2F790E080E00E942C
:104D5000F2130F9741F74FEFC41AD40ABACFF110EC
:104D600080C82DED821625E09206A104B10408F456
:104D700078C88091F901823009F4F0C80CF0CCC8F1
:104D8000882309F4E0C8813009F06BC89091F701DD
:104D900089278093F701DDC8F11063C82DED8216D5
:104DA00025E09206A104B10408F45BC881E00E94EA
:104DB0007A1B86E00AC9FB01DC014150504048F0F3
:104DC00005900D920020C9F701C01D92415050403E
:104DD000E0F70895AEE0B0E0E0EFF6E20C94B82919
:104DE0008C01FA018EE08C831A83098377FF02C05D
:104DF00060E070E8615071097E836D83A901BF0195
:104E0000CE0101960E9416274D815E8157FD0AC092
:104E10002F813885421753070CF49A01020F131F94
:104E2000F80110822E96E4E00C94D429ABE0B0E0B7
:104E3000ECE1F7E20C94AA297C013B018A01FC0118
:104E400017821682838181FFC8C1CE0101965C0161
:104E5000F7019381F30193FD859193FF81913F01C8
:104E6000882309F453C1853239F493FD859193FF6A
:104E700081913F01853229F4B70190E00E94062913
:104E8000E7CF912C212C312CFFE1F31538F08B3238
:104E900011F190F4803209F1833229F137FC3CC0E2
:104EA00020ED280F2A3050F536FE20C08AE0989E6B
:104EB000200D1124922E06C08D3291F0803371F7AF
:104EC000689430F8F30193FD859193FF81913F0140
:104ED0008111DACF21C0689431F8689432F8F2CFAA
:104EE000689433F8EFCF689434F8ECCFEAE02E9E64
:104EF000200D1124222E689435F8E4CF8E3229F447
:104F000036FC04C1689436F8DDCF8C3619F4689409
:104F100037F8D8CF8836B1F2982F9F7D95549330CB
:104F2000E0F08336A1F18337C1F1833509F063C026
:104F30002801F2E04F0E511CF801C080D180692D8C
:104F400070E036FC02C06FEF7FEFC6010E94F028D0
:104F50004C01689437F882010AC00C5F1F4FFFE3D1
:104F6000F98388248394912C6501E89437F833FE03
:104F70002DC0522C8114910471F5552009F468CF8D
:104F8000B70180E290E00E9406295A94F6CFF8011A
:104F9000808189830E5F1F4FE4CF2801F2E04F0E1E
:104FA000511CF801C080D180692D70E036FC02C030
:104FB0006FEF7FEFC6010E94FB284C018201D5CF25
:104FC000B70180E290E00E9406292A94281419046F
:104FD00009F0B0F7CECFF60137FC859137FE81910D
:104FE0006F01B70190E00E94062951105A94F1E038
:104FF0008F1A9108BFCF843619F0893609F077C02F
:10500000F80137FE6BC060817181828193810C5FF2
:105010001F4FF32DFF763F2E97FF09C09095809587
:10502000709561957F4F8F4F9F4F689437F82AE0B6
:1050300030E0A5010E943629C82ECA188C2C432CBA
:1050400036FE0CC0E89440F8C91440F434FE05C0A4
:1050500032FC03C0F32DFE7E4F2E892C44FE95C0FA
:10506000FE01EC0DF11D8081803309F087C0242DF5
:10507000297E422E842D8870582E43FC95C040FE18
:105080008FC09C2C821418F42C0C922C981844FE7F
:1050900091C0B70180E390E00E94062942FE09C05A
:1050A00088E790E041FE02C088E590E0B7010E94E9
:1050B0000629C91408F48AC0CA94D12C9FEFC91AD2
:1050C000D90ACA0CDB1CF60182916F01B70190E08E
:1050D0000E940629AC14BD04B1F74FCF60817181E5
:1050E000072E000C880B990B0E5F1F4F92CFD32C0D
:1050F000E894D4F82AE030E0853739F1232D297F70
:10510000D22E8F3601F148F48835A9F0F701868157
:1051100097812B96E2E10C94C629803749F08837B5
:10512000A9F7D4FE02C06894D2F820E130E00DC0A7
:105130006894D4F8F6CF34FE03C0822F8660D82E50
:1051400020E132E002C028E030E0F801D7FE0FC0D5
:1051500060817181828193810C5F1F4FA5010E9444
:105160003629C82ECA183D2CE89437F867CF6081DD
:10517000718190E080E00E5F1F4FF0CF42FC02C0D3
:10518000839478CF8394839475CF842D867809F4A3
:1051900071CFF6CFB70180E290E00E940629839498
:1051A0008214C0F3512C73CF522C5818821408F477
:1051B0006ECFF8CF842D867809F47BCF8BE241FE49
:1051C00080E247FC8DE2B70190E071CFB70180E348
:1051D00090E00E9406299A946CCF8FEF9FEF99CFB1
:1051E000FC010590615070400110D8F780959095B2
:1051F0008E0F9F1F0895FC016150704001900110B7
:10520000D8F7809590958E0F9F1F08950F931F9349
:10521000CF93DF93182F092FEB018B8181FD09C0FC
:105220001FEF0FEF812F902FDF91CF911F910F91E3
:10523000089582FF14C02E813F818C819D812817A3
:1052400039073CF4E881F981CF010196998388837D
:1052500010838E819F8101969F838E83E3CFE885A3
:10526000F985812F0995892BA1F3DACFFA01AA27B5
:10527000283051F1203181F1E8946F936E7F6E5F99
:105280007F4F8F4F9F4FAF4FB1E03ED0B4E03CD047
:10529000670F781F891F9A1FA11D680F791F8A1F2A
:1052A000911DA11D6A0F711D811D911DA11D20D091
:1052B00009F468943F912AE0269F11243019305D4B
:1052C0003193DEF6CF010895462F4770405D41933C
:1052D000B3E00FD0C9F7F6CF462F4F70405D4A3389
:1052E00018F0495D31FD4052419302D0A9F7EACF51
:1052F000B4E0A6959795879577956795BA95C9F780
:1053000000976105710508959B01AC010A2E069472
:105310005795479537952795BA95C9F7620F731F2B
:10532000841F951FA01D0895F999FECF92BD81BDE0
:10533000F89A992780B50895262FF999FECF1FBABC
:1053400092BD81BD20BD0FB6F894FA9AF99A0FBEAE
:10535000019608952F923F924F925F926F927F92A3
:105360008F929F92AF92BF92CF92DF92EF92FF9275
:105370000F931F93CF93DF93CDB7DEB7CA1BDB0B21
:105380000FB6F894DEBF0FBECDBF09942A883988C6
:1053900048885F846E847D848C849B84AA84B984CD
:1053A000C884DF80EE80FD800C811B81AA81B981D9
:1053B000CE0FD11D0FB6F894DEBF0FBECDBFED01ED
:1053C000089597FB072E16F4009407D077FD09D0B7
:1053D0000E94282A07FC05D03EF4909581959F4FA6
:1053E0000895709561957F4F0895A1E21A2EAA1B2A
:1053F000BB1BFD010DC0AA1FBB1FEE1FFF1FA21785
:10540000B307E407F50720F0A21BB30BE40BF50B81
:10541000661F771F881F991F1A9469F7609570950A
:10542000809590959B01AC01BD01CF010895EE0FD1
:10543000FF1F0590F491E02D09940E943C2AA59F3E
:10544000900DB49F900DA49F800D911D112408957F
:10545000AA1BBB1B51E107C0AA1FBB1FA617B7079A
:1054600010F0A61BB70B881F991F5A95A9F78095B6
:105470009095BC01CD010895A29FB001B39FC001DA
:10548000A39F700D811D1124911DB29F700D811D70
:105490001124911D08955058BB27AA270E94632A02
:1054A0000C94DD2B0E94CF2B38F00E94D62B20F0DD
:1054B00039F49F3F19F426F40C94CC2B0EF4E095AC
:1054C000E7FB0C94C62BE92F0E94EE2B58F3BA177A
:1054D000620773078407950720F079F4A6F50C940A
:1054E000102C0EF4E0950B2EBA2FA02D0B01B90154
:1054F00090010C01CA01A0011124FF27591B99F04A
:10550000593F50F4503E68F11A16F040A22F232F55
:10551000342F4427585FF3CF469537952795A795A5
:10552000F0405395C9F77EF41F16BA0B620B730B4C
:10553000840BBAF09150A1F0FF0FBB1F661F771FBD
:10554000881FC2F70EC0BA0F621F731F841F48F472
:10555000879577956795B795F7959E3F08F0B0CFFB
:105560009395880F08F09927EE0F979587950895E2
:105570000E94A22B08F481E008950E94D12A0C9485
:10558000DD2B0E94D62B58F00E94CF2B40F029F43F
:105590005F3F29F00C94C62B51110C94112C0C94E4
:1055A000CC2B0E94EE2B68F39923B1F3552391F392
:1055B000951B550BBB27AA2762177307840738F082
:1055C0009F5F5F4F220F331F441FAA1FA9F335D0DF
:1055D0000E2E3AF0E0E832D091505040E695001C93
:1055E000CAF72BD0FE2F29D0660F771F881FBB1F4D
:1055F000261737074807AB07B0E809F0BB0B802D2B
:10560000BF01FF2793585F4F3AF09E3F510578F056
:105610000C94C62B0C94112C5F3FE4F3983ED4F30A
:10562000869577956795B795F7959F5FC9F7880F2A
:10563000911D9695879597F90895E1E0660F771F7C
:10564000881FBB1F621773078407BA0720F0621B0D
:10565000730B840BBA0BEE1F88F7E09508950E9438
:10566000362B6894B1110C94112C08950E94F62BDE
:1056700088F09F5798F0B92F9927B751B0F0E1F013
:10568000660F771F881F991F1AF0BA95C9F714C0C3
:10569000B13091F00E94102CB1E008950C94102CC0
:1056A000672F782F8827B85F39F0B93FCCF38695FC
:1056B00077956795B395D9F73EF490958095709559
:1056C00061957F4F8F4F9F4F0895E89409C097FBD6
:1056D0003EF490958095709561957F4F8F4F9F4FC9
:1056E0009923A9F0F92F96E9BB279395F69587950D
:1056F00077956795B795F111F8CFFAF4BB0F11F4D0
:1057000060FF1BC06F5F7F4F8F4F9F4F16C0882376
:1057100011F096E911C0772321F09EE8872F762FAC
:1057200005C0662371F096E8862F70E060E02AF0ED
:105730009A95660F771F881FDAF7880F96958795D9
:1057400097F90895990F0008550FAA0BE0E8FEEFAE
:1057500016161706E807F907C0F012161306E40735
:10576000F50798F0621B730B840B950B39F40A262E
:1057700061F0232B242B252B21F408950A2609F40C
:10578000A140A6958FEF811D811D089597F99F6710
:1057900080E870E060E008959FEF80EC08950024B9
:1057A0000A941616170618060906089500240A9486
:1057B00012161306140605060895092E0394000C0C
:1057C00011F4882352F0BB0F40F4BF2B11F460FF9B
:1057D00004C06F5F7F4F8F4F9F4F089557FD9058C4
:1057E000440F551F59F05F3F71F04795880F97FBA5
:1057F000991F61F09F3F79F087950895121613065F
:105800001406551FF2CF4695F1DF08C0161617068D
:105810001806991FF1CF86957105610508940895C2
:10582000E894BB2766277727CB0197F908950E9454
:10583000A22B08F48FEF08950E942F2C0C94DD2BDF
:105840000E94CF2B38F00E94D62B20F0952311F028
:105850000C94C62B0C94CC2B11240C94112C0E946C
:10586000EE2B70F3959FC1F3950F50E0551F629F8B
:10587000F001729FBB27F00DB11D639FAA27F00DA9
:10588000B11DAA1F649F6627B00DA11D661F829FD0
:105890002227B00DA11D621F739FB00DA11D621FB5
:1058A000839FA00D611D221F749F3327A00D611DD2
:1058B000231F849F600D211D822F762F6A2F1124B4
:1058C0009F5750409AF0F1F088234AF0EE0FFF1FE7
:1058D000BB1F661F771F881F91505040A9F79E3F3E
:1058E000510580F00C94C62B0C94112C5F3FE4F30F
:1058F000983ED4F3869577956795B795F795E79594
:105900009F5FC1F7FE2B880F911D9695879597F99C
:105910000895DC0101C06D9341505040E0F70895B7
:04592000F894FFCF29
:10592400000F050A0C030906050A0C0309069D006D
:1059340097008D0082007B0075006F0068001815C9
:10594400A015C019FF1815A115C819FF1815AE190F
:10595400FF1815AF19FF1815AE15D5168015A81622
:105964001F15D316001540158D1614152016001595
:10597400A115C815DA16021581168F15D916F11559
:10598400DB1640152E15A415A619FF0001140A6490
:1059940064323200127A0000042896100400008059
:1059A400002000CC00C700C000B900B300AE00A9BD
:1059B40000A300000101010102020300000000D164
:1059C40008A408A3157A089D088A087B080000002B
:1059D400004F152715A315A2152D0CB80C1D0C008E
:00000001FF
